:020000040000fa
:080000000002040000000000f2
:020000040000fa
:1000080006320000000000000400000008000000a4
:100018000c00000006320000063200000632000024
:10002800063200000632000006320000f22000000e
:100038007206000006320000063200000632000098
:100048009c20000006320000063200000632000044
:1000580006320000063200000015000006320000db
:1000680006320000f020000006320000882300005d
:100078000632000006320000063200000632000098
:10008800c8190000063200000632000006320000df
:100098000632000006320000063200000632000078
:1000a8000632000006320000063200002c1500005f
:1000b8000632000006320000063200000632000058
:1000c8000632000006320000063200000632000048
:1000d8000632000006320000063200000632000038
:1000e8000632000006320000063200000632000028
:1000f8000632000006320000063200000632000018
:100108000632000006320000fe2d00000632000014
:10011800063200000632000006320000fe2300000e
:1001280006320000063200000632000006320000e7
:1001380006320000063200000632000006320000d7
:1001480006320000063200000632000006320000c7
:1001580006320000063200000632000006320000b7
:1001680006320000063200000632000006320000a7
:100178000632000006320000063200000632000097
:100188000632000006320000063200000632000087
:100198000632000006320000063200000632000077
:1001a8000632000006320000063200000632000067
:1001b8000632000006320000063200000632000057
:1001c8000632000006320000063200000632000047
:1001d8000632000006320000063200000632000037
:1001e8000632000006320000063200000632000027
:0801f80006320000063200008f
:020000040000fa
:100208000632000010000000140000001800000072
:100218001c00000006320000063200000632000012
:10022800063200000632000006320000f22000000c
:100238007206000006320000063200000632000096
:100248009c20000006320000063200000632000042
:1002580006320000063200000015000006320000d9
:1002680006320000f020000006320000882300005b
:100278000632000006320000063200000632000096
:10028800c8190000063200000632000006320000dd
:100298000632000006320000063200000632000076
:1002a8000632000006320000063200002c1500005d
:1002b8000632000006320000063200000632000056
:1002c8000632000006320000063200000632000046
:1002d8000632000006320000063200000632000036
:1002e8000632000006320000063200000632000026
:1002f8000632000006320000063200000632000016
:100308000632000006320000fe2d00000632000012
:10031800063200000632000006320000fe2300000c
:1003280006320000063200000632000006320000e5
:1003380006320000063200000632000006320000d5
:1003480006320000063200000632000006320000c5
:1003580006320000063200000632000006320000b5
:1003680006320000063200000632000006320000a5
:100378000632000006320000063200000632000095
:100388000632000006320000063200000632000085
:100398000632000006320000063200000632000075
:1003a8000632000006320000063200000632000065
:1003b8000632000006320000063200000632000055
:1003c8000632000006320000063200000632000045
:1003d8000632000006320000063200000632000035
:1003e8000632000006320000063200000632000025
:0803f80006320000063200008d
:020000040000fa
:10040000efc020000e6d24000e01880000000000e7
:1004100000012000200288000c000700a0652200d7
:100420000100200011000700000020000000e00093
:10043000020032000000020000000000a40f0200d1
:10044000000000000040da000000fe004440a90067
:10045000400820000000e0000300320000002000ff
:10046000a00188004440a800000006009101880017
:10047000800078000000eb0015003700e2804000ab
:1004800032a0b4009101ba00e280400032a0b40072
:100490009102ba00e280400032a0b4000002eb00fa
:1004a000472bde00f507b200602ce10004003a00a3
:1004b0000059eb008301e900fdff3e000400370016
:1004c0006128e100010032000082eb000400070017
:1004d0001101ba000200e000e8ff3a000000060047
:1004e0003159ba008301e9000c0032002159ba00e9
:1004f0008301e900080032000400e00003003a0034
:10050000e280400032a0b400f5ff370011d9ba00f4
:100510008301e900faff3a008100e800e180400031
:1005200032a0b400000006000021ef00110888008e
:1005300020088800000006000a21ef0071088800ea
:1005400090088800000006001421ef00d108880000
:10055000f00888001e61a90000000600000888005d
:10056000000006005008880000000600a00888006f
:1005700000000600c0088800000006003200f800f5
:10058000023b8800910188000008bb000500fc00c8
:1005900051052000313b8800a10a2000313b880032
:1005a00061e7a80000000000000000003200f90030
:1005b000000006000400a100010037000400a000b4
:1005c0003200f8009101880011002400013b8800ee
:1005d000f10f20003208bb000400a700b200780031
:1005e0000198bb008301e900faff3a00680151005d
:1005f0000400a70068015100680050001208bb0009
:10060000e2ff3700f30f20003200f800910188006c
:1006100031002400013b88000208bb000388bb00b6
:10062000daff37003200f800003b8800d7ff3700c0
:100630003200f800910188008002780062004000da
:10064000e08048003549ba003204e0000410a700f9
:10065000100032008301e9000e0032002549ba0083
:100660003204e0000410a7000a0032008301e90010
:10067000080032000408a300eeff320015c9ba00da
:100680003204e0000410a700020032008301e900f8
:10069000e8ff3a003200f90000000600839f68007e
:1006a0000100e00002003d0060001000e080180042
:1006b0000300e00002003d0060011100e08119002c
:1006c000050007004f00e00002003b006000100042
:1006d000e0801800000006006022b800060220003a
:1006e0000000d0008180d2000482d2008582d20036
:1006f0000000a0000202520083825a000300310071
:100700000202420083824a000000a1000603e900c1
:10071000f3ff3a00000006000002780002003700f4
:10072000315a78000201e900e00f5100fcff3a0065
:0407300000000600bf
:020000040000fa
:1007340000040000060500000203000001000000a0
:10074400000000004a01000094020000de030000e3
:100754002705000070060000b90700000109000029
:10076400480a00008f0b0000d50c0000190e000091
:100774005d0f00009f100000e01100002013000036
:100784005e1400009b150000d61600000f18000030
:10079400461900007b1a0000af1b0000e01c00009b
:1007a4000e1e00003b1f0000652000008c2100008d
:1007b400b1220000d3230000f3240000ff7f0000d7
:1007c400fb7f0000ec7f0000d37f0000b07f0000bf
:1007d400837f00004c7f00000b7f0000c17e00007f
:1007e4006c7e00000e7e0000a57d0000337d0000bd
:1007f400b87c0000327c0000a37b00000a7b000070
:10080400687a0000bc79000006790000477800008f
:100814007f770000ad760000d3750000ef74000010
:10082400017400000b7300000c72000004710000de
:08083400f36f0000d96e000013
:020000040000fa
:10083c006059880066598000655980004406200084
:10084c00110009000403d80000037800110009000e
:10085c008402d8008002780005b2b90046fa210063
:10086c0006abb90040fa21000022b8008502430013
:10087c00745988008559880000000600905988003a
:10088c0024002000110009008400d8000002780028
:10089c00a459880064b32000024a78000201fb00ce
:1008ac0004322000050020000201e900030033009f
:1008bc000402420085824a00fbff3700c4598800bd
:1008cc00d559880000000600e0598800240020005b
:1008dc00110009008400d80000027800f459880047
:1008ec0004b42000024a78000201fb00043220000c
:1008fc00050020000201e90003003300040242005d
:10090c0085824a00fbff3700145a8800255a88005c
:10091c00000006000002eb00045688001456880004
:10092c00245688006033b800b6588800c758880031
:10093c00765888008758880096588800a7588800f1
:10094c00d6588800e7588800f45888000459880065
:10095c001659880027598800345988004459880052
:10096c00a5b22000844a780000000600881f780099
:10097c0000447800e7ff0700545880000402e800a8
:10098c005458880094b02000084a78004f0478002e
:10099c00000006000000eb00f3fe07008780a900b2
:1009ac0000000600881f7800e4ab20009442780019
:1009bc0061c462000e003a0014427800624062008a
:1009cc0002003a004f04780000000600ce14070025
:1009dc00d0578800e1578800ce140700f0578800e4
:1009ec00084078004f04780000000600f7ff37003d
:1009fc004b1407007557800070578800a4ac20007a
:100a0c0014447800e04f540029003a00d657800077
:100a1c00e757800005005000cf80de000000430047
:100a2c0081804b00d0578800e157880084578000a4
:100a3c000402e8008457880008407800f40f520044
:100a4c00e0ff3a000002eb0084578800f457800066
:100a5c00d0578000e15780005657800067578000c0
:100a6c0006035000878358000402e800cfa2de0082
:100a7c000602420087824a004f2bde00060242002b
:100a8c00e0824a008582d1000482d300f4578800aa
:100a9c00d4578000e557800054578800655788006c
:100aac0010c0b3004f04780000000600c7ff3700e9
:100abc006022b800d4578800e55788000000eb008e
:100acc00f05788004f04780000000600bfff370085
:100adc00889fbe0080047800e4ab200014427800ac
:100aec00624262000000eb001f003a00a8ac20003c
:100afc00546f24008042eb0094cf120001003200ae
:100b0c0000cceb00a5ac200000c2eb00984f12000b
:100b1c002800320014c0b300954f12002f00320091
:100b2c0024c0b300954f12003700320044578000a8
:100b3c0035c0b30098cf12000d003200355780003d
:100b4c00850c7800a5002000811f78001100090099
:100b5c000502d800cf007800e00f500002003d00e5
:100b6c008016b000feff33004f04be0000000600ec
:100b7c006637820065ff2f0005b3b900860f52005f
:100b8c00330034000402e9004457880035578000d4
:100b9c00850c7800a5002000811f78001100090049
:100bac000502d800cf007800e00f5000ecff3500b4
:100bbc00edff370034578000e00f52003d00340049
:100bcc000402e900345788004457800035c0b30054
:100bdc0098cf1200d9ff3a00e5ff37003457800058
:100bec00f67c2000860f520012003c000402e80044
:100bfc00345788004457800035c0b30098cf12009a
:100c0c00ceff3a00daff3700663782004457800087
:100c1c006a33b900860f520020003d000402e80040
:100c2c004457880035c0b30098cf1200c3ff3a0078
:100c3c00cfff370024c0b300844a780044578000ab
:100c4c0035c0b30098cf1200bcff3a00c8ff370084
:100c5c000002eb00840c780034578800a4c02000fc
:100c6c001424a000e4bf20001444a0006915070060
:100c7c004457800035578000850c7800a500200073
:100c8c00811f7800110009000502d800cf00780000
:100c9c00e00f5000b2ff3500b3ff370036c0b30091
:100cac00864a780035c0b30098cf1200a3ff3a00f3
:100cbc00afff3700804aeb00a4c020001444a10011
:100ccc00861307004457800035c0b30098cf12003c
:100cdc009aff3a00a6ff37003600f800809fbe004e
:100cec00829fbe00849fbe00869fbe00889fbe0070
:100cfc008a9fbe008c9fbe008e1f7800ec87470039
:100d0c00440f20002402880052150700165580005d
:100d1c003555800034002000811f78001100090037
:100d2c000403d80080037800cf00780017558800a2
:100d3c000603ea0005035300811f78001100090027
:100d4c000403d80000037800cf00780026558800f3
:100d5c00811f7800110009008402d800000278007d
:100d6c00cf00780034558800e8ab2000184078009c
:100d7c00614260002c013200acac20000041eb0061
:100d8c009c4f11005e013200e0b1200050ff0700c3
:100d9c00000578008bb0200034cbb3009b4f1200c1
:100dac002f013200fffe07000042780098417800c6
:100dbc00e2c261004b013a00c9032000809fbe00d3
:100dcc00110009000905d800800478004f00be000e
:100ddc008944e8001dad20009d42780089cf520067
:100dec00110032009843780061c363000ead2000ff
:100dfc0004003200e6ab2000164378006243630027
:100e0c0086023a00054f7800894e78000903fb00f2
:100e1c00cfb3de0061035300e0835b00e50f5300aa
:100e2c00e08f5b0007013600c0568000000378009d
:100e3c00b156800081037800e1c464000904a2006b
:100e4c0018477800e2426700e6013200e5ab20006b
:100e5c009542780061c162008002eb0030013200e3
:100e6c009556800085025500320b2000828f52006f
:100e7c0068023c00c2f42f00828f520001003d003a
:100e8c008516b000fe8f520024013c00e2012000c8
:100e9c00fe8f420003003500e08f520020013d0020
:100eac000501ea0002014100053e2800e506790033
:100ebc00253a2800650579000a05ea00e0cf5400c0
:100ecc001e01320016037800170353000db1b90050
:100edc00e2bf9f00f3bf9f00a556800095027800eb
:100eec000aa9b900cf9bde00411fdd004f13de00c5
:100efc0006037700d3ff2f0003b1b9006fbb970037
:100f0c00ffbb9700413fdd004f33de000603770047
:100f1c00cfbbde00b6bf9f00c7bf9f00bfbb970013
:100f2c0007034100365688000da9b900100078005f
:100f3c00110350000ab3b900411fdd004f10de0051
:100f4c0000007700cf98de008002ea004138dd0017
:100f5c004f33de0006037000cfbbde0086825200ea
:100f6c00455688006eb320000040eb009c4f1000eb
:100f7c0015003a0085b02000b2c0b3009b4f1100a1
:100f8c00b9013200a3c0b30095cf1100b6013200f5
:100f9c0063c0b30095cf11004002320004c5b3000a
:100fac00954f1200ba02320034cbb300954f1200a9
:100fbc00b70232006022b800d4588800e558880087
:100fcc000002eb00f4588800b6c0b3009b4f13002e
:100fdc00fa00320084b0200067c0b30094cf130035
:100fec00f60032000040eb009c4f1000f3003a007a
:100ffc003556800064598000848f5200df013c001c
:10100c0037568000655980008502ea00a4b22000a2
:10101c00858f530001003d0000caeb00a5b22000f3
:10102c008043eb0094cf1300db01320010c0b300ff
:10103c00954f10003703320080c1eb0095cf1100a3
:10104c00e4023200d4588000e558800090588000ab
:10105c00a15880000002420081824a009e03fb00de
:10106c008703e900030033008582d1000482d3009a
:10107c00fbff370004067800455680008502ea0025
:10108c0090598000445980000482520000a3b9009a
:10109c00b6bf9f00c7bf9f00a45980004059800075
:1010ac00008042000480b900b2588000c358800010
:1010bc000600400087804800000041008180490004
:1010cc00b0588800c158880045598800b058800035
:1010dc00c1588000c4598000d5598000840f50003d
:1010ec00858f5800fd003400c2598000d359800010
:1010fc00b2588800c3588800b4588000c558800086
:10110c001e03fb000603e900030033008582d100b7
:10111c000482d300fbff37008405780025032000f0
:10112c0016032000140e8000e00f520009003d0051
:10113c00140e800004f0a100860f520005003e0042
:10114c008502e900f7ff3a00e4bf20001474a00008
:10115c00301407000de2b9000ad8b900c109dd004e
:10116c004f00de0000807100cf88de00d7ff2f001b
:10117c000783b900412fdd004f22de000402770007
:10118c00cfaade00840243000ae0b9000ddbb900ef
:10119c004139dd004f33de0006037100cfbbde00aa
:1011ac00cf8dde00c109dd004f05de000a85710020
:1011bc000a024300e0cf5400010032000402ea00ae
:1011cc0026578000048b520006578000040b420007
:1011dc008502ea0016578000048b5200d25680001c
:1011ec00e1568000f0568000300e0700184478005d
:1011fc0064426400d40032008480a900cf00b100a6
:10120c004f0778004f06be004f05be004f04be00ce
:10121c004f03be004f02be004f01be004f00be0088
:10122c003600f900004006000005eb00acac2000d5
:10123c008bb0200034cbb3009b4f1200d9fe3a0088
:10124c000700370006600100ec013700cf013700c2
:10125c00c0013700b1013700a2013700fe01370091
:10126c0026568000cfb3de00645680007556800091
:10127c000602420087824a00645688007556880030
:10128c00f6cf2d00d7062000860f5200878f5a000c
:10129c0053013c00e00f5200e08f5a0006003d0065
:1012ac0006d02d00d70620000402430085824b0097
:1012bc0064568800755688000ae22400809fbe00a0
:1012cc00110009004a2ad800000578004f00be0022
:1012dc00b4fd07000042780098417800e2c261003a
:1012ec00b5fe3200d4bf9f00ac1207008082fb0019
:1012fc00a6392800e6c47a005fba9700b5fe37001d
:10130c00f8110700000578008bb0200034cbb30037
:10131c009b4f1200a3fe3a00d1ff3700e5012000dd
:10132c0085824200023e2800e2867a00223a28009a
:10133c0062857a00e0cf5400e2fe3a001603780092
:10134c00170353000db3b900a55680009502780021
:10135c000aa9b900411fdd004f11de000201770020
:10136c00cf99de006311b900413fdd004f33de0041
:10137c0006037700cfbbde0006034100365688001b
:10138c000da9b90010007800110350000ab3b90080
:10139c00c11add004f10de0000807200cf98de0015
:1013ac00413fdd004f33de0006037700cfbbde008c
:1013bc008602500045568800eafe3700f55880003a
:1013cc0034568000048352009559800030598000b7
:1013dc00000053000581b900b2bf9f00c3bf9f003e
:1013ec00a0598000355980008502430000a8b9003f
:1013fc0072588000835880003fba9700cfba97008c
:10140c0004004000858048000000410081804900b4
:10141c0070588800815888003659880070588000b0
:10142c0081588000c4598000d5598000840f500029
:10143c00858f580073003400c6598000d75980003e
:10144c00765888008758880074588000855880002a
:10145c009e03fb008703e900030033008582d10063
:10146c000482d300fbff3700040678004556800049
:10147c008502ea0090598000445980000482520091
:10148c0000a3b900b6bf9f00c7bf9f00a45980003e
:10149c0040598000008042000480b900b25880009e
:1014ac00c3588000060040008780480000004100bf
:1014bc0081804900b0588800c1588800455988007f
:1014cc00b0588000c1588000c4598000d5598000a4
:1014dc00840f5000858f580003ff3c00c0598000da
:1014ec00d1598000b4588000c558800060001000ad
:1014fc00e0801800840f5000858f5800fefe3400e9
:10150c00c4598000d559800060021200e0821a0094
:10151c00b4588800c5588800b4588000c55880005d
:10152c001e03fb000603e900030033008582d10093
:10153c000482d300fbff37008405780025032000cc
:10154c0016032000f7fe3700365680003456800014
:10155c0006a3b900245880003558800004025300bb
:10156c0085825b002658800037588000412fdd00b3
:10157c004f22de0004027700cfaade0004024300f3
:10158c0085824b0024588800355888000403be001f
:10159c007459800085598000840f5300858f5b003f
:1015ac0015ff3400e4bf20001414a0001913070029
:1015bc008480a900cf00b1004f0778004f06be0011
:1015cc004f05be004f04be004f03be004f02be00cd
:1015dc004f01be004f00be003600f900004006006f
:1015ec0011ff3700c5032000809fbe0011000900c9
:1015fc000505d800810278004f00be00fe82520023
:10160c0025fe3700c0598000d159800074588000e5
:10161c008558800060001000e0801800840f500096
:10162c00858f580088ff3400c4598000d55980003c
:10163c0060021200e0821a007458880085588800f5
:10164c0074588000855880009e03fb008703e900d6
:10165c00030033008582d1000482d300fbff3700e6
:10166c000406780081ff37006eb32000e04f520073
:10167c0055fe320025568000f4578000048252003b
:10168c00b5c0b3009bcf120019013a00025980007b
:10169c000059800016598000275980000000420034
:1016ac00cf80de000000430081804b00020152001d
:1016bc00cf91de00441bdd00cc13de0087037300ea
:1016cc004413dd000003430081834b00165988004e
:1016dc0027598800605980001659800027598000ce
:1016ec00cf80de00860f5000878f58003401350004
:1016fc006059800016598000275980000000ea00cc
:10170c00cf80de00860f5000878f58000500340014
:10171c00665980000603ea00cfb3de001659880034
:10172c002759880085b420000043eb00954f130027
:10173c00680132001659800027598000e00f5300d1
:10174c00e08f5b009c013400f0588000165980003b
:10175c0027598000cf80de00860f5000878f5800fd
:10176c008e013d00f55880008502e800f558880090
:10177c00045988006eb3200013fe3700a4b2200079
:10178c0015c0b300054a7800a5b220008043eb00d9
:10179c0094cf130025fe3a0004c5b3009b4f1200f2
:1017ac00c900320034cbb30085b02000954f120035
:1017bc00c5003200d4588000e558800007b42000e2
:1017cc009703fb008703e900030033008582d100f7
:1017dc000482d300fbff37000406780026fe370096
:1017ec000630220027f92f000402430085824b00ab
:1017fc0064568800755688000ae22400809fbe005b
:10180c00110009004a2ad800000578004f00be00dc
:10181c00affe37008516b1009afd3700d4bf9f008c
:10182c00a9100700355a80005fba9700808f5200cc
:10183c002e013200305a8800e1cf54006100320092
:10184c00e6cf54007b0032009d42780085cf5400d7
:10185c00100134007e034500965688007716200050
:10186c00870f530067fd340066eb2f000a0343001b
:10187c0096568800054f7800894e78000903fb00c6
:10188c00cfb3de0061035300e0835b00e50f530030
:10189c00e08f5b0064fd3e006afe37006022b800fa
:1018ac00d4588800e558880014568000f4588800f5
:1018bc00f558800064598000848f5200b6003c00bb
:1018cc0065598000f45880008502ea00848f52002c
:1018dc00bdfd3400645980000402ea00f45888000d
:1018ec00b9fd370066aa2000c6568800a5ad2000b9
:1018fc0025578800e4035300b7568800e5ad200057
:10190c00155788008682e900a5568800c5ad2000d1
:10191c00055788000600be0047fd370046aa200088
:10192c00c6568800c5ad2000255788008683e9007f
:10193c00b7568800e5ad2000155788008682e80070
:10194c00a5568800a5ad2000055788000600be00ee
:10195c0039fd370046aa2000c6568800c5ad2000c8
:10196c00255788008683e800b7568800a5ad20006f
:10197c00155788008682e900a5568800e5ad200041
:10198c00055788000600be002bfd370026aa200054
:10199c00c6568800e5ad200025578800e4034300b7
:1019ac00b7568800a5ad2000155788008682e80040
:1019bc00a5568800c5ad2000055788000600be005e
:1019cc001dfd370016ad20009d427800e6cf520079
:1019dc009eff3a00fe0345009756880070162000c3
:1019ec00808f53000101340067eb2f008a83430082
:1019fc0097568800054f7800094b780026aa2000de
:101a0c00c6568800e5ad2000255788008683e8007f
:101a1c00b7568800c5ad200015578800e402430076
:101a2c00a5568800a5ad2000055788000600be000d
:101a3c0001fd370016ad20009d427800e1cf520029
:101a4c0082ff3a00fe03550097568800f3003300de
:101a5c00054f7800094b780066aa2000c65688000e
:101a6c00a5ad2000255788008683e900b75688006d
:101a7c00c5ad200015578800e4025300a556880018
:101a8c00e5ad2000055788000600be00eafc3700d3
:101a9c0004568000cfa2de009e03fb00e5835300ba
:101aac008703e900030033000402420085824a00e8
:101abc00fbff3700d4588800e55888000002eb0083
:101acc00f458880040fd3700d4588000e558800059
:101adc009e03fb008703e900030033008582d100dd
:101aec000482d300fbff37000406780062fd370048
:101afc00e059800002598000020152000091b900a7
:101b0c00f559800000598000000042000580b900a2
:101b1c00d6588000e75880000200400083804800bf
:101b2c000003430081834b00d6588800e758880097
:101b3c000600be00165a8000275a8000860f5000ff
:101b4c00878f580017003c00105a8000215a8000e3
:101b5c00d6588000e758800060001000e080180024
:101b6c00860f5000878f580006003400165a8000ec
:101b7c00275a800060031300e0831b00d6588800ae
:101b8c00e75888008002eb00f5588800045988005b
:101b9c006eb320000cfd370065598000f5588800a5
:101bac0009fd3700125a8000235a8000d258880051
:101bbc00e35888008002eb00f5588800f3ff3700eb
:101bcc0066598000cfb3de0016598800275988006b
:101bdc00d4fe370067598000345680008703ea0032
:101bec000482530097598000305980000000520045
:101bfc000781b900b2bf9f00c3bf9f00a7598000e7
:101c0c0030598000000042000780b90096588000cf
:101c1c00a758800002004000838048000000430069
:101c2c0081804b0090588800a15888003459880056
:101c3c0090588000a1588000e00f5000e08f5800b1
:101c4c0000fd3c006000b80090588800a158880046
:101c5c00804aeb000002eb0034598800d458800015
:101c6c00e558800090588000a15880000002420086
:101c7c0081824a009e03fb008703e90003003300c6
:101c8c008582d1000482d300fbff37000406780064
:101c9c00f9fc37007e0355009656880059fc3b0032
:101cac00a61420000a03430096568800054f7800be
:101cbc00894e78000903fb00cfb3de0061035300ab
:101ccc00e0835b00e50f5300e08f5b0056fc3e00a9
:101cdc005cfd37001659800027598000f6588800a3
:101cec00045988006eb32000b7fc37009ecf140057
:101cfc00d1fe3200a5c020001534a000e5bf2000a5
:101d0c001544a000d4bf9f00421107005fba970092
:101d1c00c9fe370067598000345680000482530096
:101d2c009759800030598000000052000781b9009b
:101d3c00b2bf9f00c3bf9f00a759800030598000dd
:101d4c00000042000780b90096588000a758800018
:101d5c0002004000838048000000430081804b005b
:101d6c0090588800a15888003459880090588000f9
:101d7c00a1588000e00f5000e08f5800b1fc3500f6
:101d8c006000b80090588800a1588800804aeb0089
:101d9c000002eb0034598800b0ff37001659800060
:101dac0027598000f6588800804aeb0004598800b7
:101dbc006eb3200084fc3700f05880001659800068
:101dcc0027598000cf80de00860f5000878f580087
:101ddc00f2ff3400f55880008502e900f5588800c0
:101dec00045988006eb3200077fc3700054f78004b
:101dfc00094b780026aa2000c6568800e5ad2000c5
:101e0c00255788008683e800b7568800c5ad2000aa
:101e1c0015578800e402430001ff3700a714200087
:101e2c008a83430097568800054f7800094b780049
:101e3c0066aa2000c6568800a5ad2000255788004c
:101e4c008683e900b7568800c5ad20001557880079
:101e5c00e402530009ff37001d0937002109370040
:101e6c0002322000a1002000803e20003d0a070025
:101e7c00b50e0700600e07004f09070084a920006b
:101e8c00004aeb00a3fa07004509370064ac2000b8
:101e9c00000aeb000482e800000aeb0024588000e2
:101eac003558800060021200e0821a00265880002b
:101ebc00375880004128dd004f22de0004027000fc
:101ecc00cfaade000402430085824b002458880010
:101edc00355888000403be00745980008559800071
:101eec00840f5300858f5b0001003c00000006004e
:101efc00e4bf20001414a000c610370015c0b300b6
:101f0c00b4ac2000054a7800f6080700e00a070088
:101f1c00b00d070025090700660a3700d30a070031
:101f2c00db0a0700b30d0700e908070079fa070080
:101f3c00b4ac2000004aeb0000000600e887470024
:101f4c00889fbe008a9fbe008c9fbe008e1f7800ab
:101f5c00f0080700b20907009d100700a40020003c
:101f6c00c4578800210907008660a9009660a80064
:101f7c00d2080700dd0807009460a80084a920009f
:101f8c0003000900005aeb00a9c02000804ceb00b4
:101f9c000002eb0064598800665980006559800086
:101fac0044062000811f7800110009000403d800aa
:101fbc0000037800cf007800811f78001100090021
:101fcc008402d80000027800cf00780004b2b90077
:101fdc0046fa210006abb90040fa21000022b800f5
:101fec0085024300745988008559880068af200029
:101ffc009bff07004d10070000057800e00f55000f
:10200c0006003200000ceb0095ff0700471007009c
:10201c0000057800e00f5500faff3a00008ceb0049
:10202c00c21007003bfa0700e40020000500200066
:10203c00e4b79f00f5b79f000a0278004300200028
:10204c0074815700000025001100200075f907006d
:10205c009760a8004fe8970023100700ebab200017
:10206c001b4278008a4d78000b02e80094427800fd
:10207c000a4a7800a5b420000043eb00954f1300ea
:10208c00fdff3200e4ab20009b43780070c363007b
:10209c00f9ff320066598000e00f5300f6ff320062
:1020ac00c6598000d7598000e00f5300e08f5b00c9
:1020bc00f1ff320014437800e1426300e0003a0083
:1020cc008b40a9009b40a900ea6e2400acac200018
:1020dc00004eeb001944a100e4ab20009b437800b8
:1020ec00e2c26300ac003a00144278006442620021
:1020fc00a7003a009b45780061c2650003003200de
:10210c0014c0b300044e78001944a00005b420009c
:10211c0015427800f759800026002000809fbe00f1
:10212c00110009008603d800000378004f00be00a0
:10213c00f6598800844a78000403fb00043220001e
:10214c00050020000603e9000300330004024200ee
:10215c0085824a00fbff3700145a8800255a8800f4
:10216c005b0807008ab02000004deb0064092000da
:10217c00c4578800008ceb004f0f07000007eb00e2
:10218c00cbbf20000ccab3008a067800e70f07000b
:10219c00e00f5000330032000042eb00b7ac2000df
:1021ac00974f12003b003a000c4d780085af200091
:1021bc00808aeb00e4012000b45788001b24a100a6
:1021cc000042eb009a4f1200050032009d4f1600a2
:1021dc00030032000b0d07000c0d0700591007000f
:1021ec0054588000840f5700e8ff32005e5880007e
:1021fc0095b02000154278009a4f16005800320016
:10220c000043eb009d4f13002f003a00e64f5200a5
:10221c000a003200ea4f520008003200eb4f520025
:10222c000600320005c5b300854f52000300320092
:10223c0035cbb300854f5200d4ff3a00044d7800e3
:10224c0087af2000800beb00008ceb00843e20005d
:10225c006458880029ff0700b40f0700e00f5000f6
:10226c00cdff3a00c262ab00d4ff32001b24a000a9
:10227c008043eb00b6ac200096cf13000c003a0064
:10228c00004deb0064092000c4578800008ceb0063
:10229c00beff370021ff07000c4d780085af2000f2
:1022ac00808aeb00e4012000b4578800c3ff37009c
:1022bc001aff0700004deb0064092000c45788008a
:1022cc00008ceb00b1ff370065c0b3009dcf12004e
:1022dc000c003200a6c0b3009d4f13000900320061
:1022ec00b7c0b3009dcf13000600320005c5b30084
:1022fc009dcf12000300320035cbb3009dcf1200ee
:10230c00a2ff3a00e04f5200e9ff3200e94f5200c1
:10231c00e7ff3200e64f52000a003200ea4f52004b
:10232c0008003200eb4f52000600320005c5b30026
:10233c00854f52000300320035cbb300854f52005d
:10234c0092ff3a0084bf9f0072f90700853e20007f
:10235c00655888000fba9700044d78008bff370042
:10236c00e94f520089ff3a00f00f0700980f070061
:10237c00804ceb00804eeb0064092000c4578800b1
:10238c00008ceb00843e2000645888007fff3700ef
:10239c00a208070057ff37001424a1001a45780043
:1023ac000a81fb006611b900cf91de00000020000d
:1023bc0011002000c5f80700510e070005b42000dd
:1023cc0015427800f759800026002000809fbe003f
:1023dc00110009008603d800000378004f00be00ee
:1023ec00f6598800844a78000403fb00043220006c
:1023fc00050020000603e90003003300040242003c
:10240c0085824a00fbff3700145a8800255a880041
:10241c00af0707008ab02000004deb0064092000d4
:10242c00c4578800008ceb00a30e07000007eb00dc
:10243c00cbbf20000ccab3008a06780053ff3700cc
:10244c00144278000481fb004311de0061416100fd
:10245c00ea6e24009a407800403782008180fb00ad
:10246c00580d070019ff37000164a800000c20006c
:10247c001024b70000fc2f001024b60080032000ad
:10248c001224b70012e4a800942080000480a0005d
:10249c000490a10004a0a000942088009420800047
:1024ac000400a1000410a1000420a00094208800c6
:1024bc0012c4a800000006000004a80000004000a0
:1024cc00000040000543200005004000e10f5200d1
:1024dc000a003200f47f200002016200e18f5000fc
:1024ec00150032004511dd00020878000002eb00f7
:1024fc00140098000004a900000006006112b80046
:10250c0063836100860378004299de00cf91de0080
:10251c00f67f200002016300e18f50000a003200b8
:10252c004511dd0007084100140098000004a900c3
:10253c0000000600f1ff37004511dd00680841007e
:10254c000002eb00eaff3700e88343004511dd0091
:10255c0002884300140098000004a9000000060043
:10256c00e6ff3700889fbe008a9fbe000004a800cb
:10257c000003400006034300074420000704430007
:10258c00c283de008783430006422000868343001b
:10259c004383de0006034300894120000903430006
:1025ac00e18f50001c0032004511dd00020c780058
:1025bc00f27f20000300200013049800e300600069
:1025cc00c208dd00f20020000111dd000281ea00ea
:1025dc00170161000122dd00840b710067026000ad
:1025ec000402420037002000843bdd008783ea00b0
:1025fc0096836300042add00048b73001400200012
:10260c000020dd001424b7000004a9004f05be0013
:10261c004f04be0000000600e3846100e88444001f
:10262c00429dde00cfd5de00c550dd00018c44009c
:10263c0012049800e3006000c208dd00f2002000e4
:10264c000111dd000281ea00170161000122dd00a9
:10265c00840b710067026000040242003700200006
:10266c00843bdd008783ea0096836300042add0047
:10267c00048b7300140020000020dd001424b7002c
:10268c000004a9004f05be004f04be000000060068
:10269c00e1ff3700e023ef0004022200641c8800f5
:1026ac0024442000a41c880074002000b41c880062
:1026bc0064042000741c880004702000841c8800b2
:1026cc008de3a80000000600e023ef0004022000c8
:1026dc00c41c880004442000041d880074002000e1
:1026ec00141d88007b024200d41c88000478200052
:1026fc00e41c880099e3a80000000600889fbe0037
:10270c008a9fbe008c9fbe008a5e80000082eb0018
:10271c00ef0f550026003e00fcff2f00fdff2900a7
:10272c000d84610088047800020478000803be0060
:10273c008d8060000002be000404be008c0f5300ac
:10274c008d8f5b003c0032002cbd20009c4178003a
:10275c000381fb001b003200a45e8000b55e80008c
:10276c00860f5200878f5a003d00320044bd200076
:10277c008002eb008502e800828f520011003d00c0
:10278c005400be00860f5000878f5800f9ff3a00a6
:10279c000a02e800845e8800cf48de00f4002000c6
:1027ac000801be000a0078006eff07000002eb0073
:1027bc00040078004f06be004f05be004f04be005b
:1027cc0000000600e4ff2f00e3cf5100f8ff3200b9
:1027dc004211dd0044bd200002024200068abe0008
:1027ec008345e8000b4e78008b85fb00cf38de006c
:1027fc00f4ff2100070262008402780006027800d0
:10280c000401be004f4ade000b0078002aff0700cf
:10281c008b0278000a02e800845e8800cf48de0054
:10282c00f40020000801be000a0078004dff0700ec
:10283c000002eb00deff3700350020000a02e80042
:10284c00845e8800cf48de00f40020000801be0042
:10285c000a00780043ff07000002eb00d4ff3700aa
:10286c008002eb000a02e800845e8800cf48de009c
:10287c00f40020000801be000a00780039ff0700b0
:10288c000002eb00caff3700042080000480a00087
:10289c000490a10004a0a1000420880005022000df
:1028ac0004208000040eb200850f5200fcff3a0099
:1028bc00042080000480a1000490a10004a0a100c9
:1028cc000420880004208000040eb200fdff3a00b2
:1028dc0030e4a80031e4a80032e4a80033e4a800f6
:1028ec0034e4a90035e4a90036e4a90037e4a900d2
:1028fc00842180000400a1000410a1008421880020
:10290c00842180000480a1000490a100842188000f
:10291c00942180000400a1000410a10094218800df
:10292c00942180000480a1000490a10094218800cf
:10293c003520800004fe2f00048262000420a000d9
:10294c00342088003420800004d0a10004e0a000d2
:10295c0004f0a100342088000ca4a8009860a80002
:10296c009700a8004bff070057ff3700305e880028
:10297c00042080000480a1000490a10004a0a00009
:10298c00042088000508200004208000040eb200fa
:10299c00850f5200fcff3a000164a800000c2000d7
:1029ac001024b70000fc2f001024b6008003200078
:1029bc001224b70012e4a800942080000480a00028
:1029cc000490a10004a0a000942088009420800012
:1029dc000400a1000410a1000420a0009420880091
:1029ec0012c4a800f4002000542088000004a900a0
:1029fc000000060085c0a900004006000004a800e5
:102a0c0055208000040021000482620002003a007c
:102a1c00d4bf20001424a100552080000480200085
:102a2c000482620002003a00d4bf20001434a100da
:102a3c000b04ab0003003a00d4bf20001444a100e7
:102a4c001454a1000004a900000006003600f80090
:102a5c00809fbe00829fbe00849fbe00869fbe00ea
:102a6c00881f78008860a9000004a8005520800009
:102a7c0004002200048262000200320014002000d4
:102a8c00446088005520800004002100048262000c
:102a9c0023003200d4bf20001424a0000482e800dc
:102aac001404a00018002000552080000480200091
:102abc000482620004003200d4bf20001434a00051
:102acc000482e8001414a0000b04ab0005003200d3
:102adc00f4bf20001434a0000482e9001444a000c8
:102aec001454a000f4002000542088000004a90015
:102afc0044608000e10f520014003200e00f5400db
:102b0c0009003a004f0478004f03be004f02be008c
:102b1c004f01be004f00be003600f9000040060019
:102b2c0004047800e0ff3700ba0d07004f0478006a
:102b3c004f03be004f02be004f01be004f00be004f
:102b4c003600f90000400600f5ff3700b10d070014
:102b5c00e00f5400ebff3200f3ff3700889fbe00fc
:102b6c00e00f5100e08f5900230035004613de00c2
:102b7c00f203b200250020000511dd007f43630045
:102b8c009043900005ceb30085c2630086c27200ec
:102b9c0015409800d0429000e3c262005540980066
:102bac000043eb0026409800b043900006cfb300e2
:102bbc0006c3630036409800c6cfb30006486100d8
:102bcc000510a100554098006fc36000c0439000f1
:102bdc0005cfb30085c2630086c2720045409800e1
:102bec00660040000181fb0084007800c7f60700f6
:102bfc004f04be0000000600f5c3b300854361001e
:102c0c0026002000863bdd00d0429000e3c262002b
:102c1c0087c2720055409800c61cde00ca1bdd003e
:102c2c004614de0008847300c843de002840980078
:102c3c006fc46300b044900007cfb30087c3640037
:102c4c0088c3730037409800861bde004639de00cf
:102c5c00f703b200063bdd007f416100904190001c
:102c6c0007ceb30087c3610082c37300174098007e
:102c7c00634873000510a100554098006fc36000b5
:102c8c00c043900005cfb30085c2630086c27200ba
:102c9c0045409800660040000181fb0084007800ec
:102cac009af607004f04be0000000600d2ff370062
:102cbc00881f78000003be003064ab0004003200b3
:102ccc0085218000048020008482620063003a0029
:102cdc00882180006804640069003200882180002b
:102cec0004802000040464009600320098218000c7
:102cfc006804640030003a000302780082407800d7
:102d0c000601be000072240094ff0700685e880074
:102d1c00445e8000e20f5200f1003c00555e8000e2
:102d2c00e28f520062013c00765e8000e20f53009d
:102d3c0006003c000402e800445e88008502e800be
:102d4c00555e88000603e800765e88006302620028
:102d5c0080218000c7ff2f0087036000048273006e
:102d6c0084218800e3826200482add0085218000ee
:102d7c00f7cf2f0087826200848272008521880041
:102d8c00942180000400a1000410a100942188006b
:102d9c00630363004833dd009421800087036200e5
:102dac0086837300972188003264a8000000eb0032
:102dbc004f0478000000060003027800824078007f
:102dcc000601be000073240064ff0700e4bc200071
:102ddc00000aeb00445e8000e20f520089003c00c8
:102dec00565e8000e20f53000f013400675e8000d6
:102dfc006302620080218000c5ff2f000500600087
:102e0c000402700084218800630363004832dd00f3
:102e1c0080218000f6cf2f000603600004037300ae
:102e2c0086218800e3836300942180008502620080
:102e3c008782720095218800942180000480a10073
:102e4c000490a100942188003364a8000000eb00da
:102e5c004f04780000000600d7ff37003264ab0047
:102e6c009bff320095218000048262000080eb0001
:102e7c00cfff3a00882180006804640097ff3a0075
:102e8c0003027800824078000601be000070240026
:102e9c0032ff0700485e8800555e8000e28f5200ca
:102eac0073003c00665e8000e20f5300c3003c00e0
:102ebc00775e8000e28f530006003c008502e8003c
:102ecc00555e88000603e800665e88008703e8000c
:102edc00775e8800842180000400a1000410a1000a
:102eec0084218800e3826200c82add0080218000f2
:102efc00f4cf2f000400600085027000852188004b
:102f0c006303630090218000c5ff2f0085026000e1
:102f1c000683720096218800e3836300c83bdd00c2
:102f2c0095218000048262000702720094218800bf
:102f3c003064a8000000eb004f047800000006008d
:102f4c009dff370003027800824078000601be0026
:102f5c000071240001ff0700585e8800445e800069
:102f6c00e20f52007a003c00655e8000e28f520056
:102f7c00ea003c00765e8000e20f530006003c0045
:102f8c000402e800445e88008502e800655e880063
:102f9c000603e800765e88006302620080218000f0
:102fac00c7ff2f0007006000040270008421880016
:102fbc00842180000480a1000490a1008421880059
:102fcc00e382620094218000870362008582730093
:102fdc0095218800630363004832dd009621800050
:102fec00f5cf2f00050363000403730096218800be
:102ffc003164a8000000eb004f04780000000600cc
:10300c006dff3700565e8000675e800063026200d1
:10301c0080218000c5ff2f000500600004027000b5
:10302c0084218800630363004832dd008021800026
:10303c00f6cf2f000603600004037300862188007e
:10304c00e383630094218000850262008782720012
:10305c0095218800942180000480a1000490a10097
:10306c00942188003364a8000000eb0078ff37003f
:10307c00665e8000775e8000842180000400a100e1
:10308c000410a10084218800e3826200c82add00bc
:10309c0080218000f4cf2f000400600085027000b6
:1030ac00852188006303630090218000c5ff2f00f9
:1030bc00850260000683720096218800e38363001a
:1030cc00c83bdd009521800004826200070272007b
:1030dc00942188003064a8000000eb0096ff3700b4
:1030ec00555e8000765e8000630262008021800065
:1030fc00c7ff2f00870360000482730084218800bf
:10310c00e3826200482add0085218000f7cf2f0082
:10311c00878262008482720085218800942180005d
:10312c000400a1000410a100942188006303630033
:10313c004833dd009421800087036200868373008e
:10314c00972188003264a8000000eb0018ff3700bc
:10315c00655e8000765e80006302620080218000e4
:10316c00c7ff2f0007006000040270008421880054
:10317c00842180000480a1000490a1008421880097
:10318c00e3826200942180008703620085827300d1
:10319c0095218800630363004832dd00962180008e
:1031ac00f5cf2f00050363000403730096218800fc
:1031bc003164a8000000eb008fff3700775e8000c1
:1031cc00842180000400a1000410a1008421880047
:1031dc00e3826200c82add0080218000f4cf2f003a
:1031ec000400600085027000852188006303630081
:1031fc0090218000c5ff2f008502600006837200bd
:10320c0096218800e3836300c83bdd009521800094
:10321c000482620007027200942188003064a800c6
:10322c000000eb0044ff3700675e8000e28f530024
:10323c00effe3c000402e800445e88000603e80050
:10324c00565e88008703e800675e880063026200b0
:10325c0080218000c5ff2f00050060000402700073
:10326c0084218800630363004832dd0080218000e4
:10327c00f6cf2f000603600004037300862188003c
:10328c00e3836300942180008502620087827200d0
:10329c0095218800942180000480a1000490a10055
:1032ac00942188003364a8000000eb00e8fe37008e
:1032bc00765e80006302620080218000c7ff2f00d1
:1032cc00870360000482730084218800e38262001b
:1032dc00482add0085218000f7cf2f00878262000d
:1032ec008482720085218800942180000400a10052
:1032fc000410a10094218800630363004833dd00af
:10330c0094218000870362008683730097218800d4
:10331c003264a8000000eb00a5fe3700765e80004a
:10332c006302620080218000c7ff2f00070060004d
:10333c000402700084218800842180000480a10094
:10334c000490a10084218800e38262009421800013
:10335c0087036200858273009521880063036300f4
:10336c004832dd0096218000f5cf2f000503630065
:10337c0004037300962188003164a8000000eb0060
:10338c001dff37003600f800809fbe00829fbe00f4
:10339c00849fbe00869fbe00889fbe008a9fbe0091
:1033ac008c9fbe008e1f7800f08747008700a90015
:1033bc00180020000b782400fabf20004e2080005b
:1033cc00fe03b200140020000e22dd000621800056
:1033dc0084026300640032004477dd000b07470071
:1033ec00ce449000ef846400e88f54005a003c00f7
:1033fc00090178009e437800e1c263003b00320073
:10340c005e4390000683fb004233de000683fb0024
:10341c000700200007f0a000ae4290008582fb0060
:10342c003e4090006f0060004800dd000500700019
:10343c0001002000460edd00ca06de008d06760077
:10344c004606dd000c0673008d8673009e427800e4
:10345c000583fb004233de009e429000ff82620037
:10346c00c62add0086827200c22add00e5bf9f00fd
:10347c000003eb00d6bf9f005fbb9700efbb97002c
:10348c000606760087867600e60047006e805700b9
:10349c00f4bf9f009df407007fba97000482ea00f6
:1034ac00042188005e4290006242620021003200da
:1034bc001a24a0000804e800e60f5400bfff3a00ed
:1034cc000f01b1004f0778004f06be004f05be003c
:1034dc004f04be004f03be004f02be004f01be00a2
:1034ec004f00be003600f900004006009e437800f5
:1034fc008782fb00c22ade001e4690007f06660013
:10350c004666dd00050676000d002000e60047004b
:10351c006e805700f4bf9f007cf407007fba9700c1
:10352c000482ea00042188005e429000624262003c
:10353c00dfff3a00ee815700094178000c00be0015
:10354c00345e8000040001000804e800e60f54001b
:10355c009aff3a00daff37001a44a00082002000dc
:10356c0082047800a3ff3700e50f5400d4ff3a0023
:10357c00d4bf20001404a0000f01b1004f07780045
:10358c004f06be004f05be004f04be004f03be00e9
:10359c004f02be004f01be004f00be003600f900c6
:1035ac0000400600d1ff3700889fbe008a9fbe00f6
:1035bc000004a8008083fb00078443000804440037
:1035cc0009432000090444008884e800e04f5300bc
:1035dc003e003a00fa7f20000b0020008a017800a0
:1035ec00030161004511dd00680c41008b0c780073
:1035fc000004a9000004a8000183fb00860243001c
:10360c008582420002442000828242000302620052
:10361c004522dd00840a78009b029800824120003c
:10362c0004422000e3cf500004003600e4c25000f6
:10363c0024422000e3cf520018003e00e302630056
:10364c00c22add00f1002000850add008580ea0039
:10365c0094806000058a7000e24f500008003e0024
:10366c00670263000402420035002000842add005a
:10367c008582ea0092826200843bdd000789720039
:10368c00100020000600dd001424b7000004a9007f
:10369c004f05be004f04be0000000600e8c25000fb
:1036ac00a241200044422000e3cf5200e3ff360049
:1036bc00ecc0500064422000e3cf5000dfff360026
:1036cc000001eb0002027800dcff37003a0020001a
:1036dc000a83610068034300c219de00c519dd00ce
:1036ec00030c4300820c78000004a9000004a8001d
:1036fc000183fb000601430002014100034420004a
:10370c00030141000a85620068054500c32add00fb
:10371c00c52ade00c52add00050945001401980004
:10372c00beff3700c4c02000004a7800000006002d
:10373c000c00fa00889fbe0008702000080460008e
:10374c0009002000484add004844de0008047200ed
:10375c00c84cde00e14f54004d00320040003100f7
:10376c0013427800e94f520082003200e74f5200ba
:10377c008800320035c3b300854f5200ae003200d2
:10378c0025c3b300854f5200be00320085c4b30080
:10379c00854f52009300320075c7b300854f52001d
:1037ac00f4003200b5c5b300854f5200230132003e
:1037bc0055c6b300854f52004c01320095c6b3007c
:1037cc00854f520065013200f74f520075013200ef
:1037dc0025c7b300854f5200ab013200d5c6b300ec
:1037ec00854f5200c1013200e5c6b300854f52002f
:1037fc0018003a00e14f510016003a0084f79f0080
:10380c007082570025ac2000156a78009542900014
:10381c00154298000042eb00c4f79f00b4f79f00dc
:10382c0051c0b300c4c02000670464004844dd00ec
:10383c00144278000482fb004422dd00040474006e
:10384c00000fb2004400de000800700070815700c9
:10385c00f30907004f04be000080fa0000000600c8
:10386c00e74f5400fbff3a0013427800e14f42004f
:10387c0029003200e04f5200f6ff3a000000fe0033
:10388c004f04be000080fa0000000600f4ff370071
:10389c006f406000ef4f5000eeff3a00843e200076
:1038ac0064588800c4c02000144278000482fb00d5
:1038bc00840242000281fb00828f5200e5ff3c0033
:1038cc000402e9000402420063437a000683fb0011
:1038dc000482410094429000c82add008682720066
:1038ec0084b0200014427800e64f520014013200dc
:1038fc00c0003e00e04f52000e013200e24f520079
:10390c00440032006c0907004f04be000080fa002e
:10391c0000000600d2ff3700e14f5100cdff3a0006
:10392c0084f79f0084c0b30094f79f0064c0b30079
:10393c00a4f79f00b4f79f00c4f79f0051c0b300d9
:10394c00c4c02000670464004844dd0014427800c1
:10395c000482fb004422dd0004047400000fb2005a
:10396c004400de000800700070815700ac090700ad
:10397c00b8ff3700e24f5100b6ff3a0013409000f9
:10398c00faf307004f04be000080fa0000000600a6
:10399c00b3ff3700e14f5100aeff3a0084f79f00b0
:1039ac0084b020001442780094f79f0021c0b3002b
:1039bc00c4c02000670464004844dd001442780051
:1039cc000482fb004422dd0004047400000fb200ea
:1039dc004400de0008007000708157009009070059
:1039ec009cff3700e54f51009aff3a0023409000ae
:1039fc004800dd00134290000482fb0004007000bc
:103a0c008bf307004f04be000080fa000000060094
:103a1c0093ff370004002800848f5200030032000b
:103a2c002556880024090700b7ff37001500280029
:103a3c0025568800fbff3700e14f510085ff3a0007
:103a4c0084f79f00c4c020009442780095f79f0033
:103a5c0021c0b300670464004844dd0014427800c0
:103a6c000482fb004422dd0004047400000fb20049
:103a7c004400de00080070007081570068090700e0
:103a8c0074ff3700e24f510072ff3a0084b02000ff
:103a9c008042eb0094cf12000300320005cbb30040
:103aac0094cf12006bff3a0013409000c8c0200066
:103abc00004c78004f090700184078005c0907009b
:103acc000002eb0083042000c2b42000000025009b
:103adc0011002000d3f2070022042400000025006e
:103aec0011002000a2f20700184278000482fb00ab
:103afc0005002000645a8800755a8800c8b8200058
:103b0c0014c0b300044c78000802e800004aeb0033
:103b1c00c4aa2c00745c88000204200001fc2f0055
:103b2c00888040000080eb00180a0700805c880049
:103b3c000002eb00945c88000304200002fc2f00c0
:103b4c0008014100000025001100200096f207003a
:103b5c000304200008017800000425001100200057
:103b6c0091f207004f04be000080fa00000006002e
:103b7c003bff3700e74f510036ff3a00934290006d
:103b8c008582fb00e4ab200014437800054a7800e2
:103b9c008402e80015437800804aeb001444a0002e
:103bac00234290000482fb00b3429000c82add003f
:103bbc000482720044378a00434290000482fb0066
:103bcc00d3429000c82add000482720054378a0068
:103bdc00e34290008582fb008502d100e46e240054
:103bec00054a78004f04be000080fa000000060071
:103bfc001bff3700ea4f520042ff3900eb4f5200d7
:103c0c0084ff360006c5b300864f52003dff3a00d4
:103c1c0004c02900848f520001003d00840278000a
:103c2c0004402600848f5200010034008402780086
:103c3c0005568800a008070033ff3700e34f5100fa
:103c4c0004ff3a0023439000134290008042eb00a3
:103c5c00e94f52001f003200a4b42000054a78003e
:103c6c00b5c5b30085f79f0081c0b30091f79f00e5
:103c7c0065c0b300a5f79f00b5f79f00c5f79f007f
:103c8c0095c0b300d5f79f00e5f79f0094427800ec
:103c9c00f5f79f008042eb0094cf1200a300320096
:103cac00c4c02000670464004844dd00144278005e
:103cbc000482fb004422dd0004047400000fb200f7
:103ccc004400de000800700070815700d408070023
:103cdc00e0fe37008642780095c0b2008582fb007a
:103cec008502e900cf2ade00dbff3700e84f5100e8
:103cfc00d8fe3a0073419000c3409000c808dd0024
:103d0c00334290000482fb008480700023409000ba
:103d1c004800dd00134290000482fb000400700098
:103d2c00d6f207004f04be000080fa000000060027
:103d3c00cbfe3700f7f207005f080700f2fe3700f2
:103d4c0064598000848f520047003400655980000c
:103d5c001556880058080700ebfe3700e84f510055
:103d6c00bcfe3a0073419000c3409000c808dd00cf
:103d7c00334290000482fb0084807000234090004a
:103d8c004800dd00134290000482fb000400700028
:103d9c00cdf207004f04be000080fa0000000600c0
:103dac00affe3700e54f5100aafe3a0084b0200068
:103dbc00a5c0b30094cf120070003200b5c0b300a0
:103dcc0094cf12006d00320035cbb30094cf1200ab
:103ddc00a0fe3a00a3429000c82add0013429000d6
:103dec000482fb000482720024568800c3429000b7
:103dfc00c82add00334290000482fb00048272006a
:103e0c000456880024568000e56e24009542780004
:103e1c008582fb0004aab900245688000556800050
:103e2c0004402600848f52000d003c000556800093
:103e3c0004c02900848f52000900350024568000ec
:103e4c002556800004002800848f5200adfe3a00f5
:103e5c000402e8002456880017080700aafe370061
:103e6c0004568800f5ff3700645980000402ea000c
:103e7c00848f5200b6ff3d00655980008502ea0030
:103e8c0015568800b3ff3700e34f510071fe3a001e
:103e9c0004c5b30085b02000954f12006dfe3a00aa
:103eac00a3429000c82add00134290000482fb005c
:103ebc0004827200045688000556800004402600d7
:103ecc00848f520004003c000556800004c0290079
:103edc00848f52005ffe3d00045688004f04be00e4
:103eec000080fa00000006005dfe3700e54f51002f
:103efc0058fe3a0084b0200065c0b30094cf120085
:103f0c0054fe3a00a3429000c82add0013429000f0
:103f1c000482fb0004827200145688004f04be0019
:103f2c000080fa00000006004dfe3700c4bf2000e0
:103f3c001474a000d0bf9f00c1bf9f00b50807003c
:103f4c00cfb89700c4c020005fb897006704640026
:103f5c004844dd00144278000482fb004422dd005a
:103f6c0004047400000fb2004400de00080070006e
:103f7c00708157002a08070036fe3700a3429000d4
:103f8c00c82add00134290000482fb0004827200f8
:103f9c0024568800245680002556800004002800f2
:103fac00848f52002bfe3a000402e800245688004d
:103fbc004f04be000080fa000000060028fe370007
:103fcc00a4be20008042eb0094cf12000700320008
:103fdc0095578000e08f520010003200c082a9007b
:103fec00c282a900004aeb0000000600a557800021
:103ffc00e08f520005003200c082a900c282a800e6
:10400c0015c0b300054a780000000600c082a80065
:10401c0015c0b300054a780000000600c082a80055
:10402c00004aeb0000000600365f8000475f80000e
:10403c0061034300e0834b00365f8800475f8800d4
:10404c00105f8000215f800061004000e08048002c
:10405c00105f8800215f8800c4578000e00f520079
:10406c0008003a0014002000a4578800b4578000c0
:10407c00e00f520016003a001400200094578800fc
:10408c0000000600e10f420025003200c4578000fa
:10409c0005002000840f5000858f5800f3ff350079
:1040ac006022b800145f8800255f8800a457800048
:1040bc0004f0a7000402ea000402e9004f22de002b
:1040cc00a4578800b4578000e00f5200eaff32007a
:1040dc00e10f42000f003200b457800005002000b1
:1040ec00860f5200878f5a0009003c006022b800ee
:1040fc00345f8800455f88009457800004f0a70067
:10410c000402ea000402e9004f22de009457880002
:10411c000000060024af2000000aeb00000006009f
:10412c0044af2000000aeb00d0ff37003600f80047
:10413c00809fbe00829fbe00849fbe00869fbe00f3
:10414c00881f780064ac2000000aeb000482e800b1
:10415c00000aeb00e8ab20009842780064c26200d1
:10416c0017003200184478006242640009003a00db
:10417c000cf207008500a9004f0478004f03be0025
:10418c004f02be004f01be004f00be003600f900ca
:10419c00004006000107070002f207008500a90095
:1041ac004f0478004f03be004f02be004f01be000b
:1041bc004f00be003600f90000400600f5ff370046
:1041cc0032f707001844780062426400e8ff3200be
:1041dc00f0ff3700004006003600f800809fbe005c
:1041ec00829fbe00849fbe00869fbe0003fa07001c
:1041fc008dff070072ff0700e4ab2000144278002b
:10420c006442620005003200045f80000402e80092
:10421c00045f8800f30f520007003c008460a90083
:10422c004f03be004f02be004f01be004f00be0048
:10423c003600f900004006000002eb00045f880025
:10424c00350407000058880004588000e00f520025
:10425c000f00350005588000c4d82000848f520010
:10426c00eeff3400e4bf20001414a000e90707009f
:10427c008460a9004f03be004f02be004f01be0078
:10428c004f00be003600f90000400600eaff370080
:10429c00145880000402e800145888008460a900b7
:1042ac004f03be004f02be004f01be004f00be00c8
:1042bc003600f90000400600dfff37000000eb007d
:1042cc00a3f0070081bb200090fa2f0093f0370079
:1042dc000000eb00a0f007008500a9009500a800e5
:1042ec00000006009500a900000006000000eb008d
:1042fc0099f00700017d2000d0f82f008bf03700db
:10430c000000eb0096f00700d1072000d0fa2f0038
:10431c008af03700143a800006002700060262007b
:10432c0005002300850f52001c003200e401200020
:10433c00343a8800243a80000460a1000470a10083
:10434c00243a880000fe2f004427b600a70920005d
:10435c00300020008407200031742000844878004d
:10436c0087487800804878007705200010002000ee
:10437c006404200021742000844878008748780069
:10438c0080487800143a800006026200850f5200c3
:10439c00fcff3a0042a7ab00feff32000000060013
:1043ac0063a0a8008660a900000006008be0a900ad
:1043bc009be0a800000006004580a90044a0a800ce
:1043cc0044e0a8004480a8004440a9004420a80070
:1043dc004400a900f4ff270074548800050028004d
:1043ec0095548800b4548800000006000002eb00cd
:1043fc00240588002505800005c0a00005d0a1007b
:10440c0005e0a100250588003405880035058000ed
:10441c000500a1006500b30035058800440588003f
:10442c00450580000580a0000590a10005a0a00016
:10443c0045058800450580000540a0000550a100f9
:10444c000560a00045058800450580000500a0001a
:10445c000510a1000520a000450588005405880022
:10446c00550580000580a1000590a10005a0a000c5
:10447c0055058800550580000540a1000506b300d0
:10448c00550588006405880000002700ac20b700a3
:10449c007405880084058800850580000500a1004e
:1044ac000510a1000520a000850588008505800069
:1044bc0005c0a10005d0a10005e0a000850588007d
:1044cc0094058800a4058800a50580000580a1003e
:1044dc000590a10005a0a100a5058800a5058000f8
:1044ec0005c0a10005d0a10005e0a000a50588002d
:1044fc00b4058800b50580000500a0000510a100da
:10450c000520a000b5058800d405880004068800a5
:10451c00050680000530b30005a0a1000506880043
:10452c0014068800c220b7002406880034068800d0
:10453c004406880081e0a90000000600c082a900a2
:10454c00000006002536800004fe2f0084826200e5
:10455c000540a00025368800a53580000482620045
:10456c000410a000a435880000000600000006001e
:10457c00e534800004fe2f00848262005500b300f5
:10458c00e5348800e6348000f50f2e0085026300c8
:10459c000660200086827200e5348800f5348000c5
:1045ac00048262007400b300f4348800000e200012
:1045bc002c23b70000000600c534800004fe2f0039
:1045cc00048262000400a000c434880000000600cd
:1045dc002c03a9002c23a9002c43a90000000600e1
:1045ec00c902a90000fe2f00c826b600c862a900a7
:1045fc0015368000f40f2e008482620005b0a000f6
:10460c001536880044358000000262009400b30027
:10461c004435880000000600000006002f03370018
:10462c008002eb00251688000082eb00041688003f
:10463c006516880044168800c082a900163a8000ce
:10464c000660a10067042000720520002174200080
:10465c00874878008248780086487800641988007a
:10466c00263680007f025200040363000640a0003f
:10467c0026368800a6358000040363000610a000cf
:10468c00a6358800c6348000040363000600a00031
:10469c00c63488002c03a9002c23a9002c43a900a4
:1046ac00e6348000040363005600b300e63488004f
:1046bc00e1348000f60f2e000683600001602000bc
:1046cc0001037300e6348800f634800004026300b2
:1046dc007400b300f4348800000e20002c23b700c3
:1046ec00143a80000460a00026742000074b780068
:1046fc00024b7800044b78000503880015038800f2
:10470c00000006003600f800809fbe00829fbe00ad
:10471c00849fbe00869fbe008660a900c262ab006b
:10472c0006003a004f03be004f02be004f01be0010
:10473c004f00be003600f90000400600c4bf200048
:10474c001424a000f5f507004f03be004f02be0075
:10475c004f01be004f00be003600f90000400600bd
:10476c00f6ff3700c05f8800d15f88006903b9008d
:10477c00a4002000809fbe00110009000403d80093
:10478c00000278004f00be00840f510001003d0074
:10479c00b25f8800d00e8800da01f800d801f90069
:1047ac00d801f800d601f900d421ef00c1e1a9002d
:1047bc0014c02000004aeb0015c0b30024c0200038
:1047cc00054a7800200e880074072000440e8800eb
:1047dc00610e8800ce21ef00d021ef0024002000d4
:1047ec00040e8800c621ef00c7e1a80000000600f7
:1047fc003600f800809fbe00829fbe00849fbe00e2
:10480c00869fbe00d421ef00c1e1a90015c0b30002
:10481c0004c02000054a780024c02000144378000e
:10482c00e04f53000a00320016c02000054b780000
:10483c00004aeb008be0a9004f03be004f02be0004
:10484c004f01be004f00be003600f90000400600cc
:10485c0014c02000064a7800c4bf20001434a00005
:10486c006c0607008be0a9004f03be004f02be0090
:10487c004f01be004f00be003600f900004006009c
:10488c00f3ff3700c65f80006933b900a400200035
:10489c00809fbe00110009000403d80000027800bc
:1048ac004f00be00800f520001003400b05f880042
:1048bc0000000600889fbe008a9fbe008c9fbe0031
:1048cc008e1f780008c0200029c0200088067800c0
:1048dc007c0020001b0020000ef023001ac02000da
:1048ec00004ceb00d421ef00d05f8000650040004d
:1048fc00cf80de00b4060700c45f8000d40e8800b1
:10490c00da01f800d801f900d801f800d601f90055
:10491c00c1e1a8008be0a9009be0a8008c0e8800e8
:10492c00ab0e88000042eb00984f12001b003200c7
:10493c00804ceb001a407800e04f500046003200eb
:10494c00803e2000010020009f060700004ceb0079
:10495c00d421ef00d05f800065004000cf80de00e6
:10496c0099060700c45f8000d40e8800da01f800b5
:10497c00d801f900d801f800d601f900c1e1a8006e
:10498c008be0a9009be0a8008c0e8800ab0e880081
:10499c000042eb00984f1200e5ff3a00d05f800018
:1049ac00a00fb000cf80de00870607000042eb00ae
:1049bc009d4f1200deff3a0054002000a40e880028
:1049cc000042eb009d4f1200d9ff3a00d05f8000ef
:1049dc00a00fb000cf80de007b0607000042eb008a
:1049ec009d4f1200d2ff3a0054012000a40e880003
:1049fc000042eb009d4f1200cdff3a00d05f8000cb
:104a0c00a00fb000cf80de006f0607000042eb0065
:104a1c009d4f1200c6ff3a00d421ef009d4f1200ab
:104a2c00c3ff3a00d05f800065004000cf80de00fd
:104a3c00650607000042eb009d4f1200bcff3a00d8
:104a4c00ae0e88001d427800e04f5200b8ff3a00cd
:104a5c00844c780010c0b3004f0778004f06be009e
:104a6c004f05be004f04be00000006000002eb0024
:104a7c00a40e8800c1e1a90015c02000844a78006a
:104a8c0015c0b30024c02000054a780000000600c1
:104a9c00c45f8000d40e8800da01f800d801f90058
:104aac00d801f800d601f90000000600881f780034
:104abc0000047800b45f8000880f52006c00350051
:104acc008402ea00850f54004e003500848f50009c
:104adc005c003c008402ea00858f50002400350005
:104aec00840f510032003c008402ea00850f510013
:104afc0009003500c45f800004004400b00e88003b
:104b0c0084804000c10e880004014100d20e880050
:104b1c004f047800000006000201ea0004c3b9004b
:104b2c00809fbe0011000900423bd80000047800b1
:104b3c004f00be00048bb90011000900423bd800a5
:104b4c008000780005017800c45f800004004400f8
:104b5c00b00e880084804000c10e88000401410022
:104b6c00d20e88004f04780000000600eaff3700e0
:104b7c000103ea0004c0b900809fbe0011000900c7
:104b8c004608d800000478004f00be000491b9001c
:104b9c00809fbe00110009004619d8000001780062
:104bac004f00be0085007800840f5100ceff34000a
:104bbc0004c3b900809fbe0011000900423bd8001d
:104bcc00000478004f00be00048bb90011000900ee
:104bdc00423bd8008000780004017800c45f80005c
:104bec0004004400b00e880084804000c10e880090
:104bfc0004014100d20e88004f047800000006002a
:104c0c00c5ff37000803ea000488b900801f78004c
:104c1c00110009004608d800800078004f00780089
:104c2c000491b900809fbe00110009004619d800fc
:104c3c00000178004f00be0005047800848f5000fe
:104c4c00a4ff340004c3b9008102780011000900ec
:104c5c00453bd800000478000491b900110009000c
:104c6c004519d80000017800840078009cff3700bb
:104c7c00048bb900801f780011000900483bd80054
:104c8c00800078004f0078000491b900809fbe002e
:104c9c00110009004819d800000178004f00be002f
:084cac000404780089ff3700c1
:020000040000fa
:104cb400f20a00005800000002000000000000009a
:104cc40000000000000000000000000000000000e0
:104cd400000000000000000000b0b2000000ff006f
:104ce400ff000000000000000000000000000000c1
:104cf40000000000000000000000000000000000b0
:104d0400000000000000000000000000000000009f
:104d14000008000002000a00000000000000080073
:104d2400000200000a00000000000000ffff010074
:104d3400000000008e0a0000640000000000000073
:104d4400e04600000800000000000000040c000021
:104d54000200000000000000060c00000200000039
:104d64000200000000000000fc0b00000400000032
:104d740000000000000c000004000000020000001d
:104d84000000010000000000f60b00000600000017
:104d940000000000e00b00000c0000000000000018
:104da40000080000000200000200000000002100d2
:104db400104220006330840040a55000c660e70024
:104dc4007008810029914a00a16bb1008cc1ad002b
:104dd400d1cee100eff13100121002007332520023
:104de40022b552009442f70072d66200399318003b
:104df400837bb3005aa3bd00d39cc300fff3de0042
:104e0400e36224004334200004011400e664c70074
:104e140074a4440085546a00a54bb5002885090094
:104e240095eee500cff5ac00c58dd5005336720084
:104e3400261116003006d70076f666009556b400a3
:104e4400465bb7007aa7190097388700dff7fe00a2
:104e5400e79dd700bcc7c40048e558008668a70092
:104e6400784008006118020028233800ccc9ed00fe
:104e7400d98ee900aff94800896999000aa92b0085
:104e8400b9f55a00d44ab7007a966a00711a5000ec
:104e94000a333a00122afd00dbdccb00bffb9e0084
:104ea400eb799b00588b3b00bb1aab00a66c8700c8
:104eb4007ce44c00c55c22002c033c00600c4100e7
:104ec4001caeed008ffdec00cdcddd002aad0b0056
:104ed400bd688d00499d97007eb66e00d55ef400d6
:104ee4004e133e00322e51001e700e009fffbe0076
:104ef400efdddf00fccf1b00bf3aaf00599f780005
:104f04008f889100a981ca00b1eba1000cd12d00ba
:104f1400c14ef1006fe1800010a10000c230e30037
:104f2400200450002540460070676000b983980053
:104f340093fba300dab33d00c31cd3007fe35e0000
:104f4400f3b102009012f30022d232003542140071
:104f5400527762005672ea00b5cba500a895890085
:104f6400856ef5004fe52c00d50dc500e234c30075
:104f740024a01400810466007447640024540500ce
:104f840044dba700fab7990087b897005fe77e0073
:104f9400f71dc7003cd7d30026f236009106b000b7
:104fa4001657660076761500463456004cd96d00c7
:104fb400c90ef9002fe9c80099e989008ab9ab0044
:104fc400a94458006548060078276800c018e10025
:104fd40008823800a3287d00cb5cdb003feb1e0079
:104fe400fbf98b00d89bbb00ab9abb00754a5400fd
:104ff4005a376a00167af1000ad01a00b32a9200ce
:105004003a2efd000fed6c00dd4dcd00aabd8b00e6
:10501400ade89d00c98d26007c076c00645c4500ea
:105024004ca23c00832ce0001cc10c001fef3e008e
:10503400ff5dcf007cdf9b00afbabf00d98ff800c3
:105044009f176e00367e55004e745e00932eb2009c
:105054003ed10e00f01e0000080c0000020000000b
:105064000200000000000000c60b00001a0000004f
:105074000000000000470000800000000000000065
:10508400804700008000000000000000e8460000a7
:10509400180000000200000000005a000000000098
:1050a40000000000000000000000000000000000fc
:1050b400ffffff0000ffff000a0c000002000000d9
:1050c40000000000940b0000320000000200000009
:1050d40000000000000000000002000002010200c5
:1050e400ff0202000200ff000202010002ff0100b1
:1050f40000020200020202000202000001ff02009c
:1051040001020200ff0002000202ff00020102008d
:1051140000000000000a00008e00000000000000f3
:105124004a0b00004a0000000200000000000100d9
:10513400000000000000000000000000000000006b
:10514400000000000000000000000000000000005b
:10515400000000000000000000000000000000004b
:10516400000000000000000000000000000000003b
:10517400000000000000000000000000000000002b
:10518400000000000000000000000000000000001b
:105194000c0c00000200000000000000ec0b0000fa
:0c51a4000a0000000000000000000000f5
:020000040000fa
:1051b0008620a9000602a800002023000602ab00fa
:1051c000030032000000e900fcff3a000000060086
:1051d000e00f5000fdff32008620a900040d2000e2
:1051e00014108800002023000802ab0004003200e5
:1051f0000000e900f5ff32000802ab00fcff3a00b6
:10520000e00f5000f1ff3200002023008620ab00a9
:1052100004003a000000e900ecff32008620ab00f9
:10522000fcff3200e00f5000e8ff32004410800025
:10523000e00f52000c0035008620a900b4012000c8
:1052400014108800042023000802ab001400320070
:105250000402e900fcff3a00044078000000060068
:10526000e00f5000d9ff32008620a9000642a800b6
:10527000042023000642ab00040032000402e900cf
:10528000fcff3a00044078000000060004f0a7008c
:105290000402ea000400ea004f00de0000000600fd
:1052a00000202300e00f5200ebff32008620ab000d
:1052b00003003a000000e900fcff3a00000006008d
:1052c000e00f5000c1ff32008620a900002023001b
:1052d00044108000e00f5200e1ff35000000e900bb
:1052e000fbff3a0000000600c902a90000fe2f00e3
:1052f000c826b600c922a900f00f2e00c826b600a5
:10530000cf02a800cf22a800b418200024108800e3
:1053100007e2a80080382100010020002d040700ca
:10532000a3ff37000600fa00889fbe008620a90070
:105330000602a800042023000602ab00270032006a
:105340000402e900fcff3a0009ff2f0007e2a90070
:10535000c902a90000fe2f00c826b600cf02a8008f
:105360000004eb00e1026400c82add00541680004e
:105370000480a10005027200541688000019200064
:1053800001002000130407000804e800f30f540094
:10539000f4ff3a0007e2a8000019200001002000f5
:1053a0000c0407008620a90000fe2f000622b6008c
:1053b0000642a800042023000642ab001900320078
:1053c0000402e900fcff3a00e9ee2e000900780033
:1053d0004f04be000080fa0000000600e00f5200fb
:1053e000d9ff32008620a900140d20001410880077
:1053f000042023000802ab00150032000402e9007b
:10540000fcff3a0019ff2f0007e2a900c902a9001a
:1054100000fe2f00c826b600cf02a8000004eb0053
:10542000d0ff3700e00f5200e7ff320000192000e4
:1054300001002000e70307005dff07000900780076
:105440004f04be000080fa0000000600e3ff3700b2
:10545000e00f5200ebff3200042023008620ab0057
:105460000a003a000402e900fcff3a0029ff2f007d
:1054700007e2a900c902a90000fe2f00c826b60055
:10548000cf02a8000004eb00b6ff3700e00f520087
:10549000f6ff320046108000040028000403630079
:1054a0008084eb003b003a00f40f2000b4bf9f0063
:1054b000c4bf9f00ec8357008620a9000662a800a5
:1054c000042023000662ab000a0032000402e90057
:1054d000fcff3a0039ff2f0007e2a900c902a9002a
:1054e00000fe2f00c826b600cf02a8000004eb0083
:1054f0009cff3700e00f5200f6ff32008620a90023
:1055000004108000842b78008620a9000602780011
:105510000410a20004f0a7000402ea000402e9005b
:10552000cf22de00c52add00341080000450a10027
:1055300005027200341088000682a80004202300af
:105540000682ab000a0032000402e900fcff3a00c8
:1055500049ff2f0007e2a900c902a90000fe2f00a1
:10556000c826b600cf02a8000004eb007dff37007c
:10557000e00f5200f6ff32000603e800e30f53008d
:10558000cdff3a00bfbc9700c84cdd004fba970072
:10559000848474008620a9000642a8000420230009
:1055a0000642ab000a0032000402e900fcff3a00a8
:1055b00059ff2f0007e2a900c902a90000fe2f0031
:1055c000c826b600cf02a8000004eb0065ff370034
:1055d000e00f52007dff3a0059ff2f00f5ff370022
:1055e0008480a9009480a8002023a8002003a9009b
:1055f00085a0a90081e3a80021e3a800000006001f
:1056000081e3a90021e3a9009480a900000006001d
:10561000203782000000060014002800040040002b
:105620004300de006500b90094032000110009006a
:105630000480d80000000600889fbe008a9fbe003c
:105640008c9fbe008e1f780004a92000000aeb008a
:1056500064024200000aeb0021e3a800880c20004d
:105660006055b8000a06be0000fe2f002823b600d1
:105670002003a9002023a8004006200001002000ec
:10568000540307002023a9000002eb00863e2000ff
:105690002003ab0009003a000402e800860f520024
:1056a000fbff3a000080eb004f0778004f06be007a
:1056b0004f05be004f04be00000006000918800020
:1056c0004519800004fe2f00048262000400a0003f
:1056d000441988002003a9002023a80040062000c8
:1056e000010020003b0307002023a9000002eb007b
:1056f000863e20002003ab0005003a000402e800cb
:10570000860f5200e7ff32002003ab00fbff3200a0
:105710000e1880004519800004fe2f0004826200ec
:105720000410a000441988002003a9002023a80029
:105730004006200001002000260307002023a900c6
:10574000843e20002003ab0004003a000402e9007c
:10575000d4ff32002003ab00fcff320004188000ad
:10576000100028000003b400000278004322de008d
:105770006522b90076ab2100840f53001a00310076
:10578000614ab9000c0642008d864a006172b90078
:105790000a0542008b854a000804e900b2ff3a007e
:1057a000820c2000030020000c00be00bbeb0700b1
:1057b00080548800820c2000030020000a00be00f4
:1057c000b6eb0700a054880021e3a9000800780088
:1057d0004f0778004f06be004f05be004f04be00c5
:1057e00000000600b5ff3700e0ff2f004f077800ec
:1057f0004f06be004f05be004f04be00000006006d
:10580000aeff37008002eb000519880015198800eb
:10581000251988002143a90044c0b3000400780082
:1058200024e3b700141980000480a1000490a000b4
:10583000141988002063a8002043a80004198000e0
:105840000406b3000470a100041988000030200091
:105850002023b700141980000420a1000430a10007
:105860000440a1000450a100141988009519880073
:105870002343a900451988004619800004fe2f0023
:10588000040263003400b300441988002603a90011
:10589000051c8800041c80000440a1000450a000e6
:1058a000041c8800041c80000400a1000410a10056
:1058b000041c880081c3a90004302000441c880017
:1058c00034002000541c8800d4002000141c8800e0
:1058d000046e2000241c8800000006008002eb00fb
:1058e00005198800151988002519880044c0b300df
:1058f0000400780024e3b700141980000480a1009c
:105900000490a100141988002063a9002043a80076
:10591000041980000450a1000460a1000470a100db
:1059200004198800003020002023b70014198000db
:105930000420a1000430a1000440a1000450a100f3
:1059400014198800951988002343a9004519880077
:1059500000000600889fbe008a1f7800dfff070056
:105960000871220000fa20000100200099020700bf
:105970000804e900fbff3a00b9578000e8bf2000a7
:105980006aaf20002cff0700e10f40000b0032003f
:10599000e20f400004003200b95788004f0578003c
:1059a0004f04be00000006001804a000000deb002c
:1059b00021ff0700e10f4000f5ff3a00e4bf20009f
:1059c0001404a00064af2000000aeb00ffff3700c2
:1059d000446f2400024a7800546f2400004aeb0010
:1059e000646f2400004aeb008002eb00c5378a0098
:1059f0000082eb00d4378a00040f80000480a100ed
:105a00000490a10004a0a100040f8800e1e1a90016
:105a1000e1a1a9004f03de004733dd00040f800041
:105a20000470a10006027200040f88008001780053
:105a300003f0a7008301ea0083378a0044062000b0
:105a4000811f7800110009008481d80000027800cd
:105a5000cf00780094378a0086162000068bb900a4
:105a600066378a00e0c1a900e041a800e301a80070
:105a7000e2e1a800140f80000440a1000450a0003f
:105a80000460a100140f880000602000e221b7002c
:105a90000300e900300f88008b40a900250f880023
:105aa000e04f510004003a0000702000e021b700f0
