:020000040000fa
:080000000002040000000000f2
:020000040000fa
:100400008f8c20000e6d24000e018800000000007b
:100410000c00070040d02200010020001f00070050
:10042000000020000000e000020032000000020096
:10043000000000001c2e0200000000000040da0056
:100440000000fe004440a900000020000000e00081
:100450000300320000002000a00188004440a800f2
:1004600000000600f03fb1000180b1000600350039
:10047000ee03090000000000403fb1000180b10020
:10048000fbff3d001000b000203fb000020035002f
:1004900000800900000000000000060091018800b3
:1004a000800078000000eb0015003700e28040007b
:1004b00032a0b4009101ba00e280400032a0b40042
:1004c0009102ba00e280400032a0b4000002eb00ca
:1004d000472bde00f507b200602ce10004003a0073
:1004e0000059eb008301e900fdff3e0004003700e6
:1004f0006128e100010032000082eb0004000700e7
:100500001101ba000200e000e8ff3a000000060016
:100510003159ba008301e9000c0032002159ba00b8
:100520008301e900080032000400e00003003a0003
:10053000e280400032a0b400f5ff370011d9ba00c4
:100540008301e900faff3a008100e800e180400001
:1005500032a0b40000000600821804000000000071
:100560003200f800910188008002780062004000ab
:10057000e08048003549ba003204e0000410a700ca
:10058000100032008301e9000e0032002549ba0054
:100590003204e0000410a7000a0032008301e900e1
:1005a000080032000408a300eeff320015c9ba00ab
:1005b0003204e0000410a700020032008301e900c9
:1005c000e8ff3a003200f90000000600889fbe00f4
:1005d0008a9fbe00010578000100e000040035009c
:1005e00008003c000000e000200032000500370059
:1005f00060001000e080180002003b0001f02c00b9
:100600001a0037000004be006011b8006b0920001a
:100610000982cf00020039000882cf000441b000f7
:10062000694252000e00320008003b0082817100d6
:10063000610164008904d1000884d3008b05e800bf
:100640000442e800f9ff3a000500370008044400be
:1006500089844c008b05e9000442e900fbff3a0065
:10066000cf0007000af0a70001f0a0004f05be0070
:100670004f04be000000060003f0a200889fbe00e9
:100680008a9fbe008c1f7800eb000700f200330049
:100690006450e1004f0032006420e100520032005b
:1006a00003826c0007003b000905d0000306d00060
:1006b000820f54000c065d00020039000200320077
:1006c00089017800030678008582550004003d000a
:1006d0000003fd008103fd008502ea008b854200d6
:1006e000840f720002003b0060001000e0801800e0
:1006f0006011b8000005eb007a28e1000a0039001b
:1007000006007800c75ddd00f707b200878075003e
:100710002d003700828171000a01780061056000b8
:100720008180d1000080d3008502e900f9ff3b0001
:10073000060440008784480002003b006004140067
:10074000e0841c000988a300070032008a81710040
:1007500082817100610164008904d1000884d300a2
:100760008b05e800170037000978a30013003a0052
:100770000b00e000130034008b05e900080444007e
:1007800089844c000a4474000978a3000d003a00e3
:100790000b00e000070034008b05e900080444006a
:1007a00089844c0001003a000b0020000978a30066
:1007b000f7ff32000001eb00020037008281710078
:1007c0000a017800760007000cf0a70001f0a000f5
:1007d000aa0037006420e10002003a00838f6c0019
:1007e000aa0033000801be000200be00a3003700cb
:1007f000889fbe008a9fbe008c1f78008e00070075
:100800009500330003866c006450e1002e00320036
:100810006420e100330032006150e1002f0032001b
:100820006120e1003100320085855500eb07b00002
:1008300009002000080420000500370008044400d7
:1008400089844c000a0031000603430087834b0073
:100850000001530081815b00f8ff33000203be00fa
:100860000800a0000804440089844c00f6ff390009
:10087000c639dd008301730001003200130020003f
:100880008904d1000884d3000998a3000500320030
:100890000800a7000300a0008904d1000884d30049
:1008a0008b05e8008904d1000884d3000001eb0027
:1008b0000281d2003a00070001f0a1000cf0a7006d
:1008c00001f0a0006d0037006420e1006f003200ed
:1008d0000801be000200be00f7ff37006120e10002
:1008e0006a0032006000b800f3ff3700000020000b
:1008f00001f82700f0ff37000001be006600070086
:100900000470a70003f0a10003f8a30013003a004d
:100910006509b10010003200090035006928e100c6
:100920000200350001002800000005000000400022
:10093000818048008502e900fcff3a0000000600c3
:10094000f88f4200050035008100d1000080d300ff
:100950008502e800fcff3a00000006008000eb0082
:1009600000000500839f68000100e00002003d00d8
:1009700060001000e08018000300e00002003d006d
:1009800060011100e0811900580007004f00e000ed
:1009900002003b0060001000e0801800000006002c
:1009a00081002000618055000b003d000b002000fd
:1009b00061fe2f000100e1001d0034008281710002
:1009c000610164008904d1000884d3000000e800bc
:1009d000faff3a007100200061006400030070001b
:1009e000020060000900320061044400e0844c0011
:1009f0000988a500050032008b05e8006808e100c1
:100a000002003a008904d1000884d300f20f2000cc
:100a10000258e10005003d00c75ddd00f907b200a6
:100a20008980750008007800000006000bf8270098
:100a30008b007800000005000004be0016000700cf
:100a40000003be000405be000200be001200070045
:100a5000844f7500000006000200be006450e100f3
:100a6000050036006420e100020036000968a3009a
:100a700001003a000800be000160a0004f067800a7
:100a80004f05be004f04be0000000600f0ff2f001f
:100a9000f1ff2700f9ff3700c70ade00f107b200b7
:100aa000f50fb20008003200e1cf42000200320030
:100ab0000170a00024000500810f700001003200c9
:100ac0000408050044000500810f700002003a0090
:100ad000140005008502e9000000400081c04800c4
:100ae000fcff3b000170a000240005006022b8005c
:100af000060220000000d0008180d2000482d200d3
:100b00008582d2000000a0000202520083825a00b7
:100b1000030031000202420083824a000000a1006b
:100b20000603e900f3ff3a00000006000008880011
:100b3000000006000021ef0011088800200888004e
:100b400000000600a0088800000006001421ef0045
:100b5000d1088800f00888001e61a9000000060086
:100b60008001eb000200370061f079008301e800aa
:100b7000828f5100fcff3a000000060080007800e0
:100b80003004e000feff3a00010050000000e900e0
:040b9000000006005b
:020000040000fa
:0200000401f009
:04000000ffff0000fe
:020000040000fa
:0200000401f009
:04000400ffff0000fa
:020000040000fa
:0200000401f009
:04000800ffff0000f6
:020000040000fa
:0200000401f009
:04000c0078ff000079
:020000040000fa
:0200000401f009
:0400100078ff000075
:020000040000fa
:0200000401f009
:040014007fff00006a
:020000040000fa
:0200000401f009
:04001800ffff0000e6
:020000040000fa
:0200000401f009
:04001c00ddff000004
:020000040000fa
:100008006c2e00003c2e0000422e0000482e0000fe
:100018004e2e00006c2e00006c2e00006c2e00008e
:100028006c2e00006c2e00006c2e000008290000c9
:10003800062e00006c2e00006c2e00006c2e0000b6
:100048006c2e00006c2e00006c2e00006c2e000040
:100058006c2e00006c2e0000ac0b00006c2e000013
:100068006c2e00006c2e00006c2e00006c2e000020
:100078006c2e00006c2e00006c2e00006c2e000010
:10008800c80f00006c2e00006c2e0000562b0000dc
:100098006c2e00006c2e00006c2e00006c2e0000f0
:1000a8006c2e00006c2e00006c2e0000b40b0000bb
:1000b8006c2e00006c2e00006c2e00006c2e0000d0
:1000c8006c2e00006c2e00006c2e00006c2e0000c0
:1000d8006c2e00006c2e00006c2e00006c2e0000b0
:1000e8006c2e00006c2e00006c2e00006c2e0000a0
:1000f8006c2e00006c2e00006c2e00006c2e000090
:100108006c2e00006c2e00006c2e00006c2e00007f
:100118006c2e00006c2e00006c2e0000d02d00000c
:100128006c2e00006c2e00006c2e00006c2e00005f
:100138006c2e00006c2e00006c2e00006c2e00004f
:100148006c2e00006c2e00006c2e00006c2e00003f
:100158006c2e00006c2e00006c2e00006c2e00002f
:100168006c2e00006c2e00006c2e00006c2e00001f
:100178006c2e00006c2e00006c2e00006c2e00000f
:100188006c2e00006c2e00006c2e00006c2e0000ff
:100198006c2e00006c2e00006c2e00006c2e0000ef
:1001a8006c2e00006c2e00006c2e00006c2e0000df
:1001b8006c2e00006c2e00006c2e00006c2e0000cf
:1001c8006c2e00006c2e00006c2e00006c2e0000bf
:1001d8006c2e00006c2e00006c2e00006c2e0000af
:1001e8006c2e00006c2e00006c2e00006c2e00009f
:0801f8006c2e00006c2e0000cb
:020000040000fa
:100208006c2e0000542e00005a2e0000602e0000b4
:10021800662e00006c2e00006c2e00006c2e000074
:100228006c2e00006c2e00006c2e000008290000c7
:10023800062e00006c2e00006c2e00006c2e0000b4
:100248006c2e00006c2e00006c2e00006c2e00003e
:100258006c2e00006c2e0000ac0b00006c2e000011
:100268006c2e00006c2e00006c2e00006c2e00001e
:100278006c2e00006c2e00006c2e00006c2e00000e
:10028800c80f00006c2e00006c2e0000562b0000da
:100298006c2e00006c2e00006c2e00006c2e0000ee
:1002a8006c2e00006c2e00006c2e0000b40b0000b9
:1002b8006c2e00006c2e00006c2e00006c2e0000ce
:1002c8006c2e00006c2e00006c2e00006c2e0000be
:1002d8006c2e00006c2e00006c2e00006c2e0000ae
:1002e8006c2e00006c2e00006c2e00006c2e00009e
:1002f8006c2e00006c2e00006c2e00006c2e00008e
:100308006c2e00006c2e00006c2e00006c2e00007d
:100318006c2e00006c2e00006c2e0000d02d00000a
:100328006c2e00006c2e00006c2e00006c2e00005d
:100338006c2e00006c2e00006c2e00006c2e00004d
:100348006c2e00006c2e00006c2e00006c2e00003d
:100358006c2e00006c2e00006c2e00006c2e00002d
:100368006c2e00006c2e00006c2e00006c2e00001d
:100378006c2e00006c2e00006c2e00006c2e00000d
:100388006c2e00006c2e00006c2e00006c2e0000fd
:100398006c2e00006c2e00006c2e00006c2e0000ed
:1003a8006c2e00006c2e00006c2e00006c2e0000dd
:1003b8006c2e00006c2e00006c2e00006c2e0000cd
:1003c8006c2e00006c2e00006c2e00006c2e0000bd
:1003d8006c2e00006c2e00006c2e00006c2e0000ad
:1003e8006c2e00006c2e00006c2e00006c2e00009d
:0803f8006c2e00006c2e0000c9
:020000040000fa
:100b94000000fa000164a80001412000914078009f
:100ba40000ccb30000c0700010e4b7000141200085
:100bb4009140780000ccb30000c0600010e4b7009e
:100bc400214120009140780080c3b30000c0700030
:100bd40012e4b70012e4a8003141200091407800eb
:100be40080cfb30000c060005040b30013e4b700ee
:100bf400214120009140780080cfb30000c0600004
:100c04000024a00012e4b70012c4a8000080fa0077
:100c1400000006002400fa0070079800020f9800f4
:100c2400130f9800210f9800340f98006000b8004b
:100c340050079800610798006000b80030079800da
:100c4400410798006000b800100798002107980039
:100c54000004a8007e009000000040000000400056
:100c6400800078000043200000804000000f7800de
:100c74003e089000e10f50005e003a000e0890001c
:100c84009e089000f2ff2f0003002000000278006d
:100c9400810278000200780083007800000162007d
:100ca400018062006102b800440f9800550f98005b
:100cb4004e089000de089000c000dd000000200017
:100cc400400f9800510f98004e089000de089000e5
:100cd4006112b800440f9800550f98004e09900017
:100ce400de099000020070008380700030079800d5
:100cf400410798000e0890009e0890004088de008e
:100d0400cf80de00630160006000b80003002000b3
:100d1400020070008380700010079800210798007b
:100d24000e0890009e0890004288de00cf80de000e
:100d3400f27f200003002000000278008102780086
:100d440002007800830078000001620001806200e4
:100d54006102b800640f9800750f98006e08900047
:100d6400fe089000c000dd0000002000600f980025
:100d7400710f98006e089000fe0890006112b80090
:100d8400640f9800750f98006e099000fe0990009a
:100d9400020070008380700050079800610798007b
:100da4002e089000e10f500008003a005e00900009
:100db400c500dd001e00900000804000e8004000f7
:100dc4001e00780001087800060037005e009000dd
:100dd400c500dd001e009000808040001e007800e9
:100de400010878009e80e8003e00900080087800aa
:100df4002e0037000e0890009e089000f27f20001d
:100e040003002000000278008102780002007800cc
:100e14008300780000016200018062006102b80072
:100e240004179800151798000e1090009e1090005b
:100e3400c000dd0000002000001798001117980082
:100e44000e1090009e1090006112b80004179800d4
:100e5400151798000e1190009e119000020070006a
:100e64008380700050079800610798002e08900056
:100e7400e10f500006003a005e0090004500dd00de
:100e8400e80040001e0078000108780004003700e4
:100e94005e009000c500dd001e00780001087800a7
:100ea4009e80e8000000eb00800878000004a900a0
:100eb4000080fa00000006002c00fa00200f9800c1
:100ec400320f9800430f9800510f9800640f980058
:100ed400750f98006000b800000f9800110f98007b
:100ee4006000b80060079800710798006000b800bf
:100ef40040079800510798000004a8002e089000ad
:100f04000000400000004000800078000044200001
:100f140000804000300798002e0890004280de00d8
:100f24000000400080007800004220000080400063
:100f3400200798002e0890004380de000000400047
:100f44008000780080412000008040001007980055
:100f540040412000000f78005e089000e10f50002f
:100f640055003a003e089000ce089000f2ff2f0092
:100f7400030020000002780081027800020078005b
:100f84008300780000016200018062006102b80001
:100f940004179800151798000e1090009e109000ea
:100fa400c000dd0000002000001798001117980011
:100fb4000e1090009e1090006112b8000417980063
:100fc400151798000e1190009e11900002007000f9
:100fd4008380700060079800710798003e089000b5
:100fe400ce0890004088de00cf80de006301600000
:100ff4006000b800030020000200700083807000cd
:1010040040079800510798003e089000ce089000d1
:101014004288de00cf80de00f27f20000300200043
:1010240000027800810278000200780083007800d2
:1010340000016200018062006102b8002417980078
:10104400351798002e109000be109000c000dd00ef
:101054000000200020179800311798002e109000ef
:10106400be1090006112b80024179800351798003c
:101074002e119000be119000020070008380700059
:10108400000f9800110f98000e089000c500dd00b5
:101094004e00900000804000e80040003e009000b8
:1010a400010878003e0090008080e8006e00900007
:1010b40080087800260037003e089000ce08900093
:1010c400f27f2000030020000002780081027800f3
:1010d4000200780083007800000162000180620051
:1010e4006102b80044179800551798004e109000fc
:1010f400de109000c000dd000000200040179800c2
:10110400511798004e109000de1090006112b80044
:1011140044179800551798004e119000de11900066
:101124000200700083807000000f9800110f980077
:101134000e089000c500dd003e0090000108780014
:101144003e0090008080e8000000eb0080087800fa
:101154002e009000100178002e08900063006000bb
:10116400c200dd00f00020000100dd0080007800f6
:101174000080eb0001005000800061002e00900010
:10118400010878002e08900063006000c200dd00b2
:101194006e0890008100dd002e00900010007800a1
:1011a400808070002e009000010878001e009000de
:1011b400100178002e0890006700600000004000d5
:1011c40080007800300020000100dd0080007800fd
:1011d4000080eb0001005000800061001e009000c0
:1011e400010878002e0890006700600000004000ad
:1011f400800078007e0890008100dd001e009000d1
:1012040010007800808070001e00900001087800b3
:10121400110020002e0890000008dd0080007800f6
:101224001e00780010007800808070001e00780096
:10123400010878000004a9000080fa0000000600fc
:101244000000fa000000eb00001f880000022200ea
:10125400601c880020442000a01c8800700020002e
:10126400b01c880060042000701c880000702000fe
:10127400801c88008de3a8000080fa0000000600ae
:101284000000fa000000eb00001f880000022000ac
:10129400c01c880000442000001d8800700020004d
:1012a400101d880020022000d01c88000078200037
:1012b400e01c880099e3a8000080fa000000060002
:1012c4002200fa003007980041079800520798005e
:1012d4006307980040458000ef0f5000030036007c
:1012e4000080eb00200f9800cb0037005e009000d8
:1012f400ee009000f2ff2f00f3ff290000027800b7
:101304008102780002007800830078000001620006
:10131400018062006102b800340f9800450f980004
:101324003e089000ce089000c000dd0000002000c0
:10133400300f9800410f98003e089000ce089000ae
:101344006112b800340f9800450f98003e099000d0
:10135400ce0990000200700083807000500798004e
:10136400610798003e009000ce009000f2ff2f002d
:10137400f3ff29000002780081027800020078005f
:101384008300780000016200018062006102b800fd
:10139400540f9800650f98005e089000ee089000c6
:1013a400c000dd0000002000500f9800610f98007d
:1013b4005e089000ee0890006112b800540f980087
:1013c400650f98005e099000ee099000020070001d
:1013d4008380700030079800410798005e019000f8
:1013e400ee019000f0ff2f00f1ff2900800f510063
:1013f400818f590003003a00300020002007980034
:101404006d0037000080eb00200798000000eb001f
:1014140010079800100037001e009000c200dd0085
:10142400c08a2000008040001001be005e009000d1
:10143400ee009000800f5100818f590003003a00a4
:101444009e01900023079800090037001e009000b9
:101454000000e80010079800a08a200010407800df
:101464008080fb001e009000808f5000eaff3c004b
:101474002e009000e10f40004f003a00a08a2000a7
:1014840010407800e34f500003003a00e4ff2f00bf
:10149400240f980060003700a08a200010407800d4
:1014a4000080fb00c200dd00c08a200000804000f4
:1014b4005e019000ee0190000288be00a08a200028
:1014c400104078008040e800a08a2000014878009d
:1014d400a08a2000104078000080fb0020079800bc
:1014e4005e019000ee0190000000eb00000f780018
:1014f400e00f5100e08f590002003d001000200071
:10150400000f78005e009000ee009000f2ff2f00c4
:10151400f3ff2100000278008102780002007800c5
:101524008300780000016200018062006102b8005b
:10153400740f9800051798007e0890008e10900094
:10154400c000dd0000002000700f98000117980013
:101554007e0890008e1090006112b800740f9800fd
:10156400051798007e0990008e119000020070000b
:101574008380700050079800610798003e00900037
:10158400ce0090008001eb00130f9800e00f500094
:10159400e08f580002003d0014002000140f980052
:1015a4009e0078005e019000ee0190001e0a9000fb
:1015b4002e00900097fd0700ae029000050f9800e2
:1015c4003e009000ce0090000001eb0072079800ee
:1015d400e00f5000e08f580002003d00130020008f
:1015e400730798003e019000ce01900040458000b2
:1015f400000378000000e800404588008e0a90004f
:10160400f4002000fe009000060078002afe070087
:101614000002eb00240f98002e0890000080fa00ce
:10162400000006000000fa0001c4bf0081cfb3002f
:101634000140600001e4b70000c4bf0001ceb30064
:10164400014060000004e000fbff3a0030e4a80021
:1016540031e4a80032e4a80033e4a80034e4a9008b
:1016640035e4a90036e4a90037e4a90001432000c9
:1016740091407800c0cfb30000c0600030e4b700f0
:101684001143200091407800c0cfb30000c0600037
:1016940031e4b7002143200091407800c0cfb3006b
:1016a40000c0600032e4b70031432000914078006c
:1016b400c0cfb30000c0600033e4b7006140200035
:1016c4009140780000ceb30000c060000024a00068
:1016d40006e4b70007c4bf007f40600001c4b30044
:1016e4000140700007e4b7000ca4a8009860a800ab
:1016f4009700a800d2fe0700e1fe07000080fa0070
:10170400000006000200fa00000f78001e007800b6
:1017140000468800114020009140780080cfb3003b
:1017240000c060000024a00001e4b70001402000d4
:101734009140780000ceb30080c0600000c8b300c0
:1017440080cf5000f9ff3a0011fd07000080fa0035
:10175400000006000000fa0085c0a9000080fa001d
:1017640000400600801f78000000fa008860a9008d
:101774000004a8000bc4bf000042b2000004e00053
:1017840003003200f03782000020a000f0378a0006
:101794000bc4bf00704060000004e000030032008e
:1017a400f03782000030a000f0378a000bc4bf007d
:1017b400684060000004e00003003200f03782005b
:1017c4000040a000f0378a000bc4bf0061406000f5
:1017d4000004e00003003200f03782000050a00053
:1017e400f0378a00f0002000502088000004a9008f
:1017f4000080fa004f007800004006000a00fa005a
:10180400000f78001207980023079800614798009a
:10181400440798001e009000ae009000e00f5000b6
:10182400e08f58004c003d001e009000f043b200d1
:10183400f043b200f043b2009e0078004201dd00a4
:10184400514090006340600002407000d040980016
:101854001e009000ae0090004a09dd004600de0044
:1018640000007100c608de0080007800f0ff200050
:1018740080806000f0ff200080806000f0ff200086
:10188400808060001e017800f00f200080816000dd
:1018940022409000604060000340700020419800a6
:1018a4004808de006f006000ef416000b240900025
:1018b40000cfb30000c060000340700030419800c6
:1018c4001e009000ae0090004208de0001002000df
:1018d40080007800f07f200080806000f07f20008e
:1018e40080806000f07f2000808060001e0178000e
:1018f400f0032000008060004200dd009241780087
:1019040063c96100124970004608de007f00600070
:10191400ff4160009240900000ceb30000c0600020
:1019240003407000104198001e0078001014a000bd
:101934001e0078001080fb000000d100e140600030
:101944001e00780061c16000e1cfb30010c86000e0
:1019540010487100220037009e009000f07f2000a4
:1019640080806000f07f200080806000f07f200095
:10197400808060001e017800f00320000080600079
:101984004200dd009241780063c961001249700091
:101994004608de007f006000ff4160009240900036
:1019a40000ceb30000c060000340700010419800f6
:1019b4009e007800d0cfb300914860001e007800ec
:1019c4001080fb000000d100e14060001e007800a0
:1019d40061c16000e1cfb30010c86000104871001d
:1019e4001e017800d2409000d0cfb30000c0600048
:1019f400504198006e4090006f4060001e017800d6
:101a0400ef416000c240900000cfb30000c060000e
:101a140003407000404198006e4090000081fb003c
:101a2400ce0090009e017800668041004bfc0700c8
:101a34000080fa00000006000800fa00008fbe00d3
:101a4400424798003307980030c4bf0068406000e4
:101a54000004e0000c00320031c4bf0068406000a4
:101a64000004e0000800320032c4bf006840600097
:101a74000004e0000400320033c4bf00684060008a
:101a84000004e0003f013a0030c4bf006840600039
:101a94000004e0004d003a00007024003e02900073
:101aa400ce4090001e01be0054ff0700818b200031
:101ab4000000eb0080087800808b2000100090006c
:101ac400e20f500017003c00808b200020009000a3
:101ad400e20f500013003c00808b20003000900087
:101ae400e20f50000f003c00808b2000100090009b
:101af4008000e800808b200011009800808b20007b
:101b0400200090008000e800808b200021009800d5
:101b1400808b2000300090008000e800808b200043
:101b240031009800808b2000100078006340600032
:101b3400634160000143200091407800c0cfb300ae
:101b440000c060000240700030e4b700808b2000c9
:101b54001000900063406000634160001143200066
:101b640091407800c0cfb30000c060000240700014
:101b740031e4b700808b20002000900063406000b7
:101b8400634160002143200091407800c0cfb3003e
:101b940000c060000240700032e4b700808b200077
:101ba40030009000634060006341600031432000d6
:101bb40091407800c0cfb30000c0600002407000c4
:101bc40033e4b7003064a800ee00370031c4bf002e
:101bd400684060000004e0004d003a0000712400f9
:101be4003e029000ce4090001e01be0003ff07009d
:101bf400818b20000000eb0090009800808b200077
:101c040010007800e20f500017003c00808b200089
:101c140020009000e20f500013003c00808b200055
:101c240030009000e20f50000f003c00808b200039
:101c3400100078008000e800808b20000108780004
:101c4400808b2000200090008000e800808b200022
:101c540021009800808b2000300090008000e80074
:101c6400808b200031009800808b200010007800c9
:101c740063406000634160000143200091407800ac
:101c8400c0cfb30000c060000240700030e4b70071
:101c9400808b20001000900063406000634160006e
:101ca4001143200091407800c0cfb30000c0600011
:101cb4000240700031e4b700808b200020009000c7
:101cc400634060006341600021432000914078003c
:101cd400c0cfb30000c060000240700032e4b7001f
:101ce400808b2000300090006340600063416000fe
:101cf4003143200091407800c0cfb30000c06000a1
:101d04000240700033e4b7003164a8009d0037003e
:101d140032c4bf00684060000004e0004d003a0097
:101d2400007224003e029000ce4090001e01be00ce
:101d3400b2fe0700818b20000000eb00a000980099
:101d4400808b200010007800e20f500017003c0048
:101d5400808b200010009000e20f500013003c0024
:101d6400808b200030009000e20f50000f003c00f8
:101d7400808b2000100078008000e800808b200019
:101d840001087800808b2000100090008000e8009b
:101d9400808b200011009800808b20003000900080
:101da4008000e800808b200031009800808b2000a8
:101db400100078006340600063416000014320002c
:101dc40091407800c0cfb30000c0600002407000b2
:101dd40030e4b700808b2000100090006340600066
:101de400634160001143200091407800c0cfb300ec
:101df40000c060000240700031e4b700808b200016
:101e04002000900063406000634160002143200093
:101e140091407800c0cfb30000c060000240700061
:101e240032e4b700808b20003000900063406000f3
:101e3400634160003143200091407800c0cfb3007b
:101e440000c060000240700033e4b7003264a800b0
:101e54004c003700007324003e029000ce409000f6
:101e64001e01be0065fe0700818b20000000eb0010
:101e7400b0009800808b200010007800e20f500022
:101e840017003c00808b200010009000e20f5000ef
:101e940013003c00808b200020009000e20f5000d3
:101ea4000f003c00808b2000100078008000e800c8
:101eb400808b200001087800808b200010009000a7
:101ec4008000e800808b200011009800808b2000a7
:101ed400200090008000e800808b20002100980002
:101ee400808b200010007800634060006341600034
:101ef4000143200091407800c0cfb30000c06000cf
:101f04000240700030e4b700808b20001000900085
:101f140063406000634160001143200091407800f9
:101f2400c0cfb30000c060000240700031e4b700cd
:101f3400808b2000200090006340600063416000bb
:101f44002143200091407800c0cfb30000c060005e
:101f54000240700032e4b700808b20003000900013
:101f64006340600063416000314320009140780089
:101f7400c0cfb30000c060000240700033e4b7007b
:101f84003364a8000080fa00000006003600f80060
:101f9400809fbe00829fbe00849fbe00869fbe00bd
:101fa4001800fa000000eb00600798008700a90001
:101fb4008900370008c4bf00f043b2000080fb0072
:101fc40070079800110020007e0090000008dd00da
:101fd4008000780000218000008060000000e000a4
:101fe400830032007e0090004400dd008000780011
:101ff4000078240000804000500798005e009000a4
:10200400404090006f4060000080fb00000f7800ab
:10201400800020009e0f1000050034008000200086
:10202400000f7800f03782000060a000f0378a00cb
:102034005e00900010407800614060000004e00001
:102044003e00320000002000010028003007980004
:10205400410798005e009000504090000080fb0013
:102064004200de000081fb00030020003e009000df
:10207400ce0090000200700083807000300798004a
:1020840041079800de009000214090000081fb0091
:10209400314090000080fb006f0060004800dd00cc
:1020a400020070000100200010079800210798002a
:1020b4001e009000ae0090004609dd00ca01de005b
:1020c400830171004601dd003e009000ce009000c7
:1020d4000200700083807000300798004107980068
:1020e400de0090001180fb004200de000081fb0056
:1020f400114090000080fb007f0060004600dd007e
:1021040002007000010020001007980021079800c9
:102114001e009000ae009000c201dd00020020000d
:102124003e009000ce00900002007000838070009a
:1021340030079800410798000c003700de0090003b
:102144001180fb004200de000081fb001140900082
:102154000080fb007f0060004600dd00020070008c
:102164000100200030079800410798001e01780004
:102174005e009000e60040007000470077fa070018
:10218400110020007e0090000008dd000080ea00bd
:10219400002188005e009000504090006240600082
:1021a4000004e00004003200f03782000000a000c8
:1021b400f0378a0008003700044680001e007800cb
:1021c4000041780070004700800178003e009000d4
:1021d400ce009000040001006e0090000000e800b2
:1021e400600798006e009000e60f500071ff3a00ff
:1021f4006e009000e50f500003003a00f0378200b3
:102204000010a000f0378a000080fa004f03be00df
:102214004f02be004f01be004f00be003600f90061
:10222400004006000000fa000000eb00b00e880039
:102234000000eb00c00e88000000eb00d00e880008
:10224400703e2000200e880070072000400e880099
:1022540030042000600e88000000eb00700e88003f
:1022640020002000000e8800210e800000fb2f00bb
:1022740000804000300e8800c7e1a8000080fa000a
:10228400000006000000fa000000eb00a00e880029
:10229400c1e1a90041872000114078000060a0003e
:1022a400804878000080fa00000006000000fa0070
:1022b4000000eb00b00e88000000eb00c00e8800a8
:1022c4000000eb00d00e88000000eb00100e880028
:1022d40000f02300a00e88008000200001002000f0
:1022e4005ff807008be0a900c1e1a800700020009e
:1022f400800e880041872000114078000060a10012
:10230400804878000080fa00000006000c00fa0003
:1023140040079800110020004e0090000008dd00e6
:10232400000f78001e0078000080ea008180ea0037
:1023340010079800ff3ffc00601680001e0070002c
:10234400601688000000eb002007980005003700a5
:1023540000000000000000002e0090000000e800d3
:10236400200798002e009000e90f5000f8ff340079
:10237400401680001e007000401688000000eb002c
:10238400200798000500370000000000000000004e
:102394002e0090000000e800200798002e00900016
:1023a400e90f5000f8ff3400501680001e00600052
:1023b40030079800611680001e00900000806000c5
:1023c40060168800411680001e00900000806000a6
:1023d400401688000000fc003e0090000000e00071
:1023e400030032000080eb00500798000200370021
:1023f4000000eb00500798005e0090000080fa0097
:10240400000006000000fa009eff07000000eb0039
:10241400a00e8800cde2a900cdc2a900cda2a900da
:10242400cd82a900cd62a900cd42a9000000eb0035
:10243400400e8800cde2a900cdc2a900cda2a9001a
:10244400cd82a900cd62a900cd42a900c9e2a900ac
:10245400c9c2a900c9a2a900c982a900c962a90068
:10246400c942a9000080fa00000006000600fa0034
:10247400000f7800110798001e0090000000e00093
:102484000200320010002000100798001e0078009f
:10249400200798002e009000e20f50002700320021
:1024a4002e009000e20f500007003e002e00900026
:1024b4000000e0000e0032002e009000e10f5000fa
:1024c40013003200480037002e009000e40f500043
:1024d400300032002e009000e40f5000220039003a
:1024e4002e009000e50f5000350032003e0037000a
:1024f4001e00900061406000c700dd00cdc2bf0037
:102504000074a10001407000cde2b700360037002e
:102514001e00900061406000614060004601dd00e3
:10252400d12c200091407800f0cbb30000c06000b3
:1025340002407000cde2b7002b0037001e0090006f
:1025440061406000614060004501dd00d12c200045
:1025540091407800f0cdb30000c0600002407000ec
:10256400cde2b700200037001e00900061406000fb
:10257400614060004401dd00d12c200091407800ce
:10258400f0ceb30000c0600002407000cde2b7009e
:10259400150037001e00900061406000614060003b
:1025a4004301dd00d12c20009140780070cfb300ae
:1025b40000c0600002407000cde2b7000a0037009e
:1025c4001e00900061406000614060004201dd0037
:1025d400d12c200091407800b0cfb30000c060003f
:1025e40002407000cde2b7000080fa00000006004f
:1025f4000200fa0083ff0700a000200043ff070049
:102604000000e0000300320010002000000f7800fa
:1026140025003700b00020003cff07000000e00068
:102624000300320020002000000f78001e00370055
:10263400c000200035ff07000000e0000300320066
:1026440030002000000f780017003700d000200071
:102654002eff07000000e0000300320040002000cd
:10266400000f780010003700e000200027ff07006b
:102674000000e0000300320050002000000f78004a
:1026840009003700f000200020ff07000000e000f0
:102694000300320060002000000f780002003700c1
:1026a4000000eb00000f78001e0078000080fa00a4
:1026b400000006000400fa00000f780011079800db
:1026c400114680001e007800010878002146800031
:1026d4001e009000010878000080fa000000060047
:1026e4000400fa00000f7800110798001e0078001b
:1026f400104688009e009000214688001e00e000dd
:102704004d003200c7fe07001e0090000000e000ec
:1027140004003a009e007800618060000000e00040
:1027240003003a00d421a900d521a90001003700f3
:10273400d521a8001e0090000000e00005003a002a
:102744001e0078000000d100610060000000e0007d
:1027540003003a00d461a900d561a9000100370043
:10276400d561a8001e0090000000e00005003a00ba
:102774001e0078004200de00610060000000e000fe
:1027840003003a00d4a1a900d5a1a9000100370093
:10279400d5a1a800803e2000b00e8800803e200015
:1027a400c00e8800803e2000d00e88009e00780075
:1027b400618060000004e00002003200d501a8003e
:1027c40002003700d401a900d501a9001e00780039
:1027d4000000d100610060000004e000020032004b
:1027e400d541a80002003700d441a900d541a90071
:1027f4001e0078004200de00610060000004e0007a
:1028040002003200d581a80002003700d481a9005b
:10281400d581a9008be0a900c1e1a80070002000c7
:10282400800e880041872000114078000060a100dc
:1028340080487800070037000000eb00b00e8800e5
:102844000000eb00c00e88000000eb00d00e8800f2
:102854008cfe07000080fa00000006000200fa0067
:102864000000eb00000f78000500370000000000b6
:102874000000000000000000000000001e0fe8003f
:10288400300620009e0f1000f8ff34000080fa008c
:10289400000006000600fa00100798000000eb0094
:1028a400000f78003f0037001e009000e50f500035
:1028b4003b003e00100020009e0090000100dd005f
:1028c40020079800ae0090006c8060000000e000db
:1028d40018003a0000032000ae0090000080600061
:1028e4000000e00021003a00ae0090006380600028
:1028f4000000e00001003a00290037008000eb00ee
:1029040010002000d9fe0700110020000000eb0099
:10291400d6fe0700000000000000000000000000d8
:10292400000000008000eb000000eb00cffe070079
:102934001b0037008000eb0030002000cbfe0700b6
:102944001100200020002000c8fe07000000000045
:102954000000000000000000000000008000eb0008
:1029640020002000c1fe07000d0037008000eb00ae
:1029740050002000bdfe0700110020004000200090
:10298400bafe070000000000000000000000000084
:10299400000000008000eb0040002000b3fe0700b0
:1029a4001e0fe800100020009e0f1000beff340030
:1029b4000080fa00000006000200fa0019fe070079
:1029c4003afe0700d421a900d521a900d401a90009
:1029d400d501a900d461a900d561a900d441a800fa
:1029e400d541a900ff3ffc0000352c00d00e880023
:1029f4000000eb00000f7800090037000000000021
:102a040000000000000000000000000000000000c2
:102a14000000000000000000000000001e0fe8009d
:102a2400b00d20009e0f1000f4ff340015fe0700c7
:102a34000000fc000080fa00000006001800fa0004
:102a4400000f9800110f9800220f9800330f980080
:102a54006000b80020079800310798002e0090000d
:102a6400be00900040079800510798000e0890009f
:102a7400110020007dfe07000000eb001007980005
:102a8400350037001e08900082ff07001e089000e2
:102a94001100200075fe07000000eb00000f780015
:102aa400020037006dff07001e0fe8002100200020
:102ab4009e8f1000fbff3400ee0047006c004700bf
:102ac400440807006e0090006101b9004e009000b8
:102ad400de0090000000410081804900400798001a
:102ae400510798007e0090006101b9002e0090000b
:102af400be0090000000410081804900200798003a
:102b0400310798001e0890008000eb0057fe070074
:102b14000000eb00000f78000900370000000000ff
:102b240000000000000000000000000000000000a1
:102b34000000000000000000000000001e0fe8007c
:102b4400f0f920009e0f1000f4ff34001e009000e6
:102b54000000e800100798001e009000f30f5000da
:102b6400c8ff34000e0890008000eb003ffe070011
:102b74001e0890008000eb003cfe07004e00900011
:102b8400de009000420120000300200074f70700db
:102b940040079800510798002e009000be00900056
:102ba40042012000030020006df707002007980071
:102bb40031079800ce0090002e089000010878009c
:102bc400ae0090003e089000010878000000eb0081
:102bd400100798000b003700000000000000000000
:102be40000000000000000000000000000000000e1
:102bf40000000000000000001e0090000000e8003b
:102c0400100798009e009000f0e12400808f50008f
:102c1400f1ff34000080fa00000006002200fa00f0
:102c2400300f9800410f9800520f9800630f9800de
:102c3400740f9800de0890000000eb008008780014
:102c44005e089000900078004e089000010878001b
:102c5400ecfd070070014700ee0047006c004700e0
:102c6400330807003e0890000000e0000e00320028
:102c7400ee009000800b2000808f500003003e0087
:102c8400100020000017980014013700ee00900097
:102c9400700d2000808f50001100360021002000ac
:102ca400011798000d013700ee00900080152000f8
:102cb400808f500003003e00100020000017980091
:102cc40006013700ee00900070172000808f50003e
:102cd400030036002100200001179800ff00370090
:102ce4006000b80020079800310798002e0090007b
:102cf400be00900040079800510798000000eb00c8
:102d04001007980016003700f400470072004700cf
:102d1400b00707001e0890006101b9004e00900042
:102d2400de009000000041008180490040079800c7
:102d3400510798002e0890006101b9002e00900000
:102d4400be009000000041008180490020079800e7
:102d5400310798001e0090000000e800100798005a
:102d64001e009000f30f5000e7ff34004e00900067
:102d7400de0090004201200003002000f8f6070066
:102d840040079800510798002e009000be00900064
:102d94004201200003002000f1f6070020079800fc
:102da40031079800700047006e01470080017800e9
:102db400110020002000200020ff0700ce0090001a
:102dc4007e0090000080500070079800fe00900084
:102dd4004e08900001087800fe0090007e089000e4
:102de400808f500003003d00a100200001179800cf
:102df400ba003700fe0090006e089000808f5000eb
:102e040003003400b000200000179800b30037001e
:102e1400700047006e0147008001780031002000f7
:102e24000000eb0005ff0700fe0090004e0090003c
:102e34000080500070079800fe0090004e0890003b
:102e440001087800fe0090007e089000808f5000fa
:102e540003003d00c1002000011798009f003700c7
:102e6400fe0090006e089000808f50000300340034
:102e7400d000200000179800980037007000470029
:102e84006e014700800178003100200040002000de
:102e9400eafe07008e0890002e009000008050008b
:102ea400000f98008e0890005e08900001087800da
:102eb4008e0890007e089000808f500003003d0033
:102ec400e100200001179800840037008e0890006c
:102ed4006e089000808f500003003400f000200042
:102ee400001798007d003700700047006e0147000e
:102ef400800178005100200020002000cffe070050
:102f0400ae0090000e08900000805000000f980062
:102f14008e0890005e089000010878008e089000ea
:102f24007e089000808f500003003d0001012000c6
:102f340001179800690037008e0890006e08900011
:102f4400808f500003003400100120000017980007
:102f540062003700700047006e014700800178006e
:102f6400510020000000eb00b4fe0700fe009000ba
:102f74004e0090000080500070079800fe00900002
:102f84004e08900001087800fe0090007e08900032
:102f9400808f500003003d0021012000011798009c
:102fa4004e003700fe0090006e089000808f5000a5
:102fb4000300340030012000001798004700370058
:102fc400ae0090000e08900000805000000f9800a2
:102fd4008e0890005e089000010878008e0890002a
:102fe4007e089000808f500003003d0041012000c6
:102ff40001179800390037008e0890006e08900081
:10300400808f500003003400500120000017980006
:1030140032003700700047006e01470080017800dd
:10302400110020004000200084fe0700ce00900024
:103034007e0090000080500070079800fe00900011
:103044004e08900001087800fe0090007e08900071
:10305400808f500003003d0061012000011798009b
:103064001e003700fe0090006e089000808f500014
:103074000300340070012000001798001700370087
:103084008e0890002e00900000805000000f9800e1
:103094008e0890005e089000010878008e08900069
:1030a4007e089000808f500003003d0081012000c5
:1030b40001179800090037008e0890006e089000f0
:1030c400808f500003003400900120000017980006
:1030d400020037008000eb00011798000e109000ea
:1030e4000080fa00000006000200fa00004f780099
:1030f400608c20001e4878000080fa000000060062
:103104003400fa00001798001117980042679800dd
:10311400331798000040eb00005798000e10900001
:103124009e109000e00f5000e08f580059033d00be
:1031340010002000400798000e1090009e10900090
:103144004c08de0001002000e10060000000eb00fc
:10315400300798000100e000020032001000200057
:10316400300798000e1090009e109000f20f20007f
:103174000300200000027800810278000200780039
:103184008300780000016200018062006102b800df
:1031940064179800751798006e109000fe10900048
:1031a400c000dd000000200060179800711798002f
:1031b4006e109000fe1090006112b8006417980021
:1031c400751798006e119000fe11900002007000b7
:1031d40083807000e2fe2f00f3ff2f000000410007
:1031e40081804900001f9800111f9800e002200010
:1031f400010020000e1a90009e1a9000800f5200c9
:10320400818f5a000b033e000e1890009e18900008
:1032140000600100b902370006033700410237009d
:10322400990237005c0237007b0237000103370044
:1032340000033700ff023700fe023700fd023700ab
:10324400fc023700fb023700fa023700f9023700ac
:10325400f8023700f7023700f6023700f5023700ac
:10326400f4023700f3023700f2023700f1023700ac
:10327400f0023700ef023700ee023700ed023700ac
:10328400ec023700eb023700ea0237001302370082
:103294001b023700c4013700a80137003e01370084
:1032a400690137002a013700090037003d00370063
:1032b40012013700df023700de023700dd0237007b
:1032c400dc023700db023700da023700a0003700e7
:1032d4003e0090000000e00015003200fc004700b2
:1032e4007a004700f3fc070030c0b3000057980091
:1032f4005e08900080407800710047000148780023
:103304006e089000804078007100470011409800da
:10331400808720001080fb004600de0061406000d2
:10332400804078007100470021409800c8023700af
:103334004e609000e24f500012003a000000eb0093
:10334400600f98006e089000500f98003e10900097
:10335400104078000080fb00500f98003e10900051
:10336400104090000004e000020032001000200031
:10337400600f9800ee0890005e089000d8fc0700eb
:10338400b30237000000eb004007980010c0b30000
:1033940000579800f100470010c0b300804878003f
:1033a400ab0237003e0090000000e00060003200f5
:1033b4004e609000e44f500055003a00be1090005b
:1033c400214090000081fb00314090000080fb0010
:1033d4004800dd0002007000800178003e1090007b
:1033e4009080fb00104090000080fb004800dd004e
:1033f400010070006e014700ec00470003027800f2
:10340400800178000000eb0004fe0700500f9800d4
:103414005e0890000000e00005003a00808720006c
:10342400104078000044b2000004e0002a0032009a
:1034340060c0b300005798005e0890008040780098
:103444007100470001487800808720001080fb004d
:103454004600de0061406000804078007100470053
:10346400114098006e00900080017800f100470040
:10347400f00f200000816100214090006040600056
:1034840002407000a04098004819de0031409000ce
:103494006040600002407000b04098007e009000e0
:1034a40080017800f1004700f00f200000816100e6
:1034b400414090006040600002407000c0409800ad
:1034c4004819de00514090006040600002407000e6
:1034d400d04098005e02370020c0b3000057980027
:1034e4005e08900080407800710047000148780031
:1034f400808720001080fb004600de0061406000f1
:103504008040780071004700114098005002370055
:103514000000eb004007980010c0b300005798006b
:10352400f100470060c0b3008048780048023700cb
:103534000000eb004007980010c0b300005798004b
:10354400f100470030c0b3008048780040023700e3
:103554003e0090000000e000600032004e609000e9
:10356400e44f500055003a00be10900021409000f6
:103574000081fb00314090000080fb004800dd002a
:1035840002007000800178003e1090009080fb00e3
:10359400104090000080fb004800dd000100700036
:1035a4006e014700ec0047000302780080017800b8
:1035b4001000200099fd0700500f98005e0890004d
:1035c4000000e00005003a008087200010407800e9
:1035d4000044b2000004e0002a00320060c0b300de
:1035e400005798005e089000804078007100470002
:1035f40001487800808720001080fb004600de0030
:1036040061406000804078007100470011409800dc
:103614006e00900080017800f1004700f00f200058
:103624000081610021409000604060000240700011
:10363400a04098004819de003140900060406000ce
:1036440002407000b04098007e0090008001780035
:10365400f1004700f00f200000816100414090001c
:103664006040600002407000c04098004819de00cd
:10367400514090006040600002407000d0409800cb
:10368400f301370020c0b300005798005e08900093
:10369400804078007100470001487800808720004e
:1036a4001080fb004600de0061406000804078002e
:1036b4007100470011409800e50137000000eb005d
:1036c4004007980010c0b30000579800f10047006d
:1036d40060c0b30080487800dd0137000000eb00d3
:1036e4004007980010c0b30000579800f10047004d
:1036f40030c0b30080487800d50137003e00900008
:103704000000e0000a003200808720001080fb00e7
:103714004600de0061406000804078007100470090
:103724000148780010c0b30000579800c801370062
:103734000040eb000057980081872000114078007a
:103744000060a100804878009bfc0700c00137009e
:103754003e0090000000e00007003200a4fb0700d8
:1037640080407800710047000148780010c0b30021
:1037740000579800b60137000000eb00400798009e
:1037840010c0b30000579800f100470030c0b300e8
:1037940080487800ae0137006e014700ec00470016
:1037a4006a00470062050700200798003e00900069
:1037b4000000e0001c0032002e019000f1004700e0
:1037c400f00f20000000610091417800e0c8610022
:1037d400914870004811de00114090006040600084
:1037e4000240700090409800de019000f100470014
:1037f400f00f2000008161002140900060406000d3
:1038040002407000a04098004819de00314090004a
:103814006040600002407000b040980040c0b300b7
:10382400005798008a0137000000eb004007980019
:1038340010c0b30000579800f100470030c0b30037
:1038440080487800820137006e014700ec00470091
:103854006a00470036050700200798003e009000e4
:103864000000e0002d0032002e019000f10047001e
:10387400f00f20000000610011427800e04862006f
:10388400914870004811de001140900060406000d3
:1038940002407000904098006e0090002c040700d5
:1038a40080017800f1004700f00f200000816100e2
:1038b400214090006040600002407000a0409800e9
:1038c4004819de0031409000604060000240700002
:1038d400b04098007e0090001d040700800178002d
:1038e400f1004700f00f200000816100414090008a
:1038f4006040600002407000c04098004819de003b
:10390400514090006040600002407000d040980038
:1039140060c0b300005798004d0137000000eb0071
:103924004007980010c0b30000579800f10047000a
:1039340030c0b30080487800450137003e00900055
:103944000000e0001000320054010700000178007c
:10395400f1004700f00f2000000061009142780060
:10396400e0c86200914870004811de0011409000e8
:1039740060406000024070009040980010c0b300a6
:1039840000579800320137000000eb004007980010
:1039940010c0b30000579800f100470030c0b300d6
:1039a400804878002a0137003e0090000000e000c3
:1039b4002f00320080802000300090008000eb0057
:1039c40051179800e10f400002003200120020005d
:1039d40052179800f1004700f00f2000de1190000c
:1039e4000080610011427800e04862009148700054
:1039f400de1290004829de00114090006040600013
:103a040002407000904098008080200020009000c8
:103a1400e10f400013003200710047009080fb006a
:103a2400104090000080fb004800dd0001007000a1
:103a3400000178000200a000f1004700f00f200010
:103a44000000610091417800e0c861009148700075
:103a54004811de0011409000604060000240700098
:103a64009040980010c0b30000579800f800370049
:103a7400818020000080eb00b0009800808020004e
:103a8400b000900080802000210098003e1090003b
:103a9400104078000080fb00610060000004e0003a
:103aa40003003200818020000000eb00a000980099
:103ab4003e109000104078000080fb000000d10010
:103ac400610060000004e000e10032008180200019
:103ad4000000eb00b0009800dd00370071004700e3
:103ae40070014700e8004700be1290004e6290004b
:103af400800178003e00900059020700d40037008e
:103b04007100470070014700e8004700be129000b2
:103b14004e629000800178003e009000fc00070097
:103b2400cb0037003e0090000000e000120032009d
:103b34000080200010f40700e70f500004003e004e
:103b4400008020000cf40700106f9800020037007a
:103b540084c0b300146f98009e6a900005579800c3
:103b64000e5090000081fb0071004700018020008e
:103b7400faf30700b60037000000eb004007980096
:103b840010c0b30000579800f100470030c0b300e4
:103b940080487800ae0037003e0090000000e0004e
:103ba4001500320020c0b300005798007e01470082
:103bb4000002eb002300200020002000f10f200071
:103bc40066f207007e099000f1004700f00f200024
:103bd4000000610091417800e0c8610091487000e4
:103be4004811de0011409000604060000240700007
:103bf40090409800960037000000eb0040079800c2
:103c040010c0b30000579800f100470030c0b30063
:103c1400804878008e0037003e0090000000e000ed
:103c240011003200400020001007980040002000de
:103c3400000f78001e0190007100470041872000aa
:103c4400c6f307001e0178007100470064004000bd
:103c540081872000c1f307001e0078006440400003
:103c6400005798007a0037000000eb0040079800e6
:103c740010c0b30000579800f100470030c0b300f3
:103c840080487800720037003e0090000000e00099
:103c94001200320040802000b7f30700e70f500005
:103ca40004003e0040802000b3f30700006f98003a
:103cb4000200370084c0b300046f98008e6a90003d
:103cc400055798000e5090000081fb0071004700da
:103cd40041802000a1f307005d0037000000eb00e5
:103ce4004007980010c0b30000579800f100470047
:103cf40030c0b30080487800550037003e00900083
:103d04000000e0001300320040c0b30000579800e8
:103d1400008120009040780071004700014878003d
:103d240010812000904078007100470011409800f5
:103d340020812000904078007100470021409800c5
:103d44003081200090407800710047003140980095
:103d54003f0037004e609000e44f50002d003a00c1
:103d64003e1090009040780070c2b30080cf5000a5
:103d740020003e003e1090009040900070c2b300be
:103d840080cf50001b003e003e109000a0409000e9
:103d940070c2b30080cf500016003e003e10900069
:103da400b040900070c2b30080cf500011003e00bc
:103db4003e10900090407800008120000148780077
:103dc4003e1090009040900010812000014878003f
:103dd4003e109000a040900020812000014878000f
:103de4003e109000b04090003081200001487800df
:103df400170037000000eb004007980010c0b30024
:103e040000579800f100470060c0b3008048780074
:103e14000f0037000000eb004007980010c0b3000b
:103e240000579800f100470010c0b30080487800a4
:103e3400070037000000eb004007980010c0b300f3
:103e440000579800f100470020c0b3008048780074
:103e54004e0090000000e000090032003e00900097
:103e64000000e0000b0032008e509000608c2000b7
:103e74001040780071014700b306070005003700c1
:103e84008e509000608c2000104078007101470033
:103e9400890607000080fa00000006000600fa0008
:103ea4000000eb00000f78000000eb001007980002
:103eb40011003700cac2bf00624060008000eb00fe
:103ec400210798000004e0000200320010002000e6
:103ed40020079800ae0090001e8f700000000000c4
:103ee4000000000000000000000000001e00900020
:103ef4000000e800100798001e009000f30f500027
:103f0400ecff34001e0078000080fa000000060078
:103f14001a00fa00000f7800110798002207980091
:103f240033079800044f980055079800ae0090009e
:103f340010c0b300804878001e00e00091003200f9
:103f4400be0090000040eb00804878005e009000c6
:103f5400104078000080fb00400f98004e0890004d
:103f6400e20f500044003200ce089000e28f50006f
:103f740004003c004e089000e10f5000080032009d
:103f840079003700ce089000e58f50003a003200e7
:103f94004e089000e60f5000010032007200370016
:103fa4005e009000104090000080fb00300f9800ed
:103fb400be089000e48f5000150032003e089000c7
:103fc400e40f500004003c00be089000e38f500052
:103fd40008003200210037003e089000e50f500031
:103fe40012003200be089000e68f50001400320028
:103ff4001a003700c0c2bf000080fb004300de008f
:10400400e14060003e009000014878001201370052
:10401400c8c2bf000080fb004300de00e140600036
:104024003e009000014878000b013700c9c2bf0070
:10403400e14060003e00900001487800060137002e
:10404400c9c2bf000080fb000000d100e140600055
:104054003e00900001487800ff0037009e00900069
:104064000000eb0080087800be00900060c0b30040
:1040740080487800f80037005e00900010409000ff
:104084000080fb00200f98002e089000e40f5000e1
:1040940015003200ae089000e48f500004003c008c
:1040a4002e089000e30f500008003200270037006c
:1040b400ae089000e58f5000160032002e089000e4
:1040c400e60f50001a00320020003700c0c2bf00c3
:1040d4000080fb004400de00e14060003e009000f0
:1040e40001487800dc003700c8c2bf008040eb0004
:1040f400215798000004e00002003d0010c0b30006
:10410400205798003e009000ae509000014878007f
:10411400d1003700c8c2bf000080fb004600de00ab
:10412400e14060003e00900001487800ca0037007a
:10413400c8c2bf000080fb004500de00e140600013
:104144003e00900001487800c30037009e009000b4
:104154000000eb0080087800be00900060c0b3004f
:1041640080487800bc0037009e0090000000eb00ff
:1041740080087800be00900060c0b30080487800da
:10418400b50037005e009000104078000080fb000e
:10419400000f98000e089000e20f50005c003200ff
:1041a4008e089000e28f500004003c000e0890003e
:1041b400e10f500008003200a10037008e08900083
:1041c400e58f5000520032000e089000e60f5000b8
:1041d400010032009a0037005e0090001040900009
:1041e4000080fb0070079800fe009000e48f5000f0
:1041f4001a0032007e009000e40f500004003c00de
:10420400fe009000e38f50000800320036003700b3
:104214007e009000e50f50001c003200fe0090006c
:10422400e68f5000240032002f0037005e0090001b
:104234002040900061406000614060004301dd0067
:10424400012c20009140780070cfb30000c06000c2
:1042540002407000c0e2b7007f0037005e009000ab
:104264002040900061406000614060004301dd0037
:10427400812c20009140780070cfb30000c0600012
:1042840002407000c8e2b700730037005e0090007f
:10429400204090006140600061416000912c20004a
:1042a40091407800e0cfb30000c06000024070008d
:1042b400c9e2b700680037005e009000204090001b
:1042c400614060006140600000414000912c20008a
:1042d40091407800d0cfb30000c06000024070006d
:1042e400c9e2b7005c0037009e0090000000eb00bc
:1042f40080087800ae00900010c0b30080487800b9
:10430400be00900060c0b3008048780052003700bf
:104314005e009000104090000080fb006007980051
:104324006e009000e40f50001a003200ee0090007e
:10433400e48f500004003c006e009000e30f500036
:104344000800320034003700ee009000e58f500082
:10435400190032006e009000e60f50002200320077
:104364002d0037005e009000204090006140600006
:10437400614060004401dd00012c20009140780080
:10438400f0ceb30000c0600002407000c0e2b7008d
:10439400310037005e0090002040900061406000d2
:1043a400c700dd00c8c2bf000074a1000140700056
:1043b400c8e2b700280037005e009000204090005b
:1043c40061406000614060004601dd00812c2000f6
:1043d40091407800f0cbb30000c060000240700050
:1043e400c8e2b7001c0037005e0090002040900037
:1043f40061406000614060004501dd00812c2000c7
:1044040091407800f0cdb30000c06000024070001d
:10441400c8e2b700100037009e0090000000eb00d7
:1044240080087800ae00900010c0b3008048780087
:10443400be00900060c0b3008048780006003700da
:104444009e0090000000eb0080087800be00900001
:1044540060c0b300804878000080fa0000000600c5
:104464001800fa00000f780011079800220798003e
:1044740033079800044f980055079800ae00900049
:1044840010c0b300804878001e00e0007f003200b6
:10449400be0090000040eb00804878005e00900071
:1044a400104078000080fb00300f98003e08900018
:1044b400e20f5000410032003e089000e20f50002d
:1044c40004003c003e089000e10f50000800320058
:1044d400080137003e089000e50f50003700320015
:1044e4003e089000e60f5000010032000101370041
:1044f4005e009000104090000080fb00200f9800a8
:104504002e089000e40f5000160032002e08900090
:10451400e40f500004003c002e089000e30f50000c
:1045240008003200f30037002e089000e50f500019
:10453400140032002e089000e60f500017003200dd
:10454400ec003700c2c2bf000080fb004300de0065
:1045540061406000804078003e009000014878008f
:10456400e4003700cac2bf000080fb004300de0045
:1045740061406000804078003e009000014878006f
:10458400dc003700cbc2bf0061406000804078008f
:104594003e00900001487800d6003700cbc2bf002f
:1045a4000080fb000000d100614060008040780082
:1045b4003e00900001487800ce0037005e00900075
:1045c400104090000080fb00100f98001e0890001f
:1045d400e40f5000160032001e089000e40f500053
:1045e40004003c001e089000e30f50000800320055
:1045f400c00037001e089000e50f50001300320081
:104604001e089000e60f500018003200b900370071
:10461400c2c2bf000080fb004400de0061406000b5
:10462400804078003e00900001487800b1003700d7
:10463400cac2bf000080fb004700de008040780053
:104644003e00900001487800aa003700cac2bf00ab
:104654000080fb004600de0061406000804078007e
:104664003e00900001487800a2003700cac2bf0093
:104674000080fb004500de0061406000804078005f
:104684003e009000014878009a0037005e009000d8
:10469400104078000080fb00000f98000e08900086
:1046a400e20f5000520032000e089000e20f50005a
:1046b40004003c000e089000e10f50000800320096
:1046c4008c0037000e089000e50f500048003200bf
:1046d4000e089000e60f50000100320085003700fc
:1046e4005e009000104090000080fb00700798006e
:1046f4007e009000e40f50001a0032007e0090000b
:10470400e40f500004003c007e009000e30f5000d2
:1047140008003200770037007e009000e50f50005b
:104724001c0032007e009000e60f5000240032008e
:10473400700037005e0090002040900061406000ef
:10474400614060004301dd00412c2000914078006d
:1047540070cfb30000c0600002407000c4e2b70034
:10476400640037005e0090002040900061406000cb
:10477400614060004301dd00c12c200091407800bd
:1047840070cfb30000c0600002407000cce2b700fc
:10479400580037005e0090002040900061406000a7
:1047a40061416000d12c200091407800e0cfb3003b
:1047b40000c0600002407000cde2b7004d00370039
:1047c4005e00900020409000614060006140600005
:1047d40000414000d12c200091407800d0cfb3009c
:1047e40000c0600002407000cde2b7004100370015
:1047f4005e009000104090000080fb00600798006d
:104804006e009000e40f50001a0032006e00900019
:10481400e40f500004003c006e009000e30f5000d1
:1048240008003200330037006e009000e50f50009e
:10483400190032006e009000e60f50002200320092
:104844002c0037005e009000204090006140600022
:10485400614060004401dd00412c2000914078005b
:10486400f0ceb30000c0600002407000c4e2b700a4
:10487400200037005e0090002040900061406000fe
:10488400c700dd00ccc2bf000074a100014070006d
:10489400cce2b700170037005e0090002040900083
:1048a40061406000614060004601dd00c12c2000d1
:1048b40091407800f0cbb30000c06000024070006b
:1048c400cce2b7000b0037005e009000204090005f
:1048d40061406000614060004501dd00c12c2000a2
:1048e40091407800f0cdb30000c060000240700039
:1048f400cce2b7000080fa00000006000000fa00d5
:104904008480a9009480a8002023a8002003a90083
:1049140085a0a90081e3a80021e3a8000080fa0093
:10492400000006000000fa0081e3a90021e3a900c9
:104934009480a9000080fa00000006000000fa003c
:10494400006e2400200090000080fa0000000600a1
:104954000400fa00100798001e009000000f780071
:10496400000028001e0f40001e0078004600de00f4
:10497400000f78001e0078000080fa000000060096
:104984000c00fa00300798003e009000000f7800f9
:104994001e0078004500de00000f78001e0078003d
:1049a4006500b900000f78001e007800cf80de009b
:1049b40005ef070040079800510798001e00e0002b
:1049c40007003d0002002000037824004e00900000
:1049d400de00900028ef0700400798005107980078
:1049e4004e009000de009000100798002107980008
:1049f40002c62f00331624001e009000ae00900063
:104a04007aef070010079800210798001e00900015
:104a1400ae009000b7ef0700000f78001e0078008a
:104a24000080fa00000006000000fa000000eb001d
:104a3400001988000000eb00101988000000eb004a
:104a4400201988002143a90040c0b30024e3b70023
:104a54003132200091407800c0cfb30000c0600024
:104a64000014a00023e3b7002063a8002043a8009b
:104a740020c3bf007f40600001c6b3000140700046
:104a840020e3b70021c3bf003040b30021e3b700e7
:104a9400213220009140780030ccb30000c0600087
:104aa40022e3b7000000eb00901988002343a9001b
:104ab4000000eb004019880081322000914078000a
:104ac40000ceb30000c060003040b30028e3b7005c
:104ad4002603a9000000eb00001c88000138200018
:104ae40091407800f0ccb30000c0600001c2b30074
:104af4000140700080e3b700013820009140780045
:104b0400c0cfb30000c0600080e3b70081c3a90038
:104b140000302000401c880030002000501c880019
:104b2400d0002000101c8800006e2000201c88008b
:104b34000080fa00000006000000fa000000eb000c
:104b4400001988000000eb00101988000000eb0039
:104b54002019880070c0b30024e3b700513220004c
:104b64009140780000ceb30000c0600025e3b70098
:104b74003132200091407800c0cfb30000c0600003
:104b840023e3b7002063a9002043a90020c3bf008a
:104b94007f40600020e3b70021c3bf003040b30072
:104ba40021e3b700213220009140780030ccb300db
:104bb40000c0600022e3b7000000eb0090198800f9
:104bc4002343a9000000eb00401988000080fa008c
:104bd400000006001000fa005007980061079800d2
:104be4006000b80020079800310798006000b80002
:104bf400008fbe00d0ff07002143a80021e3a800d6
:104c0400813220009140780000ceb30000c06000e3
:104c140028e3b7002003a9002023a80000f4210002
:104c2400010020000eee07002023a9000000eb0085
:104c3400400798000a0037004e0090000000e8008a
:104c440040079800ce009000803e2000808f5000e6
:104c540003003a000080eb00700798003100370031
:104c640020c3bf00614060000004e000f2ff320096
:104c740000188000010020002007980031079800e8
:104c8400813220009140780000ceb30000c0600063
:104c94000004a00028e3b7002003a9002023a800f3
:104ca400800c200001002000eded07002023a90066
:104cb4000000eb00400798000a0037004e00900007
:104cc4000000e80040079800ce009000803e2000dd
:104cd400808f500003003a000080eb0070079800ba
:104ce4001000370020c3bf00614060000004e000f2
:104cf400f2ff32000018800001002000008fbe0087
:104d040021e3a900ae0090005e0090000108780045
:104d14009e0078006e009000010878000000eb000f
:104d2400700798007e0090000080fa0000000600e2
:104d34001a00fa00100f9800210f9800320f980003
:104d44006000b80050079800610798006000b80040
:104d540030079800410798006000b80010079800d9
:104d64002107980074ff070021e3a8000000eb006e
:104d7400000f98007d0037008132200091407800b8
:104d840000ceb30000c060000014a00028e3b70008
:104d94002003a9002023a800803e20000100200059
:104da400afed07002023a9000000eb007007980076
:104db4000a0037007e0090000000e80070079800a9
:104dc400fe009000803e2000808f500003003a00d7
:104dd4000080eb00400f98008f00370020c3bf0015
:104de400614060000004e000f2ff3200011880001e
:104df40000002800008f40001e0078006101b80008
:104e04005e009000ee0090000000410081804900a7
:104e140050079800610798001e007800d8fe07002c
:104e24008000780070072000808f500003003e004f
:104e3400e0ff2f00400f98007700370081322000f8
:104e44009140780000ceb30000c0600028e3b700b2
:104e54002003a9002023a800803e20000100200098
:104e64007fed07002023a9000000eb0070079800e5
:104e74000a0037007e0090000000e80070079800e8
:104e8400fe009000803e2000808f500003003a0016
:104e94000080eb00400f98005f00370020c3bf0084
:104ea400614060000004e000f2ff3200001880005e
:104eb4006101b8003e009000ce0090000000410067
:104ec4008180490030079800410798008132200012
:104ed4009140780000ceb30000c060000004a00040
:104ee40028e3b7002003a9002023a800803e200067
:104ef400010020005aed07002023a9000000eb0068
:104f0400700798000a0037007e0090000000e80057
:104f140070079800fe009000803e2000808f5000b3
:104f240003003a000080eb00400f98003a0037007d
:104f340020c3bf00614060000004e000f2ff3200c3
:104f4400001880006101b8001e009000ae009000bf
:104f54000000410081804900100798002107980053
:104f64000e0890000000e800000f98008e089000e2
:104f7400700c2000808f50007fff34003e009000b2
:104f8400ce009000820c20000300200074ee070085
:104f940030079800410798001e009000ae00900072
:104fa400820c2000030020006dee0700100798001b
:104fb400210798005e009000ee009000820c200013
:104fc4000300200066ee0700500798006107980070
:104fd40021e3a9005e00900069fe070080007800cc
:104fe4001e089000010878003e00900058fe07005b
:104ff400800078002e089000010878001e009000c0
:1050040053fe0700800078003e08900001087800f5
:105014000000eb00400f98004e0890000080fa005a
:10502400000006000000fa00a03782000000e00043
:105034000b003a008080200010009000e10f500027
:1050440003003a00c082a900c282a8000100370010
:10505400c082a80010002000a0378a000a00370090
:105064008080200010007800e10f500003003a0017
:10507400c082a900c282a90001003700c082a80032
:105084000000eb00a0378a000080fa000000060050
:105094000400fa00d0378200e1378200610040004a
:1050a400e0804800d0378a00e1378a00b0378200b8
:1050b400c137820061004000e0804800b0378a00b8
:1050c400c1378a00808020003000900010079800cb
:1050d4001e0090000000e000040032001e0090005a
:1050e400e10f4000050032000800370081802000f5
:1050f40010002000900098001a00370081802000e2
:105104000000eb009000980016003700808020001b
:10511400300090006101b800b0378200c1378200ce
:10512400800f5100818f59000e003c006000b800d0
:10513400b0378a00c1378a008080200010009000b8
:10514400e10f500004003a00818020000000eb00d1
:105154009000980003003700818020001000200098
:10516400900098008080200020009000000f7800bc
:105174001e0078000000e000040032001e007800e9
:10518400e10f400005003200080037008180200054
:1051940010002000800878001a0037008180200069
:1051a4000000eb00800878001600370080802000a3
:1051b400200090006101b800d0378200e1378200fe
:1051c400800f5100818f59000e003c006000b80030
:1051d400d0378a00e1378a008080200010007800f0
:1051e400e10f500004003a00818020000000eb0031
:1051f4008008780003003700818020001000200020
:10520400800878000080fa00000006003600f800ec
:10521400809fbe00829fbe00849fbe00869fbe000a
:105224000000fa009aff07007eff07008460a900cf
:105234000080fa004f03be004f02be004f01be00c3
:105244004f00be003600f900004006000000fa00de
:105254000000eb0034ee070081bb200090fa2f0021
:1052640033ee07000080fa00000006000200fa0096
:105274000000eb0032ee0700d0072000000f78009a
:105284009e007800d0fa2f002fee07000080fa006d
:10529400000006000000fa0043c7bf0002c7b300c5
:1052a4008240600000c3b30080cf5000220032006f
:1052b400e0012000303a880044c7bf00f043b20048
:1052c40044e7b700417420009140780000ceb30059
:1052d40000c0600044e7b7003200200081072000ce
:1052e400a0092000337420008149780080497800a7
:1052f400824978001200200061042000700520001b
:10530400237420008149780080497800824978001c
:1053140043c7bf0002c7b3008240600000c3b300ac
:1053240080cf5000faff3a0042c7bf000042b200eb
:105334000004e000fcff32000080fa0000000600d8
:105344000000fa000080fa00000006000000fa00e5
:105354008be0a9009be0a8000080fa000000060092
:105364000000fa004580a90044a0a80044e0a90078
:105374004480a9004440a9004420a8004400a90096
:105384000080fa00000006000000fa000000eb00b4
:1053940020058800510a200091407800f0c8b3002d
:1053a40000c060000044a000a5e0b7000000eb00ce
:1053b40030058800610a20009140780080cfb30056
:1053c40000c060006040b300a6e0b700710a20008e
:1053d40091407800f0c8b30000c0600001c3b3007e
:1053e40001407000a7e0b7000000eb004005880012
:1053f400910a20009140780080cfb30000c0600083
:105404005040b300a9e0b700810a20009140780021
:10541400f0c8b30000c0600001c5b30001407000d3
:10542400a8e0b700810a20009140780080cfb30043
:1054340000c060005040b300a8e0b7000000eb00db
:1054440050058800b10a20009140780080cfb30055
:1054540000c060000024a000abe0b700a10a200057
:1054640091407800f0c8b30000c0600001c6b300ea
:1054740001407000aae0b7000000eb00600588005e
:10548400d10a20009140780000c7b30000c070002a
:10549400ade0b7000000eb00700588000000eb00f1
:1054a40080058800010b20009140780080cfb30074
:1054b40000c060000024a000b0e0b700110b200081
:1054c40091407800f0c8b30000c0600001c4b3008c
:1054d40001407000b1e0b7000000eb0090058800c7
:1054e4000000eb00a0058800510b200091407800db
:1054f40080cfb30000c06000b5e0b700510b2000be
:1055040091407800f0c8b30000c0600001c4b3004b
:1055140001407000b5e0b7000000eb00b005880062
:10552400610b20009140780080cfb30000c0600080
:105534005040b300b6e0b7000000eb00d00588008f
:105544000000eb00000688000000eb001006880055
:10555400310c20009140780000c7b30000c07000f7
:10556400c3e0b7000000eb00200688000000eb0059
:10557400300688000000eb004006880081e0a900a6
:105584000080fa00000006000000fa000000eb00b2
:10559400201688000080eb00001688000000eb0055
:1055a400601688000080eb0040168800c082a900c5
:1055b400113a8000f0fb2f0000816000610420009c
:1055c4007005200023742000814978008049780008
:1055d400824978000080eb0060198800416c20004b
:1055e4009140780000ceb30000c060000044a000e9
:1055f400c4e6b700c062a900c262a900c902a9003a
:10560400816c20009140780000ceb30000c060009f
:10561400c8e6b700c862a900416b20009140780039
:1056240000ceb30000c060000014a000b4e6b700d0
:1056340061198000000e200000807000601988004d
:10564400816920009140780000ceb30000c0600062
:105654000004a00098e6b7002c03a9002c23a9009d
:105664002c43a900113a800000042000008170003e
:105674006104200070052000237420008149780013
:1056840080497800824978000080fa000000060012
:105694000200fa00004f7800206f24001e487800b2
:1056a4000080fa00000006003600f800809fbe006b
:1056b400829fbe00849fbe00869fbe000a00fa003f
:1056c4008760a900a04080000000e00036003a0096
:1056d400008a200010017800f00f20008000610093
:1056e400806e24009041780060c8610010c870008a
:1056f400c810de00906e24001041780060486100fc
:1057040010c87000008a200010019000f00f2000e3
:1057140080006100a06e24009041780060c86100a0
:1057240010c87000c810de00b06e2400104178006c
:105734006048610010c87000008a200020019000b9
:10574400f00f200080006100c06e240090417800ba
:1057540060c8610010c87000c810de00d06e24005c
:10576400104178006048610010c87000008a200071
:1057740030019000f00f200080006100e06e2400f2
:105784009041780060c8610010c87000c810de0045
:10579400f06e2400104178006048610010c8700069
:1057a40010002000a0408800206f240010407800e2
:1057b4000080fb0001002000c801dd000200200081
:1057c40010f82f00f10f2800000071008180710093
:1057d4003007980041079800836e240082c0b3000c
:1057e4003e009000ce00900093f0070080378200c6
:1057f4000000e80080378a0081378200903e200054
:10580400808f500025003a000000eb0080378a00aa
:10581400400020001007980040002000000f78008e
:105824001e009000836e2400418720000001780050
:1058340003007800c9ec07001e017800c06e240044
:1058440081872000c5ec07009e0178006480410038
:1058540020079800206f2400104078000080fb008f
:1058640001002000c801dd000200200020f82f0004
:10587400f10f28000000710081807100300798004a
:10588400410798002e00900000417800836e2400a8
:105894003e009000ce00900067f007000080fa0000
:1058a4004f03be004f02be004f01be004f00be00ba
:1058b4003600f900004006000800fa00404798004e
:1058c40051479800320798004e4090000080fb003a
:1058d40001002000c801dd0002002000f0ff2f00bd
:1058e400f10f2800001f710001977100be019000a4
:1058f4005e4190001e00be004ff007000080fa00d9
:10590400000006000600fa00404798004e40900050
:105914000080fb0001002000c801dd00020020001f
:10592400e0ff2f00f10f2800001f710001977100a4
:105934008001eb000041eb001e00be003ef00700ba
:105944000080fa00000006000800fa0040479800b2
:1059540051479800320798004e4090000080fb00a9
:1059640001002000c801dd0002002000e0ff2f003c
:10597400f10f2800001f710001977100be01900013
:105984005e4190001e00be002bf007000080fa006c
:10599400000006000200fa00004f78001e40780064
:1059a4003bff07001e407800cff507002088210048
:1059b40054ef07001e4078000080fb000100200027
:1059c400c801dd000200200000f02f00f10f2800c4
:1059d400000071008180710002f02f00f3ff2000ad
:1059e40037ee0700f2ff200003002000b03520004e
:1059f4000100200032ee07000aef07000080fa00e1
:045a04000000060098
:020000040000fa
:105a0800000800007400000002000000322e300080
:105a180000342e00300000000000000000000000ec
