:020000040000fa
:080000000002040000000000f2
:020000040000fa
:04000800f61c0000e2
:020000040000fa
:04000c00c61c00000e
:020000040000fa
:04001000cc1c000004
:020000040000fa
:04001400d21c0000fa
:020000040000fa
:04001800d81c0000f0
:020000040000fa
:04001c00f61c0000ce
:020000040000fa
:04002000f61c0000ca
:020000040000fa
:04002400f61c0000c6
:020000040000fa
:04002800f61c0000c2
:020000040000fa
:04002c00f61c0000be
:020000040000fa
:04003000f61c0000ba
:020000040000fa
:04003400f61c0000b6
:020000040000fa
:04003800f61c0000b2
:020000040000fa
:04003c00f61c0000ae
:020000040000fa
:04004000f61c0000aa
:020000040000fa
:04004400f61c0000a6
:020000040000fa
:04004800f61c0000a2
:020000040000fa
:04004c00f61c00009e
:020000040000fa
:040050005e07000047
:020000040000fa
:04005400f61c000096
:020000040000fa
:04005800f61c000092
:020000040000fa
:04005c00f61c00008e
:020000040000fa
:04006000f61c00008a
:020000040000fa
:04006400f61c000086
:020000040000fa
:04006800f61c000082
:020000040000fa
:04006c00f61c00007e
:020000040000fa
:04007000f61c00007a
:020000040000fa
:04007400c8020000be
:020000040000fa
:04007800f61c000072
:020000040000fa
:04007c00f61c00006e
:020000040000fa
:04008000f61c00006a
:020000040000fa
:04008400f61c000066
:020000040000fa
:04008800f61c000062
:020000040000fa
:04008c00f61c00005e
:020000040000fa
:04009000f61c00005a
:020000040000fa
:04009400f61c000056
:020000040000fa
:04009800f61c000052
:020000040000fa
:04009c00f61c00004e
:020000040000fa
:0400a000f61c00004a
:020000040000fa
:0400a400f61c000046
:020000040000fa
:0400a800f61c000042
:020000040000fa
:0400ac00f61c00003e
:020000040000fa
:0400b000f61c00003a
:020000040000fa
:0400b40076070000cb
:020000040000fa
:0400b800f61c000032
:020000040000fa
:0400bc00f61c00002e
:020000040000fa
:0400c000f61c00002a
:020000040000fa
:0400c400f61c000026
:020000040000fa
:0400c800f61c000022
:020000040000fa
:0400cc00f61c00001e
:020000040000fa
:0400d000f61c00001a
:020000040000fa
:0400d400f61c000016
:020000040000fa
:0400d800f61c000012
:020000040000fa
:0400dc00f61c00000e
:020000040000fa
:0400e000f61c00000a
:020000040000fa
:0400e400f61c000006
:020000040000fa
:0400e800f61c000002
:020000040000fa
:0400ec00f61c0000fe
:020000040000fa
:0400f000f61c0000fa
:020000040000fa
:0400f400f61c0000f6
:020000040000fa
:0400f800f61c0000f2
:020000040000fa
:0400fc00f61c0000ee
:020000040000fa
:04010000f61c0000e9
:020000040000fa
:04010400f61c0000e5
:020000040000fa
:04010800f61c0000e1
:020000040000fa
:04010c00f61c0000dd
:020000040000fa
:04011000660700007e
:020000040000fa
:04011400f61c0000d5
:020000040000fa
:04011800f61c0000d1
:020000040000fa
:04011c00f61c0000cd
:020000040000fa
:04012000f61c0000c9
:020000040000fa
:04012400f61c0000c5
:020000040000fa
:04012800f61c0000c1
:020000040000fa
:04012c00f61c0000bd
:020000040000fa
:04013000f61c0000b9
:020000040000fa
:04013400f61c0000b5
:020000040000fa
:04013800f61c0000b1
:020000040000fa
:04013c00f61c0000ad
:020000040000fa
:04014000f61c0000a9
:020000040000fa
:04014400f61c0000a5
:020000040000fa
:04014800f61c0000a1
:020000040000fa
:04014c00f61c00009d
:020000040000fa
:04015000f61c000099
:020000040000fa
:04015400f61c000095
:020000040000fa
:04015800f61c000091
:020000040000fa
:04015c00f61c00008d
:020000040000fa
:04016000f61c000089
:020000040000fa
:04016400f61c000085
:020000040000fa
:04020800f61c0000e0
:020000040000fa
:04020c00de1c0000f4
:020000040000fa
:04021000e41c0000ea
:020000040000fa
:04021400ea1c0000e0
:020000040000fa
:04021800f01c0000d6
:020000040000fa
:04021c00f61c0000cc
:020000040000fa
:04022000f61c0000c8
:020000040000fa
:04022400f61c0000c4
:020000040000fa
:04022800f61c0000c0
:020000040000fa
:04022c00f61c0000bc
:020000040000fa
:04023000f61c0000b8
:020000040000fa
:04023400f61c0000b4
:020000040000fa
:04023800f61c0000b0
:020000040000fa
:04023c00f61c0000ac
:020000040000fa
:04024000f61c0000a8
:020000040000fa
:04024400f61c0000a4
:020000040000fa
:04024800f61c0000a0
:020000040000fa
:04024c00f61c00009c
:020000040000fa
:04025000f61c000098
:020000040000fa
:04025400f61c000094
:020000040000fa
:04025800f61c000090
:020000040000fa
:04025c00f61c00008c
:020000040000fa
:04026000f61c000088
:020000040000fa
:04026400f61c000084
:020000040000fa
:04026800f61c000080
:020000040000fa
:04026c00f61c00007c
:020000040000fa
:04027000f61c000078
:020000040000fa
:04027400f61c000074
:020000040000fa
:04027800f61c000070
:020000040000fa
:04027c00f61c00006c
:020000040000fa
:04028000f61c000068
:020000040000fa
:04028400f61c000064
:020000040000fa
:04028800f61c000060
:020000040000fa
:04028c00f61c00005c
:020000040000fa
:04029000f61c000058
:020000040000fa
:04029400f61c000054
:020000040000fa
:04029800f61c000050
:020000040000fa
:04029c00f61c00004c
:020000040000fa
:0402a000f61c000048
:020000040000fa
:0402a400f61c000044
:020000040000fa
:0402a800f61c000040
:020000040000fa
:0402ac00f61c00003c
:020000040000fa
:0402b000f61c000038
:020000040000fa
:0402b400f61c000034
:020000040000fa
:0402b800f61c000030
:020000040000fa
:0402bc00f61c00002c
:020000040000fa
:0402c000f61c000028
:020000040000fa
:0402c400f61c000024
:020000040000fa
:0402c800f61c000020
:020000040000fa
:0402cc00f61c00001c
:020000040000fa
:0402d000f61c000018
:020000040000fa
:0402d400f61c000014
:020000040000fa
:0402d800f61c000010
:020000040000fa
:0402dc00f61c00000c
:020000040000fa
:0402e000f61c000008
:020000040000fa
:0402e400f61c000004
:020000040000fa
:0402e800f61c000000
:020000040000fa
:0402ec00f61c0000fc
:020000040000fa
:0402f000f61c0000f8
:020000040000fa
:0402f400f61c0000f4
:020000040000fa
:0402f800f61c0000f0
:020000040000fa
:0402fc00f61c0000ec
:020000040000fa
:04030000f61c0000e7
:020000040000fa
:04030400f61c0000e3
:020000040000fa
:04030800f61c0000df
:020000040000fa
:04030c00f61c0000db
:020000040000fa
:04031000f61c0000d7
:020000040000fa
:04031400f61c0000d3
:020000040000fa
:04031800f61c0000cf
:020000040000fa
:04031c00f61c0000cb
:020000040000fa
:04032000f61c0000c7
:020000040000fa
:04032400f61c0000c3
:020000040000fa
:04032800f61c0000bf
:020000040000fa
:04032c00f61c0000bb
:020000040000fa
:04033000f61c0000b7
:020000040000fa
:04033400f61c0000b3
:020000040000fa
:04033800f61c0000af
:020000040000fa
:04033c00f61c0000ab
:020000040000fa
:04034000f61c0000a7
:020000040000fa
:04034400f61c0000a3
:020000040000fa
:04034800f61c00009f
:020000040000fa
:04034c00f61c00009b
:020000040000fa
:04035000f61c000097
:020000040000fa
:04035400f61c000093
:020000040000fa
:04035800f61c00008f
:020000040000fa
:04035c00f61c00008b
:020000040000fa
:04036000f61c000087
:020000040000fa
:04036400f61c000083
:020000040000fa
:100400006faa20000e5c24000e018800000000008e
:10041000000020000000e000020032000001200087
:100420002002880014000700630e07000000e000af
:1004300003003a006083240001002000020037001e
:100440000000200001002000810f70000100320038
:1004500014000700000020000000e000020032004d
:100460000000020000000000f00702000000000091
:100470000040da000000fe004440a900605820005f
:100480000000e0000300320000002000a00188000e
:100490004440a800000006008a1f78008b1f7800e7
:1004a0000000060091018800800478000000eb0045
:1004b0001a003700e284440032a0b4009905ba0063
:1004c000e284440032a0b4009906ba00e2844400f9
:1004d00032a0b4000006eb00476fde00fd07b2005b
:1004e000636ce10003003a00ebff07000000eb0043
:1004f0000a003700606ce10004003a00005deb0088
:100500008b05e900fdff3e00040037006168e10053
:10051000010032000086eb000b00070019c7ba008b
:100520001905ba000e04e00003003a000a00e000da
:10053000e0ff3a0000000600fe07b2009e018800be
:100540008a047800f5ff3700395dba008b05e900b1
:100550000c003200295dba008b05e900080032006a
:100560000c00e00003003a00e284440032a0b40032
:10057000f5ff370019ddba008b05e900faff3a00f4
:100580008904e800e184440032a0b40000000600c1
:100590003600f800809fbe00829fbe00849fbe0090
:1005a000869fbe000000fa00a04080000000e80026
:1005b000a0408800911680000008200000806000a4
:1005c0000000e00004003a00200f80006040880036
:1005d000e421ef008660a90020418000e30f500075
:1005e00018013a00901680004600de00614060006d
:1005f0000080fb0000004000800078005016800062
:100600004900de00614060000080fb000080400087
:100610000000400080007800501680004800de0096
:10062000614060000080fb00008040000000e900a5
:100630001040880010168000680060000000e00094
:1006400002003a0000000000fe0037001140800068
:1006500020408000808f5000fa003200104080005f
:10066000e60f500089003a0001802f0010002000a2
:10067000332207008000eb000000eb00e81f0700ba
:10068000c0482b00db1e07008000eb00200020008c
:10069000e31f070090492b00d61e07008000eb00e7
:1006a00030002000de1f0700f0492b00d11e07009c
:1006b00050002000d0408800150037008000eb007b
:1006c00040002000d61f0700804a2b00c91e0700eb
:1006d000d0408000801f7800e04a2b00801f780007
:1006e000805f2400850f0700e4875700805f2400a7
:1006f000c01e0700104b2b00be1e0700100020007c
:1007000018210700d04080000000e900d040880098
:10071000d04080000000e000e8ff3c008000eb00db
:1007200020002000be1f0700304b2b00b11e070029
:100730008000eb0030002000b91f0700304b2b0079
:10074000ac1e07008000eb0040002000b41f070033
:10075000304b2b00a71e070000fe2f00361f07009e
:100760008000eb000000eb00ad1f0700404c2b00a9
:10077000a01e07008000eb0010002000a81f07004b
:10078000704d2b009b1e07000080eb002a1f070006
:1007900040012000e52007008000eb003000200031
:1007a0009f1f0700804e2b00921e070030408000e4
:1007b000801f7800e04a2b00801f7800805f2400b3
:1007c0004e0f0700e4875700410020003000200052
:1007d000931f0700805f2400861e07008000eb0047
:1007e000400020008e1f0700b04e2b00811e070026
:1007f00040408000801f7800e04a2b00801f780076
:10080000805f24003d0f0700e4875700410020006f
:1008100040002000821f0700805f2400751e070033
:100820008000eb00500020007d1f0700e04e2b00f1
:10083000701e070050408000801f7800e04a2b00a7
:10084000801f7800805f24002c0f0700e48757008a
:100850004100200050002000711f0700805f24002d
:10086000641e070000fe2f00f31e07008002200018
:10087000a12007008000eb0090002000681f070007
:10088000104f2b005b1e07006e00370010408000e9
:10089000e10f400024003a0001802f0010002000ea
:1008a000a72107008000eb00400020005c1f07002c
:1008b000f04f2b004f1e07008000eb00500020007f
:1008c000571f0700a0502b004a1e07008000eb00b6
:1008d00060002000521f0700f0492b00451e070052
:1008e000500020009f2007008000eb000000eb007c
:1008f0004b1f070000512b003e1e07008000eb003d
:1009000020002000461f070000512b00391e070061
:100910008000eb0030002000411f070000512b0039
:10092000341e070047003700204080000000e00030
:1009300012003a001040800080004000a098200083
:100940000080400010007800e10f500002003a00e3
:1009500020002000004088001040800080004000ff
:10096000a09820000080400010007800e50f5000a3
:1009700002003a0010002000004088002040800063
:10098000e50f500013003a00104080008000400046
:10099000a098200000804000100078000000e000d7
:1009a00002003a0020002000004088001040800033
:1009b00080004000a09820000080400010007800d7
:1009c000e40f500019003a00100020000040880099
:1009d000160037001040800080004000a0982000e2
:1009e0000080400090007800204080000000e90076
:1009f000808f500002003a00100020000040880064
:100a00001040800080004000a0982000008040003e
:100a100090007800204080000000e800808f5000a7
:100a200002003a00200020000040880010408000b2
:100a300080004000a0982000008040001000780056
:100a40002040880010168000680060000000e00070
:100a500012013a0020032000342007001016800005
:100a6000680060000000e00006013a0020418000bc
:100a7000e20f50001900320020418000e40f5000c6
:100a80001600320020418000e10f500013003200b8
:100a900020418000e30f5000100032002041800010
:100aa000e50f50000d00320020418000ea0f500099
:100ab0000a00320020418000e70f5000070032009a
:100ac00020418000e80f50000400320021418000e6
:100ad00070032000808f50000e003a000080eb0071
:100ae0002041880010002000804088002228ef006c
:100af0000100370000000000101680006800600050
:100b00000000e000fbff3200400620000720070045
:100b1000dc003700104180000000e0001b003a00bc
:100b200070408000e10f500002003a002228ef00e0
:100b30000b00370070408000e20f500003003a00c5
:100b40001000200010418800050037007040800030
:100b5000e30f500002003a002000200010418800fe
:100b600010002000804088000100370000000000d5
:100b700010168000680060000000e000fbff3200fb
:100b800040062000e91f0700be003700104180002a
:100b9000e10f50001b003a0070408000e10f500050
:100ba00003003a0090002000104188000a0037003e
:100bb00070408000e20f500003003a0080002000e7
:100bc000104188000400370070408000e30f50009f
:100bd00001003a002228ef00100020008040880029
:100be000010037000000000010168000680060005f
:100bf0000000e000fbff320040062000cb1f070092
:100c0000a000370010418000e90f500021003a0099
:100c100070408000e10f500003003a0050002000b7
:100c2000104188001000370070408000e20f500033
:100c300003003a00a0002000104188000a0037009d
:100c400070408000e30f500003003a00b000200025
:100c5000104188000400370070408000e40f50000d
:100c600001003a002228ef00100020008040880098
:100c700001003700000000001016800068006000ce
:100c80000000e000fbff320040062000a71f070025
:100c90007c00370010418000e80f500021003a002e
:100ca00070408000e10f500003003a00d0002000a7
:100cb000104188001000370070408000e20f5000a3
:100cc00003003a00e0002000104188000a003700cd
:100cd00070408000e30f500003003a00c000200085
:100ce000104188000400370070408000e40f50007d
:100cf00001003a002228ef00100020008040880008
:100d0000010037000000000010168000680060003d
:100d10000000e000fbff320040062000831f0700b8
:100d20005800370010418000e20f500026003a00c2
:100d300070408000e10f500003003a0030002000b6
:100d4000104188001500370070408000e20f50000d
:100d500003003a0040002000104188000f003700d7
:100d600070408000e30f500003003a005000200064
:100d7000104188000900370070408000e40f5000e7
:100d800002003a002228ef00040037007040800083
:100d9000e50f500001003a002228ef00100020006b
:100da000804088000100370000000000101680001d
:100db000680060000000e000fbff320040062000f9
:100dc0005a1f07002f00370010418000e40f500029
:100dd0001b003a00704080000000e00003003a0071
:100de000e0002000104188000a00370070408000b9
:100df000e10f500003003a00e0002000104188009d
:100e00000400370070408000e20f500001003a00fb
:100e10002228ef00100020008040880001003700e9
:100e20000000000010168000680060000000e00074
:100e3000fbff3200400620003c1f07001100370076
:100e400020418000e90f50000e003a000080eb00c6
:100e5000204188001000200080408800f000200021
:100e600010418800010037000000000010168000cb
:100e7000680060000000e000fbff32004006200038
:100e80002a1f070010168000680060000000e000c4
:100e9000030032008660a900010037008660a900c7
:100ea0000080fa004f03be004f02be004f01be009b
:100eb0004f00be003600f900004006000000fa00b6
:100ec0008540a9000080fa0000400600801f7800dd
:100ed0000000fa00000f8000000f80008b40a90086
:100ee0000080fa004f00780000400600801f780064
:100ef0000000fa008860a9005020800061006000b6
:100f00000000e000010032000a04a9000080fa009d
:100f10004f007800004006000000fa00113a8000ff
:100f2000000027008080600000002300808f5000b8
:100f300028003200e0012000303a8800213a800089
:100f4000f0f32f0000806000203a8800213a8000f2
:100f500000fe2f0000806000203a8800e0012000a1
:100f6000303a88003200200080072000a1092000cc
:100f700033742000804978008149780082497800e4
:100f8000120020006004200071052000237420005e
:100f9000804978008149780082497800000000008b
:100fa000113a8000000027008080600000002300cc
:100fb000808f5000faff3a0000000000113a8000d4
:100fc00000022000008060000000e000fbff320013
:100fd00001003700000000000080fa000000060059
:100fe0003601fa00889fbe00cbff07008e1f070066
:100ff000803e2000cd1e0700511680000008200012
:101000000080600000f0a7000000ea000000e90096
:101010004f00de00004078000080fb0061006000af
:101020004700dd00511680000170a1000100700032
:1010300050168800803e2000bc1e0700511680001c
:10104000000820000080600000f0a7000000ea0017
:101050000000e9004f00de00004078000080fb0047
:10106000610060004700dd00511680000170a100a2
:101070000100700050168800803e2000ab1e070063
:10108000fd20070010002000a81e0700bd19070062
:1010900000602000400f980000702000500f980062
:1010a000532107009721070000722200600f98006b
:1010b000f0ff2700700f98002044200000179800d0
:1010c00030002000101798009e1290000e12900021
:1010d000de0990004e099000fe0890006e08900016
:1010e000710a070060042000101c88009480a90089
:1010f0008480a90081e3a80000802f0020179800b9
:10110000901680004600de00614060000080fb0019
:101110000000400080007800501680004900de008a
:10112000614060000080fb00008040000000400043
:1011300080007800501680004800de0061406000aa
:101140000080fb00008040000000e9002040880093
:1011500030002000831e07000000eb00000f780025
:101160000104200081004700e2822b000f000900eb
:10117000b218780000012000301798000106200006
:101180008100470082872b000d000900b21878000b
:10119000e000200040179800c107200081004700b0
:1011a000e28a2b000c000900b2187800d000200061
:1011b00050179800d0512b00308f980040522b00d0
:1011c000408f980010532b00508f98003000200063
:1011d00060179800c109200081004700a28f2b00f2
:1011e0000c000900b2187800d00020007017980099
:1011f000610b200081004700e2932b000b000900e7
:10120000b2187800c0002000001f9800e10c2000f8
:1012100081004700629a2b000c000900b218780088
:10122000d0002000101f9800810e20008100470090
:10123000029c2b000c000900b2187800d00020009e
:10124000201f98000000eb0030079800c062a80043
:1012500063a0a800d0e2a8006220a8008660a900d0
:101260009660a800b136800000fe2f00008060006c
:10127000b0368800d0c2a800c922a800c902a800c0
:101280002021200040079800c862a8002023ef001a
:10129000f0fd2f00601988005000200040198800e0
:1012a0003023ef0020002000201988002223ef00c7
:1012b00021e3a800d042a900d242a800d242a9004e
:1012c00010002000301f980010002000401f9800e0
:1012d0002228ef00a70937008080eb0010002000d3
:1012e000171f0700da013700104180000000e000fe
:1012f0003d003a00be109000110798008080eb007e
:10130000100020000e1f07000000eb0020079800cf
:10131000290037002e009000000040000000470028
:10132000802090002e009000000040000000470048
:101330002010b000010878002e009000e40f50004b
:101340000d0034002e009000e80f50000a003c0011
:101350008000eb002e009000b11c07000080eb0025
:10136000351c07002e0090000000400000004700e0
:10137000100091009f1b07002e009000e80f500006
:101380000a0034008000eb002e009000a41c07002f
:1013900000412800281c07002e009000000040009b
:1013a0000000470010009100921b07002e009000e3
:1013b0000000e80020079800ae0090001e0090009a
:1013c000808f5000d3ff35000080eb001a1c07000f
:1013d000201020000e00400041002000f11e0700f8
:1013e0001028ef003801370010418000e20f500054
:1013f0001e003a008080eb0010002000d01e070085
:101400004e119000120798000000eb002007980092
:101410000c0037002e009000000040000000470044
:10142000803090002e009000000040000000470037
:101430002010b000010878002e0090000000e800a5
:1014400020079800ae0090001e009000808f500092
:10145000f0ff3500201020000e0040009e0090009c
:10146000d01e07001028ef00170137001041800040
:10147000e40f50001e003a008080eb0010002000b6
:10148000af1e0700ee109000110798000000eb005f
:10149000200798000c0037002e009000000040004c
:1014a00000004700b08890002e009000000040002f
:1014b000000047002010b000010878002e009000c6
:1014c0000000e80020079800ae0090001e00900089
:1014d000808f5000f0ff3500201020000e004000eb
:1014e0009e009000af1e07001028ef00f6003700a6
:1014f00010418000e10f50001e003a008080eb0098
:10150000100020008e1e07005e1190001207980048
:101510000000eb00200798000c0037002e00900020
:101520000000400000004700e03890002e009000ce
:1015300000004000000047002010b00001087800c3
:101540002e0090000000e80020079800ae009000f8
:101550001e009000808f5000f0ff3500201020000a
:101560000e0040009e0090008e1e07001028ef0025
:10157000d500370010418000e90f50001e003a00ee
:101580008080eb00100020006d1e0700fe10900010
:10159000110798000000eb00200798000c003700ae
:1015a0002e0090000000400000004700e0889000fe
:1015b0002e00900000004000000047002010b00006
:1015c000010878002e0090000000e8002007980035
:1015d000ae0090001e009000808f5000f0ff35009c
:1015e000201020000e0040009e0090006d1e07009d
:1015f0001028ef00b400370010418000eb0f5000be
:1016000021003a008080eb00100020004c1e0700f3
:101610001e199000120798000000eb0020079800a8
:101620000c0037002e009000000040000000470032
:10163000f0a090002e009000000040000000470045
:101640002010b000010878002e0090000000e80093
:1016500020079800ae0090001e009000808f500080
:10166000f0ff3500201020000e0040009e0090008a
:101670004c1e070090002000204188001000200030
:1016800080408800f500370010418000ef0f5000c7
:1016900021003a008080eb0010002000281e070087
:1016a000ae189000110798000000eb00200798008a
:1016b0000c0037002e0090000000400000004700a2
:1016c000c0b090002e0090000000400000004700d5
:1016d0002010b000010878002e0090000000e80003
:1016e00020079800ae0090001e009000808f5000f0
:1016f000f0ff3500201020000e0040009e009000fa
:10170000281e0700a00020002041880010002000b3
:1017100080408800d100370010418000e80f500061
:101720001e003a008080eb0010002000041e07001d
:101730000e199000120798000000eb002007980097
:101740000c0037002e009000000040000000470011
:10175000b09890002e00900000004000000047006c
:101760002010b000010878002e0090000000e80072
:1017700020079800ae0090001e009000808f50005f
:10178000f0ff3500201020000e0040009e00900069
:10179000041e07001028ef004b00370011418000a5
:1017a00070032000808f500005003a008080eb001d
:1017b00010002000e21d07001028ef004200370053
:1017c00010418000e30f500006003a008080eb00db
:1017d00010002000da1d07001000200020418800c2
:1017e0009e00370010418000e70f500006003a00cd
:1017f0008080eb0010002000d11d07002000200099
:10180000204188009500370010418000e50f50000e
:1018100006003a008080eb0010002000c81d070081
:1018200030002000204188008c00370010418000eb
:10183000ec0f500006003a008080eb001000200002
:10184000bf1d070070002000204188008300370082
:1018500010418000ea0f500006003a008080eb0043
:1018600010002000b61d0700500020002041880015
:101870007a00370010418000ed0f50000300320065
:1018800010418000e80f500006003a008080eb0015
:1018900010002000aa1d07007003200020418800ce
:1018a0006e00370010418000ee0f500006003a0035
:1018b0008080eb0010002000a11d07002000200008
:1018c000204188006500370010002000704088002b
:1018d0002e109000941d0700704080008000eb00e7
:1018e0004f1b0700704080000000400000004700d0
:1018f000100091003f1a0700520037002023a80073
:10190000400620007c1c07002023a90000000000e6
:1019100000198000610060000000e000fcff320060
:101920000018800040079800ce009000e02e2000b4
:10193000808f500004003c00ce009000900f2000eb
:10194000808f50003d003c0040062000771c0700bf
:10195000ce009000e02e2000808f50001400340054
:101960000080eb00701d0700704080008000eb00dd
:101970002b1b070070408000000040000000470063
:10198000100091001b1a0700704080000000e0006a
:1019900004003a001e0090000000e900704088003a
:1019a00003003700704080000000e90070408800ac
:1019b000ce009000900f2000808f500014003c005b
:1019c0000080eb00581d0700704080008000eb0095
:1019d000131b07007040800000004000000047001b
:1019e00010009100031a0700704080000000e8001a
:1019f0007040880071408000600020000001780085
:101a0000110009008200d8008000fd0070408800ad
:101a100000802f00441d0700704080008000eb0014
:101a2000ff1a0700704080000000400000004700df
:101a300010009100ef190700020037004006200057
:101a40003a1c0700804080000000e000abff32003d
:101a50004e1890000000e00023fe3a002041800074
:101a6000e10f500061003a000000eb0010179900f0
:101a70000000eb00201799008e0078006112b00082
:101a8000020009008018eb008058eb000b1d0700d6
:101a900000fe2f00241d07008000eb001000200036
:101aa000df1a070020542b00d21907008000eb003a
:101ab00020002000da1a070010552b00cd1907006e
:101ac00000fe2f005c1a0700800220000a1c07009d
:101ad0008000eb00a0002000d11a0700104f2b005f
:101ae000c41907000080eb00531a07008000eb00c8
:101af00050002000ca1a0700cb62a80041e2a800eb
:101b0000cb62a9000000eb008b080700000000007a
:101b10007b0807000004e000fdff32007b0807009f
:101b200010179900f0002000f31b0700740807004d
:101b30000004e00007003a0074080700201799002d
:101b40002e109100e10f400002003a000000eb006f
:101b500020179900cb62a80041e2a900a000200054
:101b6000f21b0700000000001e1091000000e000c2
:101b700003003a001e1091000000e0001700320040
:101b80001e1091004400de00101799009e10910075
:101b9000f0ff200000806000101799009e10910057
:101ba000601220000e004000811f7800e14a2b00e7
:101bb000811f7800510a0700e48757008000eb007e
:101bc00050002000961a0700601220000e0040000e
:101bd0008819070090552b008619070020418000c6
:101be000e10f400063073200c4ff3700204180004e
:101bf000e20f500062003a0001fe2f0010002000aa
:101c0000cf1c0700d242a8008000eb000000eb00d0
:101c1000831a0700d0552b00761907008000eb00cf
:101c2000c00020007e1a0700104f2b00711907001a
:101c30000080eb00001a07008000eb00500020003d
:101c4000771a070040582b006a1907008000eb0044
:101c500060002000721a070000fe2f00f61907002e
:101c6000d0582b0063190700a000200050079800ef
:101c7000a00020006007980001003700000000006d
:101c80001d080700de009000810f500004003a009c
:101c900060408000ee009000808f500017003200fe
:101ca00015080700500798005e019000821f780019
:101cb000e04a2b00801f7800805f24000f0a070095
:101cc000e48757000080eb00db190700910020003b
:101cd00050002000521a0700b0592b004519070088
:101ce00091002000500020004d1a0700805f240062
:101cf0004019070090552b003e19070060408000f6
:101d0000ee009000808f500015003200614080008e
:101d1000610798006e019000821f7800e04a2b0056
:101d2000801f7800805f2400f4090700e4875700d3
:101d300000402000c0190700910020007000200022
:101d4000371a0700205a2b002a190700910020009b
:101d500070002000321a0700805f24002519070058
:101d600020418000e10f4000c4ff3a00d242a900a8
:101d7000c801a900c881a900c1e1a900fd0637007a
:101d80002141800070032000808f5000d0003a0075
:101d900001fe2f0010002000691c0700d242a8009d
:101da0008000eb000000eb001d1a0700a05a2b007a
:101db000101907008000eb00c0002000181a07006f
:101dc000104f2b000b1907000080eb009a19070039
:101dd0008000eb0040002000111a070040582b0043
:101de000041907008000eb00700020000c1a0700a7
:101df000a05c2b00ff180700a000200070079800cf
:101e0000c801a900c881a900c1e1a8002023a80039
:101e100040062000381b07002023a9000000000016
:101e200000198000610060000000e000fcff32004b
:101e3000001880004041880041418000f01f2000d0
:101e4000808f500005003400404180000140200098
:101e500000805000004188000200370040418000af
:101e60000041880001418000001e2000808f50004a
:101e700004003400001e20000041880001003700eb
:101e8000000000009c070700fe009000810f50003a
:101e9000120032009807070070079800fe009000bb
:101ea000811f7800e04a2b00801f7800805f2400ab
:101eb00092090700e48757000080eb005e190700d5
:101ec0009100200040002000d5190700805f240009
:101ed000c818070090552b00c61807002023a8003b
:101ee00040062000041b07002023a900000000007a
:101ef00000198000610060000000e000fcff32007b
:101f00000118800040418000008050004007980088
:101f10004e0090000000e0003100350000418000dc
:101f2000ce009000808f50000200340002418000fb
:101f3000420798004e009000cf80de007f08070027
:101f4000d2cc2c00c3cc2300d2080700e04088008c
:101f5000f1408800e0408000f1408000809fbe009a
:101f6000305d2b00801f7800805f2400630907002c
:101f7000e6875700004020002f190700810020004d
:101f800070002000a6190700805f24009918070040
:101f9000605d2b009718070000418000ce00900084
:101fa00000017800110009008200d800cf80de0017
:101fb00062080700b0408800c1408800ce00900051
:101fc000800820000088b900000078000080ea0046
:101fd000b00e8800c801a900c881a80034003700ed
:101fe000004180008000ea004e009000808f500089
:101ff00003003500014180004107980003003700cd
:102000004e0090000000ea00400798004e0090004b
:10201000cf80de0049080700d2cc2c00c3cc2300bf
:102020009c080700e0408800f1408800e040800004
:10203000f1408000809fbe00905d2b00801f7800e3
:10204000805f24002d090700e6875700004020002c
:10205000f9180700810020007000200070190700a7
:10206000805f240063180700605d2b006118070083
:1020700000418000ce0090000001780011000900ae
:102080008200d800cf80de002c080700b040880016
:10209000c1408800ce009000800820000088b90070
:1020a00000007800b00e8800c801a800c881a9000f
:1020b00020418000e10f400071ff3a00d242a900a8
:1020c000c801a900c881a900c1e1a90029063700fb
:1020d00020418000e30f500008013a0001fe2f006c
:1020e00010002000961b0700901680004600de00be
:1020f000614060000080fb00304088005016800086
:102100004900de00614060000080fb004040880024
:10211000501680004800de00614060000080fb0037
:10212000504088003040800000004000800078006f
:1021300040408000008040000000400080007800a7
:1021400050408000008040000000e90020408800ee
:1021500020408000104088000000eb00000f980035
:102160001103800040062000010070001003880069
:102170008660a9009660a8008000eb000000eb00dc
:1021800027190700404c2b001a1807008000eb00ad
:102190001000200022190700704d2b0015180700b1
:1021a0000080eb00a4180700400120005f1a070020
:1021b0008000eb003000200019190700804e2b0032
:1021c0000c18070030408000801f7800e04a2b0088
:1021d000801f7800805f2400c8080700e48757004c
:1021e00041002000300020000d190700805f24000e
:1021f000001807008000eb004000200008190700cd
:10220000b04e2b00fb17070040408000801f780075
:10221000e04a2b00801f7800805f2400b708070089
:10222000e48757004100200040002000fc18070010
:10223000805f2400ef1707008000eb0050002000b3
:10224000f7180700e04e2b00ea1707005040800007
:10225000801f7800e04a2b00801f7800805f2400f8
:10226000a6080700e4875700410020005000200026
:10227000eb180700805f2400de17070000fe2f0028
:102280006d180700800220001b1a07008000eb0079
:10229000b0002000e2180700104f2b00d5170700f0
:1022a00030408000e10f500006003a0040408000be
:1022b000e10f500003003a0050408000e10f500051
:1022c00009003200304080000000e00016003a00b3
:1022d000404080000000e00013003a0050408000c1
:1022e0000000e00010003a008000eb003000200009
:1022f000cb18070000802f004f180700d05d2b007f
:10230000bc17070020032000081a070050602b00ac
:10231000b817070020032000041a0700100020004f
:10232000000f9800020037000000eb00000f98003b
:10233000901680004600de00614060008080fb0057
:1023400030408000808f50001100320090168000d5
:102350004600de00614060000080fb0030408800e5
:1023600030408000801f7800e04a2b00801f7800fa
:10237000805f240061080700e487570041002000c7
:1023800030002000a6180700805f2400991707007e
:10239000501680004900de00614060008080fb0034
:1023a00040408000808f50001100320050168000a5
:1023b0004900de00614060000080fb004040880072
:1023c00040408000801f7800e04a2b00801f78008a
:1023d000805f240049080700e4875700410020007f
:1023e000400020008e180700805f2400811707003e
:1023f000501680004800de00614060008080fb00d5
:1024000050408000808f5000110032005016800034
:102410004800de00614060000080fb005040880002
:1024200050408000801f7800e04a2b00801f780019
:10243000805f240031080700e48757004100200036
:102440005000200076180700805f240069170700fd
:10245000004080000000e0000c003a0000fe2f0069
:10246000f517070040012000b01907008000eb00bd
:10247000900020006a1807000e089000e10f50003d
:102480000200320030622b005a1707000040800023
:10249000e10f500009003a0000fe2f00e617070088
:1024a00040012000a11907008000eb0090002000ef
:1024b0005b180700f0622b004e17070000408000f9
:1024c000e20f500009003a0000fe2f00da17070063
:1024d00040012000951907008000eb0090002000cb
:1024e0004f18070010642b0042170700204180009e
:1024f000e10f40001f0532008dff370020418000b2
:10250000e50f500075013a0001fe2f001000200079
:102510008b1a07008000eb00100020004018070015
:1025200020652b00331707008000eb00a00020007f
:102530003b18070040682b002e1707002023a80037
:10254000400620006c1907002023a90000000000ad
:1025500000198000610060000000e000fcff320014
:10256000001880004041880041418000f01f200099
:10257000808f500005003400404180000140200061
:102580000080500000418800020037004041800078
:102590000041880001418000001e2000808f500013
:1025a00002003400001e2000004188001e00780058
:1025b0000000e00047003a00000000008021800099
:1025c000680060000000e000fcff3a0000602400aa
:1025d0008043eb00000378008042eb000042eb00f8
:1025e000120020000300200031c0b30060992000d9
:1025f000350507003064a80000000000802180003d
:10260000680060000000e000fcff3a000060240069
:102610008043eb00000378008042eb000042eb00b7
:10262000120020000300200071c0b300609a200057
:10263000250507003064a80000000000802180000c
:10264000680060000000e000fcff3a000060240029
:102650008043eb00000378008042eb000042eb0077
:10266000120020000300200081c0b300609b200006
:10267000150507003064a8000000000080218000dc
:10268000680060000000e000fcff3a0000602400e9
:102690008043eb00000378008042eb000042eb0037
:1026a000120020000300200051c0b300e09d200074
:1026b000050507003064a8000000000080218000ac
:1026c000680060000000e000fcff3a0010002000fd
:1026d000000f7800006024008043eb0000037800c6
:1026e0008042eb000042eb001200200003002000bb
:1026f00021c0b300e09c2000f30407003064a80070
:102700000000000080218000680060000000e00000
:10271000fcff3a0020032000041907000060240099
:102720008043eb00000378008042eb000042eb00a6
:10273000120020000300200021c0b300e09a200016
:10274000e10407003064a800000000008021800040
:10275000680060000000e000fcff3a000100370064
:10276000000000002023a80040062000e218070017
:102770002023a90000000000001980006100600013
:102780000000e000fcff32000118800040418000a2
:1027900000805000400798004e0090000000e000cc
:1027a0005500350000418000ce009000808f500021
:1027b0000200340001418000410798004e00900063
:1027c000cf80de005d060700020020000310240019
:1027d000b00607000004be0000418000cf80de008c
:1027e000560607000001be000800be00d105070024
:1027f000b0408800c1408800b0408000c1408000e7
:102800000200200083142400a20607000f06070020
:10281000501f98008000eb00700020008017070018
:10282000f00120000417070020692b007116070033
:102830005e199000821f7800e04a2b00801f78000c
:10284000805f24002d070700e4875700c1002000a7
:102850007000200072170700805f240065160700d3
:10286000f0692b0063160700b0408000c140800073
:1028700002002f00f3572400860607000200200004
:1028800003102400ab050700f0050700601f980047
:102890006e1890004880de0080407800709d200017
:1028a000014878006e18900080407800609d2000fc
:1028b00001487800006024008043eb0000037800aa
:1028c0008042eb000042eb00f210200003002000e9
:1028d00081c0b300609d20007b0407003064a80025
:1028e0000000000080218000680060000000e0001f
:1028f000fcff3a0065003700004180008000ea00dc
:102900004e009000808f5000030035000141800090
:1029100041079800030037004e0090000000ea00d5
:10292000400798004e009000cf80de0003060700ad
:102930000200200003102400560607000004be0019
:1029400000418000cf80de00fc0507000001be00d2
:102950000800be0077050700b0408800c14088002d
:10296000b0408000c1408000020020008314240099
:1029700048060700b5050700501f9800f001200029
:10298000ad1607008000eb00700020002417070040
:10299000406a2b00171607005e199000821f78000e
:1029a000e04a2b00801f7800805f2400d3060700d8
:1029b000e4875700c10020007000200018170700ae
:1029c000805f24000b160700f0692b000916070032
:1029d000b0408000c140800002002f00f357240067
:1029e0002c060700020020000310240051050700f8
:1029f0000001be0000002f00f1572400ef04070083
:102a000092050700000078008000780010002f0079
:102a100000804000601f98006e1890004880de0023
:102a200080407800709d200001487800709d200053
:102a300090407800709d2000014878006e1890004a
:102a400080407800609d20000148780000602400ec
:102a50008043eb00000378008042eb000042eb0073
:102a6000f21020000300200081c0b300609d200010
:102a7000150407003064a8000000000080218000d9
:102a8000680060000000e000fcff3a002041800088
:102a9000e10f400032ff3a00006024008043eb0069
:102aa000000378008042eb000042eb00120020009f
:102ab0000300200021c0b300e09c200002040700b6
:102ac0003064a800000000008021800068006000e1
:102ad0000000e000fcff3a00a60337002041800020
:102ae000e90f5000f0003a002023a8004006200023
:102af000011807002023a900000000000019800031
:102b0000610060000000e000fcff3200001880005f
:102b10004041880041418000f01f2000808f50001c
:102b2000050034004041800001402000008050003a
:102b300000418800020037004041800000418800c9
:102b400001418000001e2000808f500002003400f0
:102b5000001e2000004188008000eb009000200053
:102b6000af16070000fe2f0033160700106b2b0076
:102b7000a01507008100200090002000a816070083
:102b800000802f002c160700106c2b0099150700f1
:102b900001003700000000002023a80040062000ac
:102ba000d51707002023a9000000000000198000ad
:102bb000610060000000e000fcff320001188000ae
:102bc000803e2000808f50004e0036003e00900076
:102bd000e10f400036003200e10f400005003c00ec
:102be000e60f400022003200e30f400028003200d0
:102bf00037003700e10f50000d003200e10f5000a8
:102c000003003500e30f50001100320030003700a0
:102c10001000200030079800810020009000200064
:102c20007f160700406c2b00721507002800370044
:102c30003000200030079800810020009000200024
:102c400077160700706c2b006a150700200037000c
:102c500060002000300798008100200090002000d4
:102c60006f160700a06c2b006215070018003700d4
:102c7000d0ff2f0030079800810020009000200036
:102c800067160700d06c2b005a150700100037009c
:102c90000080eb00300798008100200090002000a9
:102ca0005f160700006d2b00521507000800370063
:102cb0000000eb0030079800810020009000200009
:102cc00057160700106c2b004a1507000000000083
:102cd0002023a800803e2000871707002023a9009a
:102ce0000000000000198000610060000000e000aa
:102cf000fcff320001188000803e2000808f5000d1
:102d0000f3ff3e000118800030062000808f500045
:102d10004f003e003e0090000000e0000e00320038
:102d20000000e00005003c00e30f40002a003200f4
:102d3000e10f40003000320037003700e30f500051
:102d400015003200e60f50001b003200e10f50006a
:102d500009003200300037000080eb003007980097
:102d600081002000900020002d160700006d2b0030
:102d700020150700280037000000eb0030079800fe
:102d8000810020009000200025160700106c2b0009
:102d900018150700200037001000200030079800a9
:102da00081002000900020001d160700406c2b00c1
:102db0001015070018003700300020003007980079
:102dc000810020009000200015160700706c2b0079
:102dd0000815070010003700a0ff2f0030079800eb
:102de00081002000900020000d160700306d2b00a0
:102df0000015070008003700d0ff2f0030079800ab
:102e0000810020009000200005160700d06c2b00e8
:102e1000f8140700000000002023a800803e2000d6
:102e2000351707002023a9000000000000198000ca
:102e3000610060000000e000fcff3200011880002b
:102e400030062000808f5000f3ff36000e00370060
:102e5000803e2000281707008100200090002000fd
:102e6000ef150700be009000811f7800e04a2b009c
:102e7000801f7800805f2400a0050700e4875700ca
:102e8000805f2400db14070020418000e10f400038
:102e900040ff3a003e0090000000e000b5023a001a
:102ea0002228ef00b302370020418000ea0f5000d3
:102eb00056013a006000b800100f9800210f9800ea
:102ec0000e017800d212b000070009000059eb0093
:102ed00070c1b300506f9a003e009000e10f5000a7
:102ee00004003a0080c6b300606f9a0010c0b300bf
:102ef000706f9a003e009000e30f500004003a000b
:102f000080c3b300606f9a0040c0b300706f9a0036
:102f10003e009000e60f500004003a0000c7b300e6
:102f2000606f9a0080c0b300706f9a003e009000fe
:102f3000e10f400004003a0080c9b300606f9a00be
:102f4000e0cfb300706f9a003e009000e30f4000a6
:102f500004003a0080ccb300606f9a00b0cfb30099
:102f6000706f9a003e009000e60f400004003a00a7
:102f700000c9b300606f9a0070cfb300706f9a0001
:102f80008000eb0060002000a5150700f001200084
:102f900029150700606d2b009614070081002000a2
:102fa000600020009e150700be009000811f780081
:102fb000706e2b00801f7800805f24004f05070093
:102fc000e4875700805f24008a1407008000eb002c
:102fd000800020009215070000802f0016150700c2
:102fe000b06e2b00831407008100200080002000b9
:102ff0008b1507001e089000ae089000809fbe0051
:10300000706e2b00801f7800805f24003b05070056
:10301000e6875700805f2400761407000000000058
:1030200080218000680060000000e000fcff3a00a2
:10303000006024008043eb00000378008042eb0036
:103040000042eb00120020000300200031c0b3005a
:10305000609920009c0207003064a8000000000076
:1030600080218000680060000000e000fcff3a0062
:10307000006024008043eb00000378008042eb00f6
:103080000042eb00120020000300200071c0b300da
:10309000e09920008c0207003064a80000000000c6
:1030a00080218000680060000000e000fcff3a0022
:1030b000006024008043eb00000378008042eb00b6
:1030c0000042eb00120020000300200081c0b3008a
:1030d000609b20007c0207003064a8000000000014
:1030e00080218000680060000000e000fcff3a00e2
:1030f000006024008043eb00000378008042eb0076
:103100000042eb00120020000300200051c0b30079
:10311000e09d20006c0207003064a8000000000061
:1031200080218000680060000000e000fcff3a00a1
:10313000006024008043eb00000378008042eb0035
:103140000042eb00120020000300200021c0b30069
:10315000e09b20005c0207003064a8000000000033
:1031600080218000680060000000e000fcff3a0061
:1031700001003700000000002023a80040062000c6
:103180005d1607002023a900000000000019800040
:10319000610060000000e000fcff320001188000c8
:1031a000803e2000808f50001f00360018c0b30002
:1031b00002002000031224001e089000ae089000b8
:1031c0009e0307000000e000010035000044eb0012
:1031d0000804e000070032000200200003f0230092
:1031e0001e089000ae089000f5020700100f98002e
:1031f000210f98002023a800803e20003e160700e3
:103200002023a90000000000001980006100600078
:103210000000e000fcff320001188000803e20002a
:10322000808f5000f3ff3e00011880003006200020
:10323000808f50001e003e0018c0b3006011b8001f
:103240001e089000ae0890007e0307000000e0001a
:1032500001003c000044eb000804e00007003200dd
:103260000200200003f023001e089000ae0890002a
:10327000d2020700100f9800210f98002023a80009
:10328000803e20001c1607002023a900000000003b
:1032900000198000610060000000e000fcff3200c7
:1032a0000118800030062000808f5000f3ff3600a8
:1032b0001e089000ae089000809fbe00606f2b003b
:1032c000801f7800805f24008c040700e687570089
:1032d0008100200080002000d1140700805f2400be
:1032e000c413070002002800a34224001e08900017
:1032f000ae089000e703070054030700701f980012
:103300007e1890000040780000779a007e189000a8
:103310004880de00701f98007e1890000040780002
:1033200010779a0001602400d01220000e004000a7
:103330008043eb00010378008042eb000042eb0089
:10334000120020000300200051c0b300de0107007e
:103350003064a80000000000802180006800600048
:103360000000e000fcff3a0020418000e10f400037
:1033700080ff3a006000b800100f9800210f9800fd
:103380000000eb0030079800006024008043eb0051
:10339000000378008042eb000042eb0012002000a6
:1033a0000300200051c0b30060a02000c601070048
:1033b0003064a800000000008021800068006000e8
:1033c0000000e000fcff3a00006024008043eb00b6
:1033d000000378008042eb000042eb001200200066
:1033e0000300200021c0b300e09c2000b6010700cc
:1033f0003064a800000000008021800068006000a8
:103400000000e000fcff3a005a0137002041800034
:10341000e70f500026013a00d242a80001fe2f001b
:1034200010002000c61607008000eb0010002000ee
:103430007b140700d06f2b006e1307008000eb0099
:10344000200020007614070010712b00691307007c
:103450008000eb00300020007114070060722b0028
:10346000641307008000eb00400020006c1407008c
:1034700080732b005f1307008000eb0050002000da
:103480006714070060742b005a1307000080eb00dc
:10349000e91307008000eb008000200060140700a3
:1034a000a05c2b005313070000fe2f00e21307005f
:1034b0008000eb00b00020005914070040682b008a
:1034c0004c13070010002000a6150700c801a90032
:1034d000c881a900c1e1a80000802f00d613070011
:1034e0006000b800e0408800f1408800010037002b
:1034f000000000002023a800400620007e150700e1
:103500002023a90000000000001980006100600075
:103510000000e000fcff3200001880004007980027
:10352000ce009000803e2000808f50006a00340062
:10353000e0408000f14080000200200003f0230002
:103540001f020700e0408800f1408800e040800052
:10355000f140800018c0b3000200200003142400d2
:10356000b80207000000e00001003c000044eb004e
:103570000804e000040032000000200001142400d0
:10358000e0408800f1408800e0408000f140800089
:10359000809fbe0050752b00801f7800805f240044
:1035a000d6030700e687570000402000a21307005b
:1035b000a10020008000200019140700805f240073
:1035c0000c130700a0752b000a130700e0408000d1
:1035d000f140800018c0b3006011b80099020700e4
:1035e0000000e00001003d000044eb000804e000a2
:1035f0000e003200e0408000f140800002f02f0019
:10360000f3772400230307000200200003142400a2
:1036100048020700ae02070000007800b00e8800e4
:10362000c801a800c881a90024003700e04080003c
:10363000f140800002f02f00f3772400150307000b
:1036400002002000031424003a02070002f02f00b9
:10365000f3772400da0107009d02070000007800dc
:10366000b00e8800c801a900c881a8001300370067
:103670002023a800400620001f1507002023a900d2
:103680000000000000198000610060000000e00000
:10369000fcff3200001880004007980020418000a5
:1036a000e10f400005003a00d242a900c801a9007c
:1036b000c881a900c1e1a90007003700ce00900031
:1036c00080252000808f5000e9ff3c0020418000d1
:1036d000e10f4000e6ff3200ce00900030062000ef
:1036e000808f50006a003c00e0408000f140800084
:1036f0000200200003f02300b0010700e040880032
:10370000f1408800e0408000f140800018c0b30024
:103710000200200003142c00480207000000e00013
:10372000010035000044eb000804e0000400320012
:103730000000200001142c00e0408800f1408800c7
:10374000e0408000f1408000809fbe0060762b004a
:10375000801f7800805f240068030700e687570019
:103760000040200034130700a1002000800020004a
:10377000ab130700805f24009e120700c0762b0069
:103780009c120700e0408000f140800018c0b300a8
:103790006011b8002b0207000000e00001003d00ae
:1037a0000044eb000804e0000e003200e04080001e
:1037b000f140800002f02f00f3772400b5020700eb
:1037c0000200200003142400da0107004002070071
:1037d00000007800b00e8800c801a800c881a900c8
:1037e00024003700e0408000f140800002f02f000c
:1037f000f3772400a702070002002000031424002e
:10380000cc01070002f02f00f37724006c010700c1
:103810002f02070000007800b00e8800c801a90040
:10382000c881a800130037002023a800400620000c
:10383000b11407002023a900000000000019800037
:10384000610060000000e000fcff32000018800012
:103850004007980020418000e10f400005003a0039
:10386000d242a900c801a900c881a900c1e1a900ec
:1038700007003700ce009000f0182000808f500025
:10388000e9ff340020418000e10f4000e6ff3200f4
:1038900020418000e10f400015ff3a00d242a9000c
:1038a000c801a900c881a900c1e1a9003100370001
:1038b00020418000e80f50002e003a0001fe2f004a
:1038c000100020009e1507008000eb000000eb00b8
:1038d0005313070060772b00461207008000eb00af
:1038e000c00020004e130700104f2b0041120700ac
:1038f0000080eb00d01207008000eb006000200089
:103900004713070040582b003a120700a000200080
:10391000300f98000100370000000000f60007009b
:10392000be089000810f50000e003200f200070028
:10393000300f98008100200060002000381307003d
:103940003e099000821f7800e04a2b00801f78001b
:10395000805f2400e9020700e487570090552b00a0
:103960002412070020418000e10f4000eaff3a00e6
:10397000000000003e1890000000e00056f63a00fb
:103980004f04be000080fa00000006000000fa00ac
:103990008020a900ffff37000000fa008060a90026
:1039a000ffff37000000fa008040a900ffff37004a
:1039b0000000fa008080a900ffff37000000fa0035
:1039c0008020a900ffff37000000fa008060a900f6
:1039d000ffff37000000fa008040a900ffff37001a
:1039e0000000fa008080a900ffff37000040da00e5
:1039f0000000fe000a00fa00e20f50001f003e0027
:103a000020558000e10f5000060032008023200086
:103a10004523200023232000042320000000e00091
:103a200004003a00802220004522200023222000aa
:103a300004222000060028009403630002003a00dc
:103a400007087800140a730013a8a30001003a00c5
:103a500013a0a00002007800050037001388a3001f
:103a6000feff32003102fb00840a78000000e9000a
:103a70000000e000f9ff3a000800370033002000a2
:103a8000b3bf9f00c0bf9f00d1bf9f00e2bf9f0098
:103a90006a805700d90807006fb9970002007800c4
:103aa0000080fa0000000600111c8800221c88001b
:103ab000331c8800441c8800551c8800001c8800aa
:103ac00081e3a80000000600889fbe008582fb00fd
:103ad0008a9fbe008c9fbe000404e00004003200f8
:103ae000f97f2000e14f52001d003a000a00370024
:103af000058242008184fb00fa7f20000940a0007b
:103b00000a016100c92add004211dd0004027100d2
:103b1000098172001a003700c61dde004a1add0056
:103b20004615de000a057200421ede000d00200070
:103b3000c92add000c8264004a11dd004222dd004a
:103b40008184fb00f3ff20000911b3003400b300af
:103b5000090171000304650002817200080037004a
:103b600005824200028164008181fb004211dd0078
:103b70000340a000c92add00040271000381720025
:103b800022039800040b78001803980000017800c5
:103b90006603430001003700325b7800804151002a
:103ba00081cf5100fcff39000780fb008000eb0053
:103bb00072002000820f5000e08f580017003e0076
:103bc00000600100150037000600370007003700cd
:103bd00008003700090037000a0037000b003700e3
:103be0000c0037003164a8000d0037003264a800d3
:103bf0000b0037003364a800090037003464a800c4
:103c0000070037003564a800050037003664a800b7
:103c1000030037003764a800010037003064a800b3
:103c20004f06be004f05be004f04be000000060058
:103c30000020880011208800000006000a24ef0000
:103c4000678160008860a900e880600060208800cb
:103c50004c10dd00f2ff2800a30580000301610085
:103c60000201700070ff2f00a20588009800b600c6
:103c700000807000c0048800000006008b40a9008e
:103c8000e7006000f28f2f00c808dd000306800007
:103c90000301610068006000028170004300de00e3
:103ca0000206880061006000f1bf2f004a00dd00bd
:103cb000d20480008280600081007000d1048800fe
:103cc00000000600e1e1a900f2ff2200820160008d
:103cd000030f88000280200002006000f27f2f00a6
:103ce000030f80000301610002017000020f8800d1
:103cf000110f880000000600200f80000000060061
:103d00000012800061406000000006000080eb00af
:103d10004002ab000700320040c2a9004342ab00a2
:103d200002003200401280000000060040128000b5
:103d3000f00fb200000006004342ab0001003a0061
:103d4000f00fb200401288000000060000102000b2
:103d50002202b6000000e9004f00de00000006006d
:103d600021e2a9009560a9009580a9008560a900bd
:103d70008580a900000006001011800061406000ed
:103d8000000006004211880000118800111188000f
:103d9000000006000011800066006000e60f500081
:103da00002003a003011800000000600301180004f
:103db000f00fb200000006000000050003f0a200b2
:103dc000889fbe008a9fbe008c1f780019010700e3
:103dd000200133006450e1004f0032006420e10014
:103de0005200320003826c0007003b000905d0003e
:103df0000306d000820f54000c065d00020039005b
:103e0000020032008901780003067800858255009f
:103e100004003d000003fd008103fd008502ea006f
:103e20008b854200840f720002003b00600010008e
:103e3000e08018006011b8000005eb007a28e1006e
:103e40000a00390006007800c75ddd00f707b20000
:103e5000878075002d003700828171000a0178008b
:103e6000610560008180d1000080d3008502e900f7
:103e7000f9ff3b00060440008784480002003b0035
:103e800060041400e0841c000988a30007003200cd
:103e90008a81710082817100610164008904d1000e
:103ea0000884d3008b05e800170037000978a300c9
:103eb00013003a000b00e000130034008b05e9000a
:103ec0000804440089844c000a4474000978a30063
:103ed0000d003a000b00e000070034008b05e900fc
:103ee0000804440089844c0001003a000b002000c3
:103ef0000978a300f7ff32000001eb000200370051
:103f0000828171000a0178008f0007000cf0a70081
:103f100001f0a000d80037006420e10002003a0060
:103f2000838f6c00d80033000801be000200be0081
:103f3000d1003700889fbe008a9fbe008c1f78008a
:103f4000bc000700c300330003866c006450e1002e
:103f50002e0032006420e100330032006150e100a5
:103f60002f0032006120e1003100320085855500cc
:103f7000eb07b0000900200008042000050037000e
:103f80000804440089844c000a0031000603430001
:103f900087834b000001530081815b00f8ff3300f1
:103fa0000203be000800a0000804440089844c00fd
:103fb000f6ff3900c639dd008301730001003200cd
:103fc000130020008904d1000884d3000998a300bd
:103fd000050032000800a7000300a0008904d100fa
:103fe0000884d3008b05e8008904d1000884d3003d
:103ff0000001eb000281d2005300070001f0a10094
:104000000cf0a70001f0a0009b0037006420e10045
:104010009d0032000801be000200be00f7ff37001d
:104020006120e100980032006000b800f3ff370023
:104030000000200001f82700f0ff370014002000e6
:10404000c8003700f4ff2f00c60037000001be0093
:10405000630007000470a70003f0a1006509b10028
:10406000160032000d0035006828e100060035001a
:10407000f0ff2f00f1ff27000300e00013003b00da
:104080000100280000000500000040008180480079
:104090008502e900fcff3a0008003700f88f420073
:1040a00002003c008000eb00000005008100d10010
:1040b0000080d3008502e800fcff3a000300e00026
:1040c00002003b0060001000e080180000000600c5
:1040d0000001be00420007000470a70003f0a10029
:1040e00003f8a30013003a006509b1001000320084
:1040f000090035006928e1000200350001002800b0
:104100000000050000004000818048008502e900b1
:10411000fcff3a0000000600f88f42000500350061
:104120008100d1000080d3008502e800fcff3a0046
:10413000000006008000eb00000005004f89de0053
:1041400082017800a20037008100200061805500c4
:104150000b003d000b00200061fe2f000100e1007c
:104160001d00340082817100610164008904d10066
:104170000884d3000000e800faff3a007100200034
:10418000610064000300700002006000090032005a
:1041900061044400e0844c000988a5000500320059
:1041a0008b05e8006808e10002003a008904d100ac
:1041b0000884d300f20f20000258e10005003d0002
:1041c000c75ddd00f907b20089807500080078003e
:1041d000000006000bf827008b00780000000500a7
:1041e000c70ade00f107b200f50fb2000800320086
:1041f000e1cf4200020032000170a000240005005f
:10420000810f700001003200040805004400050021
:10421000810f700002003a00140005008502e900d9
:104220000000400081c04800fcff3b000170a0007e
:10423000240005000004be00e9ff07000003be00e3
:104240000405be000200be00e5ff0700844f7500b4
:10425000000006000200be006450e10005003600c8
:104260006420e100020036000968a30001003a0062
:104270000800be000160a0004f0678004f05be0098
:104280004f04be0000000600f0ff2f00f1ff2700e2
:10429000f9ff3700889fbe008a9fbe008c1f780000
:1042a000e4ff0700ebff330003866c006450e1007d
:1042b000240032006420e100270032006150e10058
:1042c000220032006120e100210032008b85420093
:1042d000eb07b1000134b800003ab800080442000e
:1042e00089844a00013ab8000030b8008880400054
:1042f00009014a00040033000000400081804800aa
:10430000020149008b05e900c909dd008301700045
:104310000100320013002000c814de004814dd0044
:104320004709de001200b200c808de0008847000f1
:1043300085ff070001f0a1000cf0a70001f0a0002c
:10434000cdff37006120e100cfff32000801be0041
:104350000200be00f7ff37006150e100fcff3a00a9
:10436000c9ff3700889fbe008a9fbe00841f780067
:10437000b0ff07004f00780011003300f0ff2f005e
:10438000838f6c0006003b00040565000a00a7004f
:104390000800370009f0a6001000200008003700d0
:1043a000820f5400838f5c0003003900100020004e
:1043b00001003e000000200009f0a7000000ea0014
:1043c0004f05be004f04be000000e00000000600e4
:1043d000881f7800030478000300e00007003d0018
:1043e00060001000e080180060011900e0811900f1
:1043f00002003b0001f02d0003003700040007001d
:1044000008f0a70001f0a0004f04780000000600ab
:10441000889fbe008a9fbe00008270000402710067
:1044200004827100260032000004be000200be00bb
:104430006011b8006b092000950220000182cf00b6
:104440000a0039000541b1000082cf0007003900a1
:104450000541b1000982cf00040039000541b100d7
:104460000882cf00010039000541b1000542520029
:10447000120032000a003b00828171006101640079
:104480008100d1000080d3008984d3000884d30048
:104490008b05e8000442e800f7ff3a000700370008
:1044a0000804440089844c000000480081804800d2
:1044b0008b05e9000442e900f9ff3a0022ff0700fa
:1044c0004f05be004f04be0000000600000178004a
:1044d000b1417800035978000304e000fcff3a0082
:1044e00000000600800078003104e000feff3a0082
:1044f0000080ea0000804000000006000c00fa0086
:10450000889fbe0000047800f0ff2700d0bf9f0006
:104510008004eb0099bf9f0088bf9f00a8bf9f0049
:10452000200c2000b0bf9f0078815700cfb09700cb
:1045300070805700cf0007000fb897000948780037
:104540008fb89700088050004f04be000080fa002a
:10455000000006000800fa00889fbe008a9fbe0087
:104560000084fb00d1c6b300814f500034003600f8
:104570004b062000110009000b84d800810578004b
:10458000720040004300dd00a98d2000008044003f
:104590006022b8000600200007fe23005001be0084
:1045a0004000be00b10707000002be000203be00cb
:1045b00084bf9f0095bf9f00a6bf9f00b7bf9f000d
:1045c000aa002000110009008a85d8008005780023
:1045d000e9854500c35ddd008b8544003b02be00dc
:1045e0002b03be000fb897009fb897002fb9970014
:1045f000bfb997009d0707000002be000203be007e
:1046000084bf9f0095bf9f00a6bf9f00b7bf9f00bc
:10461000110009000a84d800010478004344dd0039
:10462000888444003902be002903be000fb89700f9
:104630009fb897002fb99700bfb997001d003700aa
:10464000ea4f500013003600aa00200011000900b4
:104650000a84d80001057800690440004344dd0065
:10466000a98d2000088444006022b80006002000c4
:1046700007fe23003800be002801be007b070700ac
:104680004355dd008a8444003902be002903be0080
:10469000080037004344dd00a08d200008044000de
:1046a0006022b8000600200007fe23003800be008c
:1046b0002801be006d0707004f05be004f04be0075
:1046c0000080fa00000006000800fa00889fbe0083
:1046d0008a9fbe00d1c6b3000004e00023003d0065
:1046e0000040ea000004fb00814f50000a00340043
:1046f00042062000110009000204d800a900200091
:10470000110009008900d800e9004000c308dd005d
:10471000aa8d200021003700ea4f5000100034001d
:10472000a2002000110009000204d8000101780055
:10473000690040004300dd00a18d200000804000a2
:104740004311dd00828040003102be002103be0023
:104750005001be004000be0044070700380037008b
:104760004344dd00a08d2000320037000004fb0030
:10477000814f500023003400420620001100090040
:104780000204d800a9002000110009008900d80007
:10479000e9004000c308dd00aa8220008100450036
:1047a0003102be002103be008b0920008a8545002e
:1047b0003b00be002b01be002c0707000002be001c
:1047c0000203be0084bf9f0095bf9f00a6bf9f004d
:1047d000b7bf9f00110009000904d8000104780048
:1047e0004344dd00080545003a02be002a03be002e
:1047f0000fb897009fb897002fb99700bfb99700df
:10480000d5ff3700ea4f500008003400a200200016
:10481000110009000204d80001017800690040007d
:104820004300dd00a1822000c4ff37004344dd00c7
:10483000a0822000080440003800be002801be000d
:104840004f05be004f04be000080fa0000000600c5
:10485000d0019000028151004240a90003003400c1
:1048600010017800014978000208e8000100780092
:10487000000006006f02b000889fbe008a9fbe0045
:104880008c9fbe008e1f780000067800b1af9f009d
:1048900092b79f006000b8006011b800d0af9f00d1
:1048a000e1af9f00f2af9f0083b79f008006eb004f
:1048b000c4043700bfa897008100e800b1af9f0093
:1048c00051c2b300814f500003003a00bfa89700c7
:1048d0000007eb0011003700bc0090000000fb0057
:1048e0000168a300070032000d0178008000780005
:1048f0000c007800d6ff07000000e00005003a0039
:10490000b00437008c007800ba040700e10f4000c3
:10491000ac0432008d06e800aa04370001017800db
:1049200031407800d3c2b300834f50000c003200f6
:1049300007003c00edc15100834f50000a003200d7
:10494000ebc14100834f50000d003a0008003700d2
:1049500003c3b300834f500009003a00060037003c
:104960000e30a000edff37000e00a000ebff370077
:104970000e10a000e9ff37000e20a000e7ff37006f
:104980000e18a300010032000e00a1000e38a30093
:10499000010032000e20a1008000fb000103b100e5
:1049a000e98f50000c003e00020078008005eb000b
:1049b0006a59b900b005fb000b03b10082854500c0
:1049c000000178009000fb000103b100e98f500066
:1049d000f7ff3600080037008005eb00a1c2b300e6
:1049e000814f500004003a009fb19700c305780042
:1049f00093b79f000201e800e0c2b300924f10009d
:104a000016003a000ee0a00064405000d24f1000a3
:104a100003003200020078008001eb00080037003c
:104a20009fb297004503780095b79f00e6b79f00b7
:104a30000201e8000c0037006a19b90082814000c9
:104a400000017800b000fb000103b100e98f5000c5
:104a5000f9ff3600e3b79f00030037000ec0a00047
:104a60008003eb00e7b79f008201780033407800b5
:104a700003017800c1c6b300814f50002b00320003
:104a8000b3af9f0014003c00e8c05000814f5000bd
:104a90002400320009003c00ecc05000814f50005f
:104aa0002a003200ebc04000814f50008c003200e1
:104ab0000004e00048043200a200370061c6b300e1
:104ac000814f50001b003200e3c04000814f500076
:104ad0009c003a001300370031c7b300814f5000eb
:104ae0001e00320007003c00e4c05000814f50001f
:104af000130032008140e800814f500091003a00dd
:104b00001200370051c7b300814f500092003200ad
:104b1000e3c04000814f50008a003a00e0cf9f0080
:104b20000c003700e0cf9f008d0037000e40a00042
:104b3000cdff3700e0cf9f000ea0a0008800370017
:104b4000e0cf9f000e60a00085003700e0cf9f00ff
:104b50000e50a0000e70a00081003700e0cf9f0033
:104b60009fb097004100780091b79f000004780043
:104b70000000e00001003a0088a4200088007800ce
:104b80000000eb00010037000000e8006141780000
:104b90000204e000fcff3a00800478006fb1970047
:104ba0000200e00003003200890f510001003100d3
:104bb000820478000005eb00898f55000100360063
:104bc00009855500680767002a003a001100370080
:104bd0003c0090000068a300070032000d0178003f
:104be000010220000c00780019ff07000000e0001f
:104bf00006003a00060037008c0078000002200012
:104c0000fc030700e10f4000010032008d06e800c0
:104c10000a05e9000a00e000edff3a000085eb001c
:104c2000140037003c0090000068a3000900320027
:104c300008007800b000fb00000478000d01780047
:104c40000c00780002ff07000000e00008003a00b6
:104c500008003700880078003100fb00010478006c
:104c60008c007800e3030700e10f400001003200f0
:104c70008d06e800090078008004e9000000e000eb
:104c8000e8ff3a000e00e000ce03320011003700ca
:104c90003c0090000068a300070032000d0178007e
:104ca000010220000c007800e9fe07000000e0008f
:104cb00006003a00060037008c0078000002200051
:104cc000cc030700e10f4000010032008d06e80030
:104cd0000a05e9000a00e000edff3a00b9033700d9
:104ce0009fb197004302780093b79f00cfa2de00e8
:104cf000482bdd004820de0000007300c828de00dd
:104d0000e0cf9f000e48a300080032000004e0003e
:104d100006003200e14f400004003200f0cf9f0057
:104d200084d79f002900200002003700f4cf9f00a5
:104d300019002000e7fc2f008f8343000704e800e0
:104d400096ff3700e0cf9f00e8fc2f000f044400df
:104d50001900200091ff3700e0cf9f000e0cb30038
:104d60000170200081006700700067000100e00012
:104d7000180232000ec8a3000200320061002000b9
:104d8000e1b79f000000e000050032001fb097006f
:104d90004003be004002be0090b79f0006003700ef
:104da0001fb197004200be0092b79f004005070068
:104db0000002be000203be00a4b79f00b5b79f006b
:104dc000c6b79f00d7b79f006022b8006033b80015
:104dd0002fb09700bfb097004fb19700dfb1970099
:104de000850407000000e0000a003d002fb0970096
:104df000bfb097004fb19700dfb1970003f0a2005a
:104e0000a0b79f00b1b79f00c2b79f00d3b79f0064
:104e10003e00b3000000eb0090af9f006022b8009e
:104e20006033b8002fb09700bfb097004fb1970024
:104e3000dfb19700d40407000000e0003400320026
:104e400024fd2f000f0242002fb09700bfb0970043
:104e50004fb19700dfb19700670507001fa89700c3
:104e60000000e9006302b900a2002000110009005f
:104e70000202d80090af9f000000e00002003d0059
:104e80000000e90090af9f001fac97000840ea00c7
:104e90000dfe07002fb29700bfb297004fb39700e7
:104ea000dfb39700710507000002be000203be00d9
:104eb000d4af9f00e5af9f00f6af9f0087b79f007c
:104ec0006022b8000600200007ff23004a04070004
:104ed0000000e00002003d000804e9000b0037007c
:104ee0006022b80006002000470224005fa8970057
:104ef000efa897007fa997008fb1970043040700a0
:104f00000000e000020035000804e80098af9f00b0
:104f1000efb29700ec8f52000f003c000540780084
:104f20008cfd07000002be000203be002fb09700f8
:104f3000bfb097004fb19700dfb19700b1030700f2
:104f40000002be000203be00a4b79f00b5b79f00d9
:104f5000c6b79f00d7b79f001fac9700e90f54005a
:104f600015003c006022b8006033b8002fb09700f5
:104f7000bfb097004fb19700dfb1970082040700e0
:104f80000000e000310032002fb09700bfb0970062
:104f90004fb19700dfb19700e4040700e00f500025
:104fa000e08f5800e00f5900e08f590027003a00c9
:104fb000e10f5400250034000400200005002e00fd
:104fc000b6e02200170124005fa89700efa8970021
:104fd0007fa997008fb19700070407000000e00049
:104fe00002003d00690454000100370068045400c9
:104ff00098af9f002fd09700b3fd07000002be00be
:105000000203be00d4af9f00e5af9f00f6af9f0044
:1050100087b79f002fb09700bfb097004fb19700a0
:10502000dfb19700fe030700c00407000004be00c4
:105030006000b8006011b800a0b79f00b1b79f0032
:10504000c2b79f00d3b79f00160037002fb097005c
:10505000bfb097004fb19700dfb19700b3040700ce
:105060000004be00e20407000002be000203be000e
:105070002fb09700bfb097004fb19700dfb19700f6
:105080006f0507000002be000203be00a4b79f0028
:10509000b5b79f00c6b79f00d7b79f000000eb00d1
:1050a00090af9f0001a5200010c0b300050037009d
:1050b000e4804000b10f5400a18f5c000300390070
:1050c0000040e800ea4f5000f9ff3a00e0cf9f00af
:1050d0009fa8970081805500efb29700858050000f
:1050e0000005fb000a8550000500e00001003200c9
:1050f0000a05e90063006700010032000a05e900c3
:105100000e28a30039003200610167000e18a300c9
:105110000f0032003c0090000068a300060032003f
:10512000b10220000200e000010032008180e800ae
:105130000d0178000d003700b00220000200e000f1
:10514000010032000080e8008c0078000e0037007b
:105150000200e000220032003c0090000068a30042
:10516000070032000d017800010220000c007800d9
:10517000b7fd07000000e00006003a001800370005
:105180008c007800000220009a020700e10f400026
:10519000130032008d06e800110037003c0090003b
:1051a0000068a300070032000d0178000103200011
:1051b0000c007800a6fd07000000e00006003a00a1
:1051c000060037008c0078000003200089020700e9
:1051d000e10f4000010032008d06e8000a05e900f9
:1051e0000a00e000edff3c00570037000e38a30036
:1051f00014003a00110037003c0090000068a30042
:10520000070032000d017800010220000c00780038
:105210008ffd07000000e00006003a00060037009e
:105220008c0078000002200072020700e10f4000ad
:10523000010032008d06e8000a05e9000a00e000de
:10524000edff3c00610167000e18a3000e00320064
:105250003c0090000068a30005003200b10220006d
:105260000200e000220032008180e80020003700c8
:10527000b00220000200e000010032000080e800df
:105280008c0078002c0037000200e0002e00320075
:105290003c0090000068a300030032000d0178007c
:1052a00001022000130037008c007800000220006b
:1052b000210037003c01900000a520008100fb0088
:1052c0000268a30010003200c208dd008100400027
:1052d0001101be000800be00db040700a200200090
:1052e00003002000e8040700010320008080400044
:1052f0000d0178000c00780055fd07000000e0006b
:1053000010003a0010003700c208dd0081004000a4
:105310001101be000800be00cb040700a20020005f
:1053200003002000d8040700020320000001410010
:105330008c007800020078002e020700e10f400088
:10534000010032008d06e8006fc897008040e90038
:10535000e1cf9f000004e000d6ff3a0013003700c1
:105360003c0090000068a300070032000d017800a7
:10537000010320000c00780035fd07000000e0006c
:1053800006003a00060037008c0078000003200079
:1053900018020700e10f4000010032008d06e8000e
:1053a0001fa897000000e90090af9f001fa897007a
:1053b0000000e000eaff3c006fb39700e80f5300e5
:1053c0000300340080c0b300e0cf9f00020037002c
:1053d000cfeb9700e7cf9f006fc897008005fb00d9
:1053e000efb097008b8550000004e0001000320001
:1053f0003c0090000068a300070032000d01780017
:10540000e10220000c00780011fd07000000e00020
:1054100006003a00060037008c007800e002200009
:10542000f4010700e10f4000010032008d06e800a2
:105430006fc89700a4fc07000002be000203be0074
:105440002fb09700bfb097004fb19700dfb1970022
:1054500006040700b50307002d0037003c0190004b
:1054600001a520000000fb000268a300100032002c
:105470004200dd00808040001101be000800be0037
:1054800071040700a2002000030020007e04070032
:1054900001032000808040000d0178000c0078009e
:1054a000ebfc07000000e00010003a00100037009d
:1054b0004200dd00808040001101be000800be00f7
:1054c00061040700a2002000030020006e04070012
:1054d00002032000000141008c00780002007800e7
:1054e000c4010700e10f4000010032008d06e80012
:1054f0006fc997000200fb004200dd0001a52000fb
:10550000008040001001be000800be005e040700dd
:105510000004be00efc897000140e900e0cf9f0003
:105520000104e000cdff3a00110037003c0090007c
:105530000068a300070032000d017800010320007d
:105540000c007800c2fc07000000e00006003a00f2
:10555000060037008c00780000032000a50107003a
:10556000e10f4000010032008d06e8008b05e900e4
:105570000b00e000edff3a000e38a300910132006d
:105580000a00e0008f0134003c0090000068a30096
:10559000070032000d017800010220000c007800a5
:1055a000abfc07000000e00006003a0006003700f0
:1055b0008c007800000220008e010700e10f4000ff
:1055c000010032008d06e8000a05e900eeff3a000e
