:020000040000fa
:080000000002040000000000f2
:020000040000fa
:100400004fb220000e5c24000e01880000000000a6
:10041000000020000000e000020032000001200087
:10042000200288000c000700e0e02400010020000a
:1004300011000700000020000000e0000200320070
:100440000000020000000000c007020000000000e1
:100450000040da000000fe004440a900605820007f
:100460000000e0000300320000002000a00188002e
:100470004440a80000000600910188008000780038
:100480000000eb0015003700e280400032a0b4000d
:100490009101ba00e280400032a0b4009102ba009b
:1004a000e280400032a0b4000002eb00472bde00e7
:1004b000f507b200602ce10004003a000059eb009f
:1004c0008301e900fdff3e00040037006128e100e0
:1004d000010032000082eb00040007001101ba00a5
:1004e0000200e000e8ff3a00000006003159ba00bf
:1004f0008301e9000c0032002159ba008301e900b0
:10050000080032000400e00003003a00e2804000ee
:1005100032a0b400f5ff370011d9ba008301e90019
:10052000faff3a008100e800e180400032a0b40008
:10053000000006003600f800809fbe00829fbe00cb
:10054000849fbe00869fbe000000fa00b445800074
:100550000402e800b445880074408000e30f5200b4
:1005600018013a00941680004622de0061426200c3
:100570000482fb00040242008402780054168000ca
:100580004922de00614262000482fb0004824200d4
:100590000402420084027800541680004822de00e3
:1005a000614262000482fb00048242000402e9000e
:1005b000344588001416800068026200e00f520083
:1005c00002003a0000000000fe00370035458000c0
:1005d00044458000848f5200fa0032003445800088
:1005e000e60f520089003a0001802f001000200021
:1005f000392507008000eb000000eb00d322070044
:10060000209e2b00b22107008000eb00200020007c
:10061000ce220700f09e2b00ad2107008000eb00ea
:1006200030002000c9220700509f2b00a82107009e
:100630005400200024468800150037008000eb009d
:1006400040002000c1220700e09f2b00a0210700ee
:1006500024468000841f780044a02b00841f78006b
:10066000808b2000fc130700e4875700808b20005c
:100670009721070070a02b00952107001000200093
:100680000d240700244680000402e9002446880067
:1006900024468000e00f5200e8ff3c008000eb00a1
:1006a00020002000a922070090a02b00882107002d
:1006b0008000eb0030002000a422070090a02b0057
:1006c000832107008000eb00400020009f220700ec
:1006d00090a02b007e21070000fe2f0019220700aa
:1006e0008000eb000000eb0098220700a0a12b0087
:1006f000772107008000eb00100020009322070004
:10070000d0a22b00722107000080eb000d22070011
:1007100040012000da2307008000eb0030002000b9
:100720008a220700e0a32b006921070054458000be
:10073000841f780044a02b00841f7800808b200049
:10074000c5130700e4875700410020003000200057
:100750007e220700808b20005d2107008000eb00d7
:10076000400020007922070010a42b005821070028
:1007700064458000841f780044a02b00841f78000b
:10078000808b2000b4130700e4875700410020004d
:10079000400020006d220700808b20004c210700c4
:1007a0008000eb00500020006822070040a42b00ce
:1007b0004721070074458000841f780044a02b0067
:1007c000841f7800808b2000a3130700e487570064
:1007d00041002000500020005c220700808b200098
:1007e0003b21070000fe2f00d621070080022000d9
:1007f000962307008000eb009000200053220700a2
:1008000070a42b00322107006e00370034458000b1
:10081000e10f420024003a0001802f001000200068
:10082000ad2407008000eb004000200047220700b5
:1008300050a52b00262107008000eb00500020006f
:100840004222070000a62b00212107008000eb00b8
:10085000600020003d220700509f2b001c21070054
:1008600050002000942307008000eb000000eb0004
:100870003622070060a62b00152107008000eb0040
:10088000200020003122070060a62b001021070065
:100890008000eb00300020002c22070060a62b0017
:1008a0000b2107004700370044458000e00f52004d
:1008b00012003a0034458000840242000480200087
:1008c0000482420014027800e10f520002003a0054
:1008d0002400200024458800344580008402420022
:1008e000048020000482420014027800e50f5200c8
:1008f00002003a001400200024458800444580008e
:10090000e50f520013003a00344580008402420093
:10091000048020000482420014027800e00f52009c
:1009200002003a002400200024458800344580005d
:1009300084024200048020000482420014027800f5
:10094000e40f520019003a001400200024458800ea
:1009500016003700344580008402420004802000e5
:100960000482420094027800444580000402e900b9
:10097000848f520002003a001400200024458800b1
:10098000344580008402420004802000048242003a
:1009900094027800444580000402e800848f5200ed
:1009a00002003a00240020002445880034458000dd
:1009b0008402420004802000048242001402780075
:1009c000444588001416800068026200e00f52005f
:1009d0001a013a0020032000292307001416800082
:1009e00068026200e00f52000e013a00744080007d
:1009f000e20f52001900320074408000e40f5200f0
:100a00001600320074408000e10f520013003200e3
:100a100074408000e30f52001000320074408000e8
:100a2000e50f52000d00320074408000ea0f5200c2
:100a30000a00320074408000e70f520007003200c5
:100a400074408000e80f52000400320075408000be
:100a500074032000848f52000f003a000082eb00e4
:100a60007440880014002000944588000002eb00c8
:100a70006440880001003700000000001416800068
:100a800068026200e00f5200fbff320040062000c7
:100a9000fb220700e300370064408000e00f5200b3
:100aa0001c003a0084458000e10f520003003a0028
:100ab0000002eb00644088000b0037008445800092
:100ac000e20f520003003a00140020006440880046
:100ad0000500370084458000e30f520002003a0011
:100ae0002400200064408800140020009445880001
:100af0000100370000000000141680006802620048
:100b0000e00f5200fbff320040062000dc2207000d
:100b1000c400370064408000e10f52001c003a001e
:100b200084458000e10f520003003a009400200049
:100b3000644088000b00370084458000e20f5200bb
:100b400003003a008400200064408800050037005c
:100b500084458000e30f520002003a000002eb00df
:100b6000644088001400200094458800010037008c
:100b7000000000001416800068026200e00f5200be
:100b8000fbff320040062000bd220700a500370011
:100b900064408000e90f520022003a008445800042
:100ba000e10f520003003a00540020006440880026
:100bb0001100370084458000e20f520003003a0024
:100bc000a4002000644088000b00370084458000aa
:100bd000e30f520003003a00b40020006440880094
:100be0000500370084458000e40f520002003a00ff
:100bf0000002eb0064408800140020009445880047
:100c00000100370000000000141680006802620036
:100c1000e00f5200fbff3200400620009822070040
:100c20008000370064408000e80f520022003a0044
:100c300084458000e10f520003003a00d4002000f8
:100c4000644088001100370084458000e20f5200a4
:100c500003003a00e4002000644088000b003700e5
:100c600084458000e30f520003003a00c4002000d6
:100c7000644088000500370084458000e40f52007e
:100c800002003a000002eb006440880014002000db
:100c90009445880001003700000000001416800011
:100ca00068026200e00f5200fbff320040062000a5
:100cb000732207005b00370064408000e20f52009f
:100cc00028003a0084458000e10f520003003a00fa
:100cd00034002000644088001700370084458000fd
:100ce000e20f520003003a004400200064408800f4
:100cf0001100370084458000e30f520003003a00e2
:100d000054002000644088000b00370084458000b8
:100d1000e40f520003003a000002eb006440880038
:100d20000500370084458000e50f520002003a00bc
:100d30000002eb0064408800140020009445880005
:100d400001003700000000001416800068026200f5
:100d5000e00f5200fbff320040062000482207004f
:100d60003000370064408000e40f52001c003a005d
:100d700084458000e00f520003003a00e4002000a8
:100d8000644088000b00370084458000e10f52006a
:100d900003003a00e40020006440880005003700aa
:100da00084458000e20f520002003a000002eb008e
:100db000644088001400200094458800010037003a
:100dc000000000001416800068026200e00f52006c
:100dd000fbff3200400620002922070011003700e7
:100de00074408000e90f52000e003a000082eb00d0
:100df000744088001400200094458800f40020000e
:100e000064408800010037000000000014168000d4
:100e100068026200e00f5200fbff32004006200033
:100e2000172207001416800068026200e00f5200cb
:100e3000030032008660a900010037008660a90027
:100e40000080fa004f03be004f02be004f01be00fb
:100e50004f00be003600f900004006000000fa0016
:100e60008540a9000080fa0000400600841f780039
:100e70000000fa000002eb00240f88008b40a9005c
:100e80000080fa004f02780000400600841f7800be
:100e90000000fa008860a90054208000610262000e
:100ea000e00f5200010032000a04a9000080fa009d
:100eb0004f027800004006000000fa00153a80005a
:100ec000040027008482620004002300848f520003
:100ed00028003200e4012000343a8800243a8000df
:100ee0000460a1000470a100243a8800253a800023
:100ef00004fe2f0004826200243a8800e4012000ee
:100f0000343a88003600200084072000a50920001c
:100f100037742000844b7800854b7800864b78002e
:100f200016002000640420007505200027742000ae
:100f3000844b7800854b7800864b780000000000d9
:100f4000153a800004002700848262000400230018
:100f5000848f5200faff3a0000000000153a80002a
:100f60000402200004826200e00f5200fbff320006
:100f700001003700000000000080fa0000000600b9
:100f80005801fa00889fbe00cbff07007f220700b0
:100f900004602000340f980004702000440f980073
:100fa000b6240700fb24070004722200540f9800a7
:100fb000f4ff2700640f980024442000740f980069
:100fc00034002000041798008e1290007e0a9000d2
:100fd000ce0990003e099000ee0890005e08900057
:100fe000df10070064042000141c88009480a9000e
:100ff0008480a90081e3a80004802f0014179800c2
:10100000941680004622de00614262000482fb00ea
:101010000402420084027800541680004922de0057
:10102000614262000482fb0004824200040242002a
:1010300084027800541680004822de00614262007b
:101040000482fb00048242000402e9004445880057
:1010500030002000982107000002eb00040f780008
:10106000800420000000470041d82b000f00090039
:10107000311878000401200024179800840620000d
:1010800004024700e5dc2b000d000900351a78004a
:10109000e4002000341798004608200006034700ab
:1010a00040e02b000c000900301b7800d400200029
:1010b0004417980034a72b00748f9800e4a72b00e6
:1010c000049798002400200054179800f4a82b00df
:1010d00014979800e4a72b002497980084a92b006c
:1010e0003497980084a92b004497980094a92b006a
:1010f00054979800c4aa2b006497980064002000bd
:1011000064179800f4ab2b007497980064ac2b0024
:10111000049f9800e4a72b00149f9800340020003f
:1011200074179800410b20008100470004e52b0054
:101130000c000900b4187800d4002000041f9800a7
:10114000e50c20008502470046e92b000b00090052
:10115000b61a7800c4002000141f9800600e20000a
:1011600000004700c1ef2b000c0009003118780087
:10117000d4002000241f980034ad2b0004079900f0
:1011800034ad2b001407990034ad2b0024079900cf
:1011900034ad2b003407990034ad2b00440799007f
:1011a00054002000341f9800a410200004024700bf
:1011b00065f12b000c000900351a7800d4002000de
:1011c000441f98000002eb0034079800c062a8009a
:1011d00063a0a8008660a9009660a800b5368000cc
:1011e00004fe2f0004826200b4368800d0c2a8003a
:1011f000c922a800c902a8002421200044079800a1
:10120000c862a8000002eb0004198800f4fd2f005a
:101210006419880054002000441988000002eb0083
:101220008419880024002000241988000002eb00a3
:101230001419880021e3a800d042a900d242a800d6
:10124000d242a90014002000541f9800140020006e
:10125000641f98000002eb0064408800170a370002
:101260008080eb00100020001b220700f3013700f4
:1012700064408000e00f520041003a002e139000bd
:10128000160798008080eb00100020001222070053
:101290000002eb00240798002b0037002e0290007c
:1012a0000402420004024700c42290002e02900073
:1012b00004024200040247004412b000050a78000c
:1012c0002e029000e40f52000e0034002e02900017
:1012d000e80f52000b003c008000eb002e00900055
:1012e0009a1f07000080eb00161f07002e029000d7
:1012f0000402420004024700241291000400780016
:10130000731e07002e029000e80f52000b003400fd
:101310008000eb002e0090008c1f07000041280089
:10132000081f07002e02900004024200040247003a
:101330002412910004007800651e07002e02900020
:101340000402e80024079800ae0290001e029000fc
:10135000848f5200d1ff35000080eb00f91e07009a
:10136000441220000e0242004100200004007800d8
:10137000f42107000002eb00944588004501370086
:1013800064408000e20f520020003a008080eb00b1
:1013900010002000d02107003e1090001007980098
:1013a0000002eb00240798000c0037002e0290008a
:1013b0000402420004024700c43290002e02900052
:1013c00004024200040247004412b000050a7800fb
:1013d0002e0290000402e80024079800ae0290005c
:1013e0001e029000848f5200f0ff3500441220004e
:1013f0000e0242009e00900004007800d1210700f8
:101400000002eb0094458800220137006440800010
:10141000e40f520020003a008080eb001000200012
:10142000ad210700fe109000110798000002eb00ac
:10143000240798000c0037002e029000040242009e
:1014400004024700f49290002e0290000402420031
:10145000040247004412b000050a78002e029000f2
:101460000402e80024079800ae0290001e029000db
:10147000848f5200f0ff3500441220000e0242001b
:101480009e00900004007800ae2107000002eb00ef
:1014900094458800ff00370064408000e10f52004f
:1014a00020003a008080eb00100020008a21070015
:1014b0004e129000140798000002eb0024079800d9
:1014c0000c0037002e029000040242000402470084
:1014d000a48290002e029000040242000402470001
:1014e0004412b000050a78002e0290000402e800c1
:1014f00024079800ae0290001e029000848f5200d4
:10150000f0ff3500441220000e0242009e009000c1
:10151000040078008b2107000002eb00944588004e
:10152000dc00370064408000e90f520020003a00e0
:101530008080eb0010002000672107008e1a9000c9
:10154000150798000002eb00240798000c003700f4
:101550002e0290000402420004024700a49a900068
:101560002e02900004024200040247004412b00020
:10157000050a78002e0290000402e8002407980073
:10158000ae0290001e029000848f5200f0ff3500e2
:10159000441220000e0242009e00900004007800d9
:1015a000682107000002eb0094458800b90037006d
:1015b00064408000eb0f520022003a008080eb0074
:1015c00010002000442107002e1b900016079800f1
:1015d0000002eb00240798000c0037002e02900058
:1015e0000402420004024700b4b290002e029000b0
:1015f00004024200040247004412b000050a7800c9
:101600002e0290000402e80024079800ae02900029
:101610001e029000848f5200f0ff3500441220001b
:101620000e0242009e009000040078004521070051
:101630009400200074408800140020009445880025
:101640000101370064408000ef0f520022003a0091
:101650008080eb00100020001f2107004e18900032
:10166000100798000002eb00240798000c003700d8
:101670002e0290000402420004024700d4029100ae
:101680002e02900004024200040247004412b000ff
:10169000050a78002e0290000402e8002407980052
:1016a000ae0290001e029000848f5200f0ff3500c1
:1016b000441220000e0242009e00900004007800b8
:1016c00020210700a400200074408800140020009e
:1016d00094458800dc00370064408000e80f520029
:1016e00020003a008080eb0010002000fa20070064
:1016f0009e189000110798000002eb002407980044
:101700000c0037002e029000040242000402470041
:10171000f4a290002e02900004024200040247004e
:101720004412b000050a78002e0290000402e8007e
:1017300024079800ae0290001e029000848f520091
:10174000f0ff3500441220000e0242009e0090007f
:1017500004007800fb2007000002eb00944588009d
:101760004c0037006540800074032000848f5200d5
:1017700006003a008080eb0010002000d620070011
:101780000002eb009445880042003700644080006e
:10179000e30f520006003a008080eb0010002000aa
:1017a000cd2007001400200074408800a6003700f8
:1017b00064408000e70f520006003a008080eb0092
:1017c00010002000c420070024002000744088007e
:1017d0009d00370064408000e50f520006003a008b
:1017e0008080eb0010002000bb20070034002000a8
:1017f000744088009400370064408000ec0f520071
:1018000006003a008080eb0010002000b2200700a4
:1018100074002000744088008b0037006440800012
:10182000ea0f520006003a008080eb001000200012
:10183000a92007005400200074408800820037006f
:1018400064408000ed0f52000300320064408000cd
:10185000e80f520006003a008080eb0010002000e4
:101860009d20070074032000744088007600370034
:1018700064408000ee0f520006003a008080eb00ca
:1018800010002000942007002400200074408800ed
:101890006d00370014002000844588001e1290005f
:1018a0000400780086200700844580008000eb005b
:1018b00004007800251e07008445800004024200d1
:1018c000040247002412910004007800001d070064
:1018d000570037002023a800400620005b1f0700a8
:1018e0002023a900000000000419800061026200aa
:1018f000e00f5200fcff32000418800044079800fb
:10190000ce029000e42e2000848f520004003c00a0
:10191000ce029000940f2000848f520042003c00c1
:1019200040062000561f0700ce029000e42e200043
:10193000848f5200160034000080eb006020070006
:10194000844580008000eb0004007800ff1d070044
:1019500084458000040242000402470024129100e2
:1019600004007800da1c070084458000e00f520074
:1019700004003a001e0290000402e9008445880039
:1019800003003700844580000402e9008445880094
:10199000ce029000940f2000848f520015003c006e
:1019a0000080eb0046200700844580008000eb00ab
:1019b00004007800e51d0700844580000402420011
:1019c000040247002412910004007800c01c0700a4
:1019d000844580000402e800844588008545800035
:1019e00064002000110009008402d8000102780080
:1019f0008445880000802f00312007008445800046
:101a00008000eb0004007800d01d070084458000b2
:101a100004024200040247002412910004007800ee
:101a2000ab1c07000200370040062000141f07000f
:101a300094458000e00f5200a6ff32006e1a90001d
:101a4000e00f52000afe3a0074408000e10f52009d
:101a500067003a000002eb00242799000002eb0027
:101a6000342799000e0278008414b00002000900a7
:101a7000001aeb00005aeb00f41f070000fe2f00d5
:101a80000f2007008000eb0010002000af1d0700b2
:101a9000b0ad2b008e1c07008000eb002000200062
:101aa000aa1d0700a0ae2b00891c070000fe2f0016
:101ab000241d070080022000e41e07008000eb00c8
:101ac000a0002000a11d070070a42b00801c0700af
:101ad0000080eb001b1d07008000eb005000200081
:101ae0009a1d0700cb62a80041e2a800cb62a900c2
:101af0000000eb00220e070000000000270e070088
:101b000000427800e04f5200fcff3200260e070032
:101b10000002780024279900f0002000cb1e070067
:101b20001e0e070000427800e04f520008003a0005
:101b30001d0e070000027800342799003e22910014
:101b4000e10f420002003a000002eb003427990046
:101b5000cb62a80041e2a900a0002000c81e070037
:101b6000000000002e229100e00f520003003a0016
:101b70002e229100e00f5200190032002e22910017
:101b80004422de0024279900ae229100f4ff2000b9
:101b90000482620024279900ae2291008414200060
:101ba0000e024200851f780045a02b00851f78009b
:101bb00004007800a80e0700e48757008000eb00bf
:101bc00050002000611d0700841420000e02420016
:101bd000040078003e1c070020af2b003c1c0700cf
:101be00074408000e10f4200b4073200beff3700ae
:101bf00074408000e20f52003b003a0001fe2f00cb
:101c000010002000b41f0700d242a8008000eb00a3
:101c10000000eb004d1d070060af2b002c1c0700df
:101c20008000eb00c0002000481d070070a42b00be
:101c3000271c07000080eb00c21c07008000eb009f
:101c400050002000411d0700d0b12b00201c0700d0
:101c50000002eb00741f9800a400200054079800b5
:101c60000100370000000000dd0d070000027800d1
:101c7000de029000850f520013003200d80d0700dd
:101c80000002780054079800de029000851f78005b
:101c900044a02b00841f7800808b20006e0e07006c
:101ca000e48757000080eb00a61c0700910020008d
:101cb00050002000251d0700808b2000041c070019
:101cc00020af2b00021c070074408000e10f42008f
:101cd000e4ff3a00d242a900c801a900c881a900c6
:101ce000c1e1a9007507370075408000740320002a
:101cf000848f5200e0003a0001fe2f001000200007
:101d0000751f0700d242a8008000eb000000eb0026
:101d10000e1d070060b22b00ed1b07008000eb00da
:101d2000c0002000091d070070a42b00e81b07005d
:101d30000080eb00831c07008000eb0040002000c7
:101d4000021d0700d0b12b00e11b07008000eb0053
:101d500070002000fd1c070060b42b00dc1b070096
:101d60000002eb0004279800a400200064079800fc
:101d7000c801a900c881a900c1e1a8002023a800ca
:101d800040062000311e07002023a90000000000ab
:101d90000419800061026200e00f5200fcff320073
:101da000041880009440880095408000f41f2000b3
:101db000848f5200050034009440800005402000cc
:101dc000048252005446880002003700944080008c
:101dd0005446880055468000041e2000848f52001f
:101de00004003400041e200054468800010037001f
:101df000000000007a0d070000027800ee0290005b
:101e0000850f520013003200750d070000027800a4
:101e1000640798006e039000861f780044a02b0092
:101e2000841f7800808b20000b0e0700e48757008a
:101e30000080eb00431c07009100200040002000c0
:101e4000c21c0700808b2000a11b070020af2b00c5
:101e50009f1b07002023a80040062000fb1d070051
:101e60002023a90000000000041980006102620024
:101e7000e00f5200fcff3200051880009440800003
:101e800004825200440798004e029000e00f520076
:101e90003700350054468000ce029000848f5200f7
:101ea0000200340050468000400798004e02900027
:101eb000cfa2de000400be00530707000002be00f0
:101ec000d2cc2c00c3cc23000400be005107070075
:101ed0000002be0034468800454688003446800033
:101ee00045468000849fbe00f4b42b00841f780018
:101ef000808b2000d80d0700e687570000402000a7
:101f0000101c070081002000700020008f1c0700bb
:101f1000808b20006e1b070020b52b006c1b070078
:101f200054468000ce029000110009008402d800bf
:101f300000027800cfa2de000400be0032070700d6
:101f40000002be000446880015468800ce029000bc
:101f50008408200004aab900040278000482ea0080
:101f6000b40e8800c801a900c881a8003a00370053
:101f7000544680008402ea004e029000848f520092
:101f800003003500544680004407980003003700e2
:101f90004e0290000402ea00440798004e029000ae
:101fa000cfa2de000400be00170707000002be003b
:101fb000d2cc2c00c3cc23000400be0015070700c0
:101fc0000002be0034468800454688003446800042
:101fd00045468000849fbe0054b52b00841f7800c6
:101fe000808b20009c0d0700e687570000402000f2
:101ff000d41b07008100200070002000531c070044
:10200000808b2000321b070020b52b00301b0700ff
:1020100054468000ce029000110009008402d800ce
:1020200000027800cfa2de000400be00f606070022
:102030000002be000446880015468800ce029000cb
:102040008408200004aab90004027800b40e8800b5
:10205000c801a800c881a90074408000e10f4200b7
:1020600063ff3a00d242a900c801a900c881a900b3
:10207000c1e1a9009106370074408000e30f5200cf
:1020800008013a0001fe2f0010002000921e0700f8
:10209000941680004622de00614262000482fb004a
:1020a00054458800541680004922de0061426200d7
:1020b0000482fb0064458800541680004822de003c
:1020c000614262000482fb00744588005445800030
:1020d00004024200840278006445800004824200c9
:1020e00004024200840278007445800004824200a9
:1020f0000402e900444588004445800034458800d6
:102100000002eb00740798001503800044062000cd
:1021100005027200140388008660a9009660a8007a
:102120008000eb000000eb00081c0700a0a12b00c2
:10213000e71a07008000eb0010002000031c0700d6
:10214000d0a22b00e21a07000080eb007d1b0700e5
:10215000400120004a1d07008000eb0030002000f5
:10216000fa1b0700e0a32b00d91a07005445800092
:10217000841f780044a02b00841f7800808b2000ef
:10218000350d0700e4875700410020003000200093
:10219000ee1b0700808b2000cd1a07008000eb00ab
:1021a00040002000e91b070010a42b00c81a0700fc
:1021b00064458000841f780044a02b00841f7800b1
:1021c000808b2000240d0700e48757004100200089
:1021d00040002000dd1b0700808b2000bc1a070098
:1021e0008000eb0050002000d81b070040a42b000b
:1021f000b71a070074458000841f780044a02b00a4
:10220000841f7800808b2000130d0700e48757009f
:102210004100200050002000cc1b0700808b2000d4
:10222000ab1a070000fe2f00461b070080022000ab
:10223000061d07008000eb00b0002000c31b070054
:1022400070a42b00a21a070054458000e10f520031
:1022500006003a0064458000e10f520003003a0096
:1022600074458000e10f520009003200544580009f
:10227000e00f520016003a0064458000e00f520063
:1022800013003a0074458000e00f520010003a003d
:102290008000eb0030002000ac1b070000802f0006
:1022a000281b070090b52b00891a07002003200087
:1022b000f31c070010b82b00851a0700200320002c
:1022c000ef1c07001400200074079800020037007c
:1022d0000002eb0074079800941680004622de008e
:1022e000614262008482fb0054458000848f52006a
:1022f00011003200941680004622de006142620026
:102300000482fb005445880054458000841f7800f7
:1023100044a02b00841f7800808b2000ce0c070087
:10232000e48757004100200030002000871b070091
:10233000808b2000661a0700541680004922de00b8
:10234000614262008482fb0064458000848f5200f9
:1023500011003200541680004922de006142620002
:102360000482fb006445880064458000841f780077
:1023700044a02b00841f7800808b2000b60c07003f
:10238000e487570041002000400020006f1b070039
:10239000808b20004e1a0700541680004822de0071
:1023a000614262008482fb0074458000848f520089
:1023b00011003200541680004822de0061426200a3
:1023c0000482fb007445880074458000841f7800f7
:1023d00044a02b00841f7800808b20009e0c0700f7
:1023e000e48757004100200050002000571b0700e1
:1023f000808b2000361a070024458000e00f520031
:102400000c003a0000fe2f00ce1a07004001200009
:102410009b1c07008000eb00900020004b1b070076
:102420007e029000e10f520002003200f0b92b0052
:10243000271a070024458000e10f520009003a00e6
:1024400000fe2f00bf1a0700400120008c1c07006f
:102450008000eb00900020003c1b0700b0ba2b006e
:102460001b1a070024458000e20f520009003a00c1
:1024700000fe2f00b31a070040012000801c070057
:102480008000eb0090002000301b0700d0bb2b0029
:102490000f1a070074408000e10f420087053200e8
:1024a0008dff370074408000e50f52009b013a0019
:1024b00001fe2f0010002000871d07008000eb00a8
:1024c00010002000211b0700e0bc2b00001a0700b1
:1024d0008000eb00a00020001c1b070000c02b00a8
:1024e000fb1907002023a80040062000571c070006
:1024f0002023a9000000000004198000610262008e
:10250000e00f5200fcff3200041880009440880065
:1025100095408000f41f2000848f52000500340095
:1025200094408000054020000482520054468800f8
:1025300002003700944080005446880055468000d1
:10254000041e2000848f520002003400041e20006c
:10255000544688001e027800e00f520047003a00ff
:10256000000000008421800068026200e00f520039
:10257000fcff3a00046024008043eb000403780071
:102580008042eb000042eb0012002000030020001c
:1025900031c0b30040812000930b07003064a800d5
:1025a000000000008421800068026200e00f5200f9
:1025b000fcff3a00046024008043eb000403780031
:1025c0008042eb000042eb001200200003002000dc
:1025d00071c0b30040822000830b07003064a80064
:1025e000000000008421800068026200e00f5200b9
:1025f000fcff3a00046024008043eb0004037800f1
:102600008042eb000042eb0012002000030020009b
:1026100081c0b30040832000730b07003064a80022
:10262000000000008421800068026200e00f520078
:10263000fcff3a00046024008043eb0004037800b0
:102640008042eb000042eb0012002000030020005b
:1026500051c0b300c0852000630b07003064a800a0
:10266000000000008421800068026200e00f520038
:10267000fcff3a0014002000040f780004602400de
:102680008043eb00040378008042eb000042eb0043
:10269000120020000300200021c0b300c0842000ed
:1026a000510b07003064a800000000008421800066
:1026b00068026200e00f5200fcff3a002003200095
:1026c000ef1b0700046024008043eb000403780044
:1026d0008042eb000042eb001200200003002000cb
:1026e00021c0b300c08220003f0b07003064a80067
:1026f000000000008421800068026200e00f5200a8
:10270000fcff3a0001003700000000002023a80071
:1027100040062000cd1b07002023a9000000000078
:102720000419800061026200e00f5200fcff3200d9
:1027300005188000944080000482520044079800ed
:102740004e029000e00f52006700350054468000b2
:10275000ce029000848f5200020034005446800064
:10276000440798004e029000cfa2de000400be0095
:10277000250507000002be0002002000031024000f
:102780000400be00230507000002be000404be00d2
:1027900054468000cfa2de000400be001a050700e8
:1027a0000002be000401be000800be004d05070087
:1027b0000002be00044688001546880004468000da
:1027c0001546800002002000831424000400be008f
:1027d000100507000002be000400be0083050700cc
:1027e0000002be00142798008000eb00700020005b
:1027f000561a0700f0012000d2190700e0c02b0094
:10280000331907009e229000851f780044a02b00fa
:10281000841f7800808b20008f0b0700e48757000f
:10282000c100200070002000481a0700808b2000a3
:1028300027190700b0c12b002519070004468000a6
:102840001546800002002f00f35724000400be004c
:10285000f00407000002be00020020000310240064
:102860000400be001f0507000002be000400be00f9
:102870005e0507000002be00242798002e2290006b
:1028800048a2de00044278000440780055e8b70012
:102890002e22900004427800844278004185200076
:1028a00085487800046024008043eb00040378002e
:1028b0008042eb000042eb00f210200003002000f9
:1028c00081c0b30040852000c70a07003064a8001b
:1028d000000000008421800068026200e00f5200c6
:1028e000fcff3a0079003700544680008402ea0079
:1028f0004e029000848f520003003500564680003f
:1029000046079800030037004e0290000402ea00d8
:10291000440798004e029000cfa2de000400be00e3
:10292000b90407000002be000200200003102400ca
:102930000400be00b70407000002be000404be008d
:1029400054468000cfa2de000400be00ae040700a3
:102950000002be000401be000800be00e104070042
:102960000002be0004468800154688000446800028
:102970001546800002002000831424000400be00dd
:10298000a40407000002be000400be0017050700f3
:102990000002be0014279800f0012000691907000a
:1029a0008000eb0070002000e819070000c22b0037
:1029b000c71807001e209000801f780044a02b003d
:1029c000841f7800808b2000230b0700e4875700ca
:1029d000c100200070002000dc190700808b20005f
:1029e000bb180700b0c12b00b918070004468000cf
:1029f0001546800002002f00f35724000400be009b
:102a0000840407000002be0002002000031024001e
:102a10000400be00b30407000002be000401be00b3
:102a200000002f00f1572400110507000002be002e
:102a30000400be00ed0407000002be00040278009e
:102a40008402780014002f0004824200242798009a
:102a50002e22900048a2de000442780084427800d2
:102a60005185200085487800548520001442780064
:102a70000440780055e8b7002e2290000442780008
:102a80008442780041852000854878000460240055
:102a90008043eb00040378008042eb000042eb002f
:102aa000f21020000300200081c0b3004085200008
:102ab0004d0a07003064a800000000008421800057
:102ac00068026200e00f5200fcff3a007440800090
:102ad000e10f42000cff3a00046024008043eb0049
:102ae000040378008042eb000042eb00120020005b
:102af0000300200021c0b300c08420003a0a070070
:102b00003064a80000000000842180006802620098
:102b1000e00f5200fcff3a00e803370074408000e9
:102b2000e90f520001013a002023a80040062000ce
:102b3000c61a07002023a900000000000419800025
:102b400061026200e00f5200fcff320004188000b6
:102b50009440880095408000f41f2000848f52002c
:102b6000050034009440800005402000048252009b
:102b70005446880002003700944080005446880084
:102b800055468000041e2000848f5200020034004d
:102b9000041e2000544688008000eb0090002000b6
:102ba0006a19070000fe2f00e6180700d0c22b00ac
:102bb00047180700810020009000200063190700db
:102bc00000802f00df180700d0c32b00401807003b
:102bd00001003700000000002023a800400620006c
:102be0009a1a07002023a9000000000004198000a1
:102bf00061026200e00f5200fcff32000518800005
:102c0000843e2000848f5200560036003e02900021
:102c10006123b90064002000050020000602420084
:102c200087824a009600200007002000860f52008d
:102c3000878f5a003b003e000460010021003700ee
:102c40003a003700390037002600370037003700d8
:102c50002c003700030037000a003700330037002c
:102c60001000370014002000340798008100200075
:102c7000900020003519070000c42b00141807002d
:102c80002b0037003400200034079800810020001a
:102c9000900020002d19070030c42b000c180700ed
:102ca00023003700640020003407980081002000d2
:102cb000900020002519070060c42b0004180700ad
:102cc0001b003700d4ff2f0034079800810020003c
:102cd000900020001d19070090c42b00fc1707006e
:102ce000130037000082eb003407980081002000b9
:102cf0009000200015190700c0c42b00f41707002e
:102d00000b0037000002eb00340798008100200020
:102d1000900020000d190700d0c32b00ec1707000e
:102d20000300370000000000010037000000000031
:102d30002023a800803e2000441a07002023a90079
:102d4000000000000419800061026200e00f5200e0
:102d5000fcff320005188000843e2000848f520062
:102d6000f3ff3e000518800034062000848f5200d7
:102d700057003e003e0290006123b900340020005d
:102d8000050020000602420087824a0096002000cb
:102d900007002000860f5200878f5a003b003e003c
:102da00004600100290037003a0037002f00370087
:102db000060037000d0037003600370013003700db
:102dc0003400370033003700180037000082eb0072
:102dd000340798008100200090002000db180700d5
:102de000c0c42b00ba1707002b0037000002eb000d
:102df000340798008100200090002000d3180700bd
:102e0000d0c32b00b21707002300370014002000a6
:102e1000340798008100200090002000cb180700a4
:102e200000c42b00aa1707001b0037003400200045
:102e3000340798008100200090002000c31807008c
:102e400030c42b00a217070013003700a4ff2f0087
:102e5000340798008100200090002000bb18070074
:102e6000f0c42b009a1707000b003700d4ff2f0087
:102e7000340798008100200090002000b31807005c
:102e800090c42b00921707000300370000000000d9
:102e900001003700000000002023a800803e200031
:102ea000ea1907002023a90000000000041980008f
:102eb00061026200e00f5200fcff32000518800042
:102ec00034062000848f5200f3ff36000e003700d6
:102ed000803e2000dd1907008100200090002000c6
:102ee0009a1807003e039000861f780044a02b002c
:102ef000841f7800808b2000d7090700e4875700e3
:102f0000808b20007217070074408000e10f4200a0
:102f100030ff3a003e029000e00f5200e7023a0014
:102f20000002eb0064408800e40237007440800037
:102f3000ea0f52005d013a006022b800040f9800c9
:102f4000150f98000e007800f014b000070009007b
:102f50000058eb0074c1b30074cf9a003e02900099
:102f6000e10f520004003a0084c6b30004d79a006f
:102f700014c0b30014d79a003e029000e30f520031
:102f800004003a0084c3b30004d79a0044c0b300dd
:102f900014d79a003e029000e60f520004003a0057
:102fa00004c7b30004d79a0084c0b30014d79a00b2
:102fb0003e029000e10f420004003a0084c9b300d1
:102fc00004d79a00e4cfb30014d79a003e029000d1
:102fd000e30f420004003a0084ccb30004d79a0007
:102fe000b4cfb30014d79a003e029000e60f42001f
:102ff00004003a0004c9b30004d79a0074cfb300a8
:1030000014d79a008000eb00600020004f180700e2
:10301000f0012000cb17070020c52b002c1707005c
:10302000810020006000200048180700be009000ca
:10303000811f780034c62b00841f7800808b20000d
:1030400085090700e4875700808b200020170700c0
:103050008000eb00800020003c18070000802f005b
:10306000b817070070c62b00191707008100200051
:1030700080002000351807000e0a90009e0a90007c
:10308000849fbe0034c62b00841f7800808b2000f4
:1030900071090700e6875700808b20000c17070096
:1030a000000000008421800068026200e00f5200ee
:1030b000fcff3a00046024008043eb000403780026
:1030c0008042eb000042eb001200200003002000d1
:1030d00031c0b30040812000c30807003064a8005d
:1030e000000000008421800068026200e00f5200ae
:1030f000fcff3a00046024008043eb0004037800e6
:103100008042eb000042eb00120020000300200090
:1031100071c0b300c0812000b30807003064a8006c
:10312000000000008421800068026200e00f52006d
:10313000fcff3a00046024008043eb0004037800a5
:103140008042eb000042eb00120020000300200050
:1031500081c0b30040832000a30807003064a800aa
:10316000000000008421800068026200e00f52002d
:10317000fcff3a00046024008043eb000403780065
:103180008042eb000042eb00120020000300200010
:1031900051c0b300c0852000930807003064a80028
:1031a000000000008421800068026200e00f5200ed
:1031b000fcff3a00046024008043eb000403780025
:1031c0008042eb000042eb001200200003002000d0
:1031d00021c0b300c0832000830807003064a8002a
:1031e000000000008421800068026200e00f5200ad
:1031f000fcff3a0001003700000000002023a80077
:1032000040062000111907002023a900000000003b
:103210000419800061026200e00f5200fcff3200de
:1032200005188000843e2000848f52002100360063
:1032300018c0b30002002000031224000e08900002
:103240009e0890006803070000027800e00f52001b
:10325000010035000044eb00e04f5400080032004c
:103260000200200003f023000e0890009e0890004a
:10327000000307000002be00040f9800150f98001d
:103280002023a800803e2000f01807002023a9007a
:10329000000000000419800061026200e00f52008b
:1032a000fcff320005188000843e2000848f52000d
:1032b000f3ff3e000518800034062000848f520082
:1032c00020003e0018c0b3006011b8000e08900046
:1032d0009e0890004603070000027800e00f5200ad
:1032e00001003c000044eb00e04f540008003200b5
:1032f0000200200003f023000e0890009e089000ba
:10330000db0207000002be00040f9800150f9800b2
:103310002023a800803e2000cc1807002023a9000d
:10332000000000000419800061026200e00f5200fa
:10333000fcff32000518800034062000848f520004
:10334000f3ff36000e0a90009e0a9000849fbe0094
:1033500024c72b00841f7800808b2000be08070044
:10336000e6875700810020008000200077170700c3
:10337000808b20005616070002002800a34224007c
:103380000e0890009e089000220207000002be0076
:103390000400be00950207000002be00342798001a
:1033a0003e2290000442780024d79a003e229000ea
:1033b00048a2de00342798003e22900004427800a4
:1033c00034d79a0004602400f01420000e0040005e
:1033d0008043eb00040378008042eb000042eb00e6
:1033e000120020000300200051c0b300fe070700b8
:1033f0003064a800000000008421800068026200a0
:10340000e00f5200fcff3a0074408000e10f4200e0
:1034100079ff3a006022b800040f9800150f980059
:103420000002eb0034079800046024008043eb00a6
:10343000040378008042eb000042eb001200200001
:103440000300200051c0b30040882000e6070700b9
:103450003064a8000000000084218000680262003f
:10346000e00f5200fcff3a00046024008043eb00b0
:10347000040378008042eb000042eb0012002000c1
:103480000300200021c0b300c0842000d60707003d
:103490003064a800000000008421800068026200ff
:1034a000e00f5200fcff3a008401370074408000b6
:1034b000e70f52004e013a00d242a80001fe2f0051
:1034c00010002000841907008000eb00100020008d
:1034d0001e17070090c72b00fd1507008000eb00aa
:1034e0002000200019170700d0c82b00f81507008e
:1034f0008000eb00300020001417070020ca2b00ca
:10350000f31507008000eb00400020000f170700b4
:1035100040cb2b00ee1507008000eb005000200090
:103520000a17070020cc2b00e91507000080eb00ec
:10353000841607008000eb008000200003170700be
:1035400060b42b00e215070000fe2f007d16070077
:103550008000eb00b0002000fc16070000c02b002c
:10356000db1507001000200053180700c801a90050
:10357000c881a900c1e1a80000802f0071160700d2
:103580006022b800344688004546880001003700b4
:10359000000000002023a800400620002b18070090
:1035a0002023a900000000000419800061026200cd
:1035b000e00f5200fcff320004188000440798001e
:1035c000ce029000843e2000848f52007e003400a2
:1035d00034468000454680000200200003f02300ae
:1035e0000400be00230207000002be00344688002b
:1035f00045468800344680004546800018c0b30028
:1036000002002000031424000400be00780207001a
:1036100000027800e00f520001003c000044eb0083
:10362000e04f540004003200040020000514240080
:103630003446880045468800344680004546800070
:10364000849fbe0014cd2b00841f7800808b200047
:1036500001080700e68757000040200039160700e0
:10366000a100200080002000b8160700808b2000f9
:103670009715070060cd2b00951507003446800094
:103680004546800018c0b3006011b8000400be00b9
:103690005702070000027800e00f520001003d00d1
:1036a0000044eb00e04f5400140032003446800028
:1036b0004546800002f02f00f37724000400be008e
:1036c000540107000002be00020020000314240081
:1036d0000400be00830107000002be000400be001b
:1036e000450207000002be0004027800b40e880004
:1036f000c801a800c881a9002c003700344680000a
:103700004546800002f02f00f37724000400be003d
:10371000400107000002be00020020000314240044
:103720000400be006f0107000002be0002f02f007f
:10373000f37724000400be00ce0107000002be00a3
:103740000400be002c0207000002be000402780044
:10375000b40e8800c801a900c881a8001300370072
:103760002023a80040062000b81707002023a90046
:10377000000000000419800061026200e00f5200a6
:10378000fcff320004188000440798007440800059
:10379000e10f420005003a00d242a900c801a90089
:1037a000c881a900c1e1a90007003700ce0290003e
:1037b00084252000848f5200e9ff3c007440800083
:1037c000e10f4200e6ff3200ce02900034062000f6
:1037d000848f52007e003c003446800045468000c5
:1037e0000200200003f023000400be00a001070037
:1037f0000002be00344688004546880034468000fa
:103800004546800018c0b3000200200003142c00bd
:103810000400be00f401070000027800e00f52002f
:10382000010035000044eb00e04f5400040032007a
:103830000400200005142c0034468800454688000a
:103840003446800045468000849fbe0024ce2b0075
:10385000841f7800808b20007f070700e6875700d1
:1038600000402000b7150700a100200080002000c4
:1038700036160700808b20001515070080ce2b0020
:1038800013150700344680004546800018c0b30079
:103890006011b8000400be00d501070000027800e6
:1038a000e00f520001003d000044eb00e04f5400e7
:1038b00014003200344680004546800002f02f009c
:1038c000f37724000400be00d20007000002be000f
:1038d00002002000031424000400be0001010700c0
:1038e0000002be000400be00c30107000002be00cb
:1038f00004027800b40e8800c801a800c881a9009d
:103900002c003700344680004546800002f02f002e
:10391000f37724000400be00be0007000002be00d2
:1039200002002000031424000400be00ed00070084
:103930000002be0002f02f00f37724000400be0056
:103940004c0107000002be000400be00aa010700ef
:103950000002be0004027800b40e8800c801a9006d
:10396000c881a800130037002023a80040062000cb
:10397000361707002023a90000000000041980006a
:1039800061026200e00f5200fcff32000418800068
:103990004407980074408000e10f420005003a009f
:1039a000d242a900c801a900c881a900c1e1a900ab
:1039b00007003700ce029000f4182000848f5200d8
:1039c000e9ff340074408000e10f4200e6ff32005e
:1039d00074408000e10f4200edfe3a00d242a9009f
:1039e000c801a900c881a900c1e1a90033003700be
:1039f00074408000e80f520030003a0001fe2f00b2
:103a000010002000341807008000eb000000eb00dd
:103a1000ce15070020cf2b00ad1407008000eb006f
:103a2000c0002000c915070070a42b00a8140700cf
:103a30000080eb00431507008000eb0060002000d1
:103a4000c2150700d0b12b00a1140700a40020006c
:103a5000240f9800010037000000000060060700f6
:103a600000027800ae0a9000850f52000f0032006d
:103a70005b06070000027800240f980081002000f8
:103a800060002000b11507002e0a9000841f780006
:103a900044a02b00841f7800808b2000ee060700d6
:103aa000e487570020af2b00891407007440800082
:103ab000e10f4200e8ff3a00000000005e1a9000ab
:103ac000e00f5200e6f53a00040078004f04be0013
:103ad0000080fa00000006000000fa008020a90023
:103ae000ffff37000000fa008060a900ffff3700e9
:103af0000000fa008040a900ffff37000000fa0034
:103b00008080a900ffff37000000fa008020a90094
:103b1000ffff37000000fa008060a900ffff3700b8
:103b20000000fa008040a900ffff37000000fa0003
:103b30008080a900ffff37000040da000000fe008f
:103b400000c0da00000006000a00fa00e20f500090
:103b500022003e00b42f8200e10f52000600320026
:103b60008723200046232000242320000523200053
:103b7000e08f530004003a008722200046222000f4
:103b800024222000052220000000280015006000eb
:103b900003003a00800b780007002800958a730024
:103ba000054020009482620001003a0014a0a000a9
:103bb0008202780006003700940378000710b200f4
:103bc000fdff3200b103fb00070b78008502e9001e
:103bd000e08f5200f8ff3a00080037003400200060
:103be000c0bf9f00e2bf9f00b4bf9f00d1bf9f0036
:103bf0006a805700d2ff07006fb997000200780073
:103c00000080fa00000006004f89de008201780083
:103c100014013700889fbe008a9fbe008c1f780069
:103c2000200107002701330003866c006450e10087
:103c3000240032006420e100270032006150e100de
:103c4000220032006120e100210032008b85420019
:103c5000eb07b1000134b800003ab8000804420094
:103c600089844a00013ab8000030b80088804000da
:103c700009014a0004003300000040008180480030
:103c8000020149008b05e900c909dd0083017000cc
:103c90000100320013002000c814de004814dd00cb
:103ca0004709de001200b200c808de000884700078
:103cb0001401070001f0a1000cf0a70001f0a00022
:103cc000090137006120e1000b0132000801be004c
:103cd0000200be00f7ff37006150e100fcff3a0030
:103ce00005013700889fbe008a9fbe008c1f7800a8
:103cf000ec000700f300330003866c006450e10021
:103d00002e0032006420e100330032006150e100f7
:103d10002f0032006120e10031003200858555001e
:103d2000eb07b00009002000080420000500370060
:103d30000804440089844c000a0031000603430053
:103d400087834b000001530081815b00f8ff330043
:103d50000203be000800a0000804440089844c004f
:103d6000f6ff3900c639dd0083017300010032001f
:103d7000130020008904d1000884d3000998a3000f
:103d8000050032000800a7000300a0008904d1004c
:103d90000884d3008b05e8008904d1000884d3008f
:103da0000001eb000281d200d600070001f0a10063
:103db0000cf0a70001f0a000cb0037006420e10068
:103dc000cd0032000801be000200be00f7ff370040
:103dd0006120e100c80032006000b800f3ff370046
:103de0000000200001f82700f0ff37000001be00ae
:103df000ea0007000470a70003f0a1006509b10004
:103e0000160032000d0035006828e100060035007c
:103e1000f0ff2f00f1ff27000300e00013003b003c
:103e200001002800000005000000400081804800db
:103e30008502e900fcff3a0008003700f88f4200d5
:103e400002003c008000eb00000005008100d10072
:103e50000080d3008502e800fcff3a000300e00088
:103e600002003b0060001000e08018000000060027
:103e700003f0a200889fbe008a9fbe008c1f7800be
:103e8000880007008f0033006450e1004f003200cb
:103e90006420e1005200320003826c0007003b0006
:103ea0000905d0000306d000820f54000c065d0007
:103eb0000200390002003200890178000306780010
:103ec0008582550004003d000003fd008103fd00d4
:103ed0008502ea008b854200840f720002003b00dd
:103ee00060001000e08018006011b8000005eb00d1
:103ef0007a28e1000a00390006007800c75ddd007d
:103f0000f707b200878075002d00370082817100ad
:103f10000a017800610560008180d1000080d30033
:103f20008502e900f9ff3b00060440008784480051
:103f300002003b0060041400e0841c000988a30018
:103f4000070032008a817100828171006101640082
:103f50008904d1000884d3008b05e80017003700de
:103f60000978a30013003a000b00e00013003400ae
:103f70008b05e9000804440089844c000a4474005d
:103f80000978a3000d003a000b00e00007003400a0
:103f90008b05e9000804440089844c0001003a00c4
:103fa0000b0020000978a300f7ff32000001eb00ae
:103fb00002003700828171000a0178005100070079
:103fc0000cf0a70001f0a000470037006420e100da
:103fd00002003a00838f6c00470033000801be00e6
:103fe0000200be00400037001400200080003700af
:103ff000f4ff2f007e0037000001be0067000700bd
:104000000470a70003f0a10003f8a30013003a0016
:104010006509b10010003200090035006928e1008f
:1040200002003500010028000000050000004000eb
:10403000818048008502e900fcff3a00000006008c
:10404000f88f4200050035008100d1000080d300c8
:104050008502e800fcff3a00000006008000eb004b
:1040600000000500881f7800030478000300e000ca
:1040700007003d0060001000e0801800600119009a
:10408000e081190002003b0001f02d000300370021
:104090007200070008f0a70001f0a0004f047800ac
:1040a000000006000004be003c0007000003be0044
:1040b0000405be000200be0038000700844f7500f2
:1040c000000006000200be006450e100050036005a
:1040d0006420e100020036000968a30001003a00f4
:1040e0000800be000160a0004f0678004f05be002a
:1040f0004f04be0000000600f0ff2f00f1ff270074
:10410000f9ff370081002000618055000b003d0061
:104110000b00200061fe2f000100e1001d003400b3
:1041200082817100610164008904d1000884d30098
:104130000000e800faff3a0071002000610064000e
:1041400003007000020060000900320061044400b6
:10415000e0844c000988a500050032008b05e800ca
:104160006808e10002003a008904d1000884d30005
:10417000f20f20000258e10005003d00c75ddd00a0
:10418000f907b20089807500080078000000060079
:104190000bf827008b00780000000500c70ade003e
:1041a000f107b200f50fb20008003200e1cf420083
:1041b000020032000170a00024000500810f700091
:1041c000010032000408050044000500810f700062
:1041d00002003a00140005008502e90000004000da
:1041e00081c04800fcff3b000170a00024000500d6
:1041f000889fbe008a9fbe00841f7800a9ff070029
:104200004f00780011003300f0ff2f00838f6c0007
:1042100006003b00040565000a00a70008003700ff
:1042200009f0a6001000200008003700820f54009b
:10423000838f5c00030039001000200001003e0065
:104240000000200009f0a7000000ea004f05be00b2
:104250004f04be000000e00000000600889fbe0082
:104260008a9fbe0000827000040271000482710007
:10427000260032000004be000200be006011b8003b
:104280006b092000950220000182cf000a0039004e
:104290000541b1000082cf00070039000541b1009f
:1042a0000982cf00040039000541b1000882cf0027
:1042b000010039000541b1000542520012003200f0
:1042c0000a003b0082817100610164008100d1001d
:1042d0000080d3008984d3000884d3008b05e800d4
:1042e0000442e800f7ff3a000700370008044400e2
:1042f00089844c0000004800818048008b05e9005b
:104300000442e900f9ff3a007eff07004f05be00b6
:104310004f04be0000000600889fbe008a9fbe00ba
:104320003004be002005be000404440085844c0017
:1043300006054d0087854d000898be000a90be0016
:104340000440e10005c8e10006d0e10007d8e10023
:1043500002003100680040001008e8004f05be0070
:104360004f04be00000006001000fa00889fbe0047
:104370008a9fbe00110020000605be000404be0096
:104380003002be002003be00c4b79f00d5b79f0017
:10439000e6b79f00f7b79f000802520089825a00d3
:1043a0000a035b008b835b0084bf9f0095bf9f0067
:1043b000a6bf9f00b7bf9f000498be000698be002e
:1043c0004fb29700dfb297006fb39700ffb397002b
:1043d000b0000700010039008000eb004f05be006f
:1043e000108810004f04be000080fa000000060094
:1043f0001400fa00889fbe008a9fbe008c9fbe00fa
:104400000006eb0079000700ccb79f00bcb79f0007
:10441000acb79f009cb79f008cb79f000605be00fd
:104420000404be000d0420004fb39700bfb29700f4
:10443000860343002fb29700e00f530004003d00b5
:10444000990007000f004000b3ff0700030037008a
:10445000950007000f004000c3ff0700cfb2970090
:1044600095bf9f00e08f52000900350066000700ed
:1044700014002000050020006033b8000000720026
:10448000818072000201730083817300570007006e
:104490000c06e8008d0f5600e3ff3a001fba9700a4
:1044a000e00f520005003d000802be000a03be00f6
:1044b00000fe2f000f00400097ff07004faa970053
:1044c000e00f520008003a000fb497009fb4970025
:1044d0002fb59700bfb59700d8b79f00e9b79f00e9
:1044e000fab79f008bbf9f00470007004f06be0032
:1044f0004f05be004f04be000080fa000000060019
:10450000881f780018002000881f7800b8ff070077
:104510008f87e9004f04780000000600801feb0041
:10452000b3ff07008f87e90000000600889fbe00e8
:104530008a9fbe004100070008003d007a00070086
:1045400043000700180020004600070008003d0057
:104550002f0007000004eb00050037000004eb000b
:104560004000070002003d0029000700180020005d
:10457000e3ff0700e00f5400010032003e00070097
:104580004f05be004f04be0000000600889fbe001d
:104590008a9fbe008c1f78002800070006003d009f
:1045a000610007001c0020002900070039000700f7
:1045b00006003d00040037000006eb00290007005c
:1045c00002003d005800070012000700d3ff07005b
:1045d000e00f560001003200270007004f06780068
:1045e0004f05be004f04be0000000600010007009a
:1045f0000000060090b79f00a1b79f00b2b79f00d0
:10460000c3b79f0000000600070007000000060077
:10461000450007000402540085825c0006035d002b
:1046200087835d00000006001fb09700afb09700c1
:104630003fb19700cfb1970000000600e00f500097
:10464000e08f5800e00f5900e08f5900000006008d
:104650000000540081805c0002015d0083815d00e8
:1046600000000600e00f5200e08f5a00e00f5b00f0
:10467000e08f5b00000006006022b8006033b800e5
:104680000000520081805a0002015b0083815b00c0
:10469000000006000820e10009a8e1000ab0e100de
:1046a0000bb8e100000006004f2bde00deff070024
:1046b00086837300858242004f23de00a7b79f00e8
:1046c000868272000402420095b79f00ffaa9700fd
:1046d0004f2bde00858242000602720084b79f00e5
:1046e0006faa97004f23de00040242008682720008
:1046f000f5af9f004f18de0000027200caff0700ee
:10470000e4af9f00000040008180480002014900a2
:10471000838149000802be000a03be00b5ff0700fe
:1047200000fe2f00000006006044b8006055b8008d
:1047300000000600889fbe008a9fbe008c1f780084
:104740000006eb00e00f5000e08f5800e00f59002a
:10475000e08f590007003d006044b8006055b80084
:104760001c0020000000540081805c0002015d00fc
:1047700083815d00e00f5200e08f5a00e00f5b0084
:10478000e08f5b0007003d006044b8006055b80052
:104790000c00a2000402540085825c0006035d0048
:1047a00087835d0017020700e00f56000600320005
:1047b0006022b8006033b8000000520081805a00c7
:1047c00002015b0083815b004f0678004f05be004d
:1047d0004f04be00000006006022b8000602200060
:1047e0000000d0008180d2000482d2008582d200f5
:1047f0000000a0000202520083825a000300310030
:104800000202420083824a000000a1000603e90080
:10481000f3ff3a0000000600020ab900001bb900cd
:104820000200b80081004200810043000000060041
:104830002800fa00889fbe008a9fbe008c9fbe00a1
:1048400003866b00110207000028a30064003a00f1
:104850000128a30067003a000008a30062003a00a4
:104860000108a30065003a001e009000be089000f9
:1048700081064000ed3fb100f4805700ee0190004a
:10488000111ab8008e099000311bb8009e099000e3
:10489000311cb800511db800f485570046000700d0
:1048a000fe0190003a0007008b85e8003e000700fb
:1048b0008e09900040000700ee01900034000700d0
:1048c0008b85e800380007008e0990004000070043
:1048d0009e0990001b18b800890440000a85480012
:1048e000fe019000340007008b85e80038000700c7
:1048f000ee019000300007008e0990001b18b800f0
:10490000890440000a8548000a98a30008003a007c
:104910000402420085824a0006034b0087834b0055
:1049200008044c0089844c000a054d008d06e900fe
:1049300084827200850273004c3add0085027200a9
:104940000100320015002000443ade001400b200dd
:104950004538de00cb45dd000b007000c540de00b1
:10496000cb4ddd008b8070004549de00cb55dd006e
:104970000b017100c551de000d037800dc0107005a
:1049800003f0a1000cf0a70003f0a000d301370052
:104990001b18b8008502400006834800e0834b00e6
:1049a00060044c00070037001b18b80006034000e5
:1049b00087834800faff37001b18b80087034000c0
:1049c00008844800e0844c0060054d0000000600ab
:1049d0001b18b8000804400089844800faff37001b
:1049e0000108a300ba013a005800be005801be00f9
:1049f000e3ff37000008a300b5013a00090478007e
:104a0000f9ff370081037800e4fd07000001be00d4
:104a10006000b8000478a30013003a006220e100af
:104a200015003e000d0039008301d1000281d30042
:104a30008180d3008301d1000281d3008180d30023
:104a40008301d1000281d3008180d3000538b000fa
:104a5000c42add00f300b2008381720007f0a700d2
:104a600003f0a00000000600f3ff2700f2ff2f0074
:104a70006110b900fbff370003ff2700f7ff370085
:104a80008f1fd100c60107008f87e9000000e000fa
:104a900000000600801feb00c10107008f87e900be
:104aa0000000e000000006001400fa00889fbe002d
:104ab0008a9fbe008c9fbe00040678000004be00e2
:104ac0000205be00680047000a90be000890be00c4
:104ad000dc0107006200e1000800be000a01be0020
:104ae000040020000b003a001e029000e43fb100d9
:104af0006e009000fe0090000e0990009e0990004c
:104b0000f300b20005fe2300858171000bf0a700c1
:104b100003f0a000040e780070013700809feb00c6
:104b20009f0107008f87e9000000e00000000600f9
:104b30002800fa00889fbe008a9fbe008c9fbe009e
:104b400007067800878669000c003b0003047800a4
:104b50008704780008f0a10009f0a100840f50003c
:104b6000858f5800860f5900890f5c0003003300c1
:104b70000cf0a20001003a000cf0a1004301070074
:104b80006400e1005f003200780147006408e10042
:104b9000610032006c014700748557003200be008e
:104ba0001201be003a04be001a05be001e039000aa
:104bb000be0a90008503530006003d000004fd007e
:104bc0008104fd000205fd008305fd008703ea0066
:104bd000050378000df8a3000400320060041400ff
:104be000e0841c0060051d00e0851d006022b80007
:104bf0007d0320000d38e1008006eb000b0039003a
:104c00004433dd00f300b200830173003900370044
:104c1000848272000d027800e10664008b85d10069
:104c20000a85d3008984d3000884d3008703e90070
:104c3000f7ff3b0008004000898048000a01490056
:104c40008b81490004003b0060001000e0801800e8
:104c500060011900e08119000358a3000900320027
:104c60008d82720084827200610260008301d10033
:104c70000281d3008180d3000080d3000603e800c6
:104c80001b0037000348a30017003a000600e000ad
:104c9000170034000603e9000d00a30000004800df
:104ca0008180480002014900838149000348a30034
:104cb0000f003a000600e000090034000603e90096
:104cc00000004000818048000201490083814900c2
:104cd00001003a000003eb000348a300f5ff320097
:104ce0006022b80002003700848272006182660090
:104cf000ff00070003f0a1000cf0a70003f0a000e4
:104d0000f6003700640147006408e10002003a0041
:104d10000df8a300ee003a003200be001201be0002
:104d2000ee0037001400fa00889fbe008a9fbe0084
:104d30008c9fbe000004be000205be006800470054
:104d40000a90be000890be003e0107000070a70058
:104d50000bf0a1000bf8a30020003a009e09900080
:104d60000e099000fe0090006e0090009e029000e0
:104d70003443200084825200d80032000a003c00f4
:104d8000b4fc2f000428e100140034008301d1009a
:104d90000281d3008180d3000080d3008502e80027
:104da000faff3a00cd003700b40020000428e100eb
:104db00007003c00000040008180480002014900db
:104dc000838149008502e900faff3a00c3003700f9
:104dd0000300280002002000010037006011b80025
:104de0006000b800bd0037002800fa00889fbe00b0
:104df0008a9fbe008c9fbe0003866b00a300070045
:104e00006400e100440032006408e1004a0032001e
:104e10006100e100460032006108e1004900320013
:104e2000ec0647006000b8003d02be003d03be0036
:104e3000f48657006011b8003d04be003d05be0079
:104e40007d0320000b0037000000a0008d06e90064
:104e5000130032000402420085824a0006034b0020
:104e600087834b0000004000818048000201490018
:104e7000838149000802520089825a000a035b00bc
:104e80008b835b00f0ff3b000802420089824a00ee
:104e90000a034b008b834b008d06e900edff3a00bf
:104ea0008482720086827200f707b20087827200e5
:104eb00001003200150020001e0490003e0b9000ff
:104ec00006035400e63fb0000368a3000700320069
:104ed0000000a7000500a0008301d1000281d300db
:104ee0008180d3000080d3000603e8008301d10055
:104ef0000281d3008180d3000080d3000002eb0048
:104f00000482d2007a00070003f0a1000cf0a70091
:104f100003f0a00071003700640247006408e1005c
:104f20006b0032003400be003401be00f6ff3700d3
:104f30006108e100660032006011b8006000b8004e
:104f4000f1ff370003ff270002002000fbff3700be
:104f5000889fbe000082700004027100048271000c
:104f60002400320036432000c50020008383cf0098
:104f70000a0039000541b1008283cf0007003900e3
:104f80000541b1008183cf00040039000541b10023
:104f90008083cf00010039000541b10085c3530073
:104fa0006022b800120032000a003b0084827200c6
:104fb000610260008301d1000281d3008180d300af
:104fc0000080d3000603e8008743e800f7ff3a00bb
:104fd00007003700000040008180480002014900be
:104fe000838149000603e9008743e900f9ff3a009d
:104ff0003f0007004f04be000000060007f0a200bb
:10500000cbfe3700889fbe008a9fbe008c9fbe00eb
:105010000404b8000506b8008904460060854e0007
:105020000606b8000a054600e0854e000706b800ef
:105030008b054600040eb800890446000a854e0020
:10504000e0854d00050eb8000a0546008b854e0030
:10505000060eb8008b0546000416b8000a05460087
:105060008b854e000516b8008b054600041eb8005f
:105070008b0546000800be000a01be004f06be00b8
:105080004f05be004f04be00000006006804470044
:105090000294be000094be00fc0447008694be004b
:1050a0008494be00090078006600070008007800bc
:1050b0006400070099007800814f70000b003b00ee
:1050c0000800be00860007004f00b1000300370053
:1050d000f3ff2700f2ff2f006110b9004f06be005a
:1050e0004f05be004f04be000080fa00000006001d
:1050f0001800200057002000080453000d003d0058
:105100000600200097fc2f000740e1001e0034003d
:1051100084827200610260008301d1000281d300a9
:105120008180d3000080d3000804e800f8ff3a0033
:10513000470020006104600005047400040464005a
:105140000d00320061004000e0804800600149002d
:10515000e081490003b8a500070032000603e8001b
:105160006538e10004003a008301d1000281d300d8
:105170008180d3000080d300f87f20000830e10058
:1051800003003500080378006000b8006011b80023
:105190004433dd00f300b200830173000000060019
:1051a000889fbe008a9fbe008c9fbe000404be0084
:1051b0000605be00809fbe00829fbe00560007000d
:1051c000040678000800be000a01be005200070075
:1051d000840678004f03be004f02be008d4f76005c
:1051e0007fb0970013003300f0ff2f008b8f6b0010
:1051f00006003b000d0666000c00a7000a00370001
:1052000007f0a600100020000a003700880f5200a7
:10521000898f5a008a0f5b008b8f5b000300390077
:105220001000200001003e000000200007f0a70051
:105230000000ea004f06be004f05be004f04be004e
:1052400000000600800078005002be005003be003f
:105250004439de00f700b200f37f20000301610053
:10526000090032000218e10016003a0085017200c0
:1052700083017300838173000008200015003a0049
:105280004000200013003700850172008301730085
:105290008381730005003a0004a8be0006a8be0082
:1052a000100020000b0037000201e9000402420058
:1052b00085824a0006034b0087834b000748a30002
:1052c000f9ff32000740a00004a8be0006a8be00f7
:1052d0002000200080009800920098000000060046
:1052e000e48240001078a30007003200640240000e
:1052f0001178a3003400be001401be000400320087
:105300000330a700000006003500be001501be00f6
:105310000330a0000000060005ff270005826100a1
:10532000070032000428e1000100320024000500db
:105330000600070001003a004400050004080500cb
:1053400002000700f9ff3a00140005006f826100b7
:105350008102700085027100850272000000060063
:10536000111c8800221c8800331c8800441c880003
:10537000551c8800001c880081e3a800000006007e
:1053800004402000151280000502620001003a006e
:10539000f00fb200401288000000060000128000ea
:1053a0006140600000000600041280000080eb00f5
:1053b000610262000900320040c2a90004402000de
:1053c00015128000050262000200320040128000c7
:1053d0000000060040128000f00fb200000006003e
:1053e000200f800000000600889fbe008582fb0021
:1053f0008a9fbe00e04f520004003200f97f200077
:10540000e14f520014003a000300370005824200c9
:10541000f97f200011003700421dde000b00200044
:105420000a826400c61dde004a1cdd004615de004f
:105430000a0574004222dd00f8ff20008184fb0091
:105440004a11dd000911b3003400b30008046500ff
:1054500009017100060037000582420002816400e4
:105460004211dd00040271000181fb000240a00036
:10547000040b7800c92add0018039800028172002d
:105480000002780022039800660343000100370001
:10549000345b78008042520081cf5200fcff39001b
:1054a0000782fb0005002000e70f5200e08f5a0042
:1054b00017003e00046001001500370006003700a9
:1054c0000700370008003700090037000a003700de
:1054d0000b0037000c0037003164a8000d003700c6
:1054e0003264a8000b0037003364a80009003700bd
:1054f0003464a800070037003564a80005003700b1
:105500003664a800030037003764a80001003700a4
:105510003064a8004f05be004f04be000000060026
:10552000001020002202b6000000e9004f00de005b
:105530000000060021e2a9009560a9009580a9005d
:105540008560a9008580a90000000600421188003e
:105550000011880011118800000006008b40a9008e
:1055600067026000f58f2f004822dd0006068000ec
:105570008682620068006000850272004300de00df
:105580000506880061006000f4bf2f004a00dd00be
:10559000d50480000502620004027000d404880073
:1055a00000000600e1e1a900f4ff2200840260008f
:1055b000050f88000480200004006000f47f2f00a5
:1055c000050f80000502620004027000040f8800cd
:1055d000110f8800000006000411800066026200be
:1055e000e60f520002003a00301180000000060071
:1055f00030118000f00fb200000006001011800092
:105600006140600000000600002088001120880032
:10561000000006000a24ef00678260008860a9008d
:105620004c22dd0060208800f5ff2800e880600043
:10563000a6058000868262008502720074ff2f003a
:10564000a5058800c5048000050262000482700080
:10565000c4048800000006000c00fa00889fbe0009
:10566000f4ff270000047800d4bf9f008004eb0003
:1056700088bf9f0099bf9f00a8bf9f00240c2000f7
:1056800078815700b4bf9f00cfb09700708057005b
:10569000d10007000fba9700094a78000fba9700a7
:1056a000080052004f04be000080fa00000006000f
:1056b000000278008042eb00b4cf1200fdff3a00f8
:1056c0000080ea00000042000000060000027800ae
:1056d000b1427800055a7800e0cf5200fcff3a0052
:1056e00000000600d4c6b3000800fa00889fbe0080
:1056f0000084fb008a9fbe00844f500034003600b7
:10570000699820004b062000110009000b84d80086
:10571000720040004300dd000080440081057800f5
:105720006022b8000600200007fe2300aa00200027
:105730005001be004000be003dfc07000002be005c
:10574000110009008a85d80080057800e9854500a8
:10575000c35ddd008b8544000203be0084bf9f0053
:1057600095bf9f00a6bf9f00b7bf9f003b02be0032
:105770002b03be000fb897009fb897002fb9970072
:10578000bfb997002afc07000002be001100090003
:105790000a84d800010478004344dd008884440072
:1057a0000203be0084bf9f0095bf9f00a6bf9f005d
:1057b000b7bf9f003902be002903be000fb8970093
:1057c0009fb897002fb99700bfb997001d00370009
:1057d000ea4f500013003600aa002000699820000c
:1057e000110009000a84d80001057800690440000e
:1057f0004355dd004344dd00088444008a844400ae
:105800006022b8000600200007fe23003800be001a
:105810002801be0006fc07003902be002903be00b5
:1058200008003700649820004344dd00080442006b
:105830006022b8000600200007fe23003800be00ea
:105840002801be00fafb07004f05be004f04be0052
:105850000080fa0000000600d4c6b3000800fa0079
:10586000889fbe008a9fbe00e04f500022003d008e
:105870000040ea000004fb00844f50000a0034009e
:1058800044062000a9002000110009000404d800eb
:105890006a982000110009008900d800e900400042
:1058a000c308dd0020003700ea4f50000f0034002d
:1058b000a4002000110009000404d800649820000e
:1058c000690040004300dd0000004200430cdd00a1
:1058d000080242005001be004000be005403be005a
:1058e0004402be00d2fb0700370037004344dd000e
:1058f00064982000310037000004fb00844f500002
:105900002300340044062000a900200011000900f3
:105910000404d8006a8d2000110009008900d80015
:10592000e9004000c308dd00810045008b0920002c
:105930008a8545003102be002103be003b00be0047
:105940002b01be00bafb07000002be0011000900d7
:105950000904d800010478004344dd00080545002f
:105960000203be0084bf9f0095bf9f00a6bf9f009b
:10597000b7bf9f003a02be002a03be000fb89700cf
:105980009fb897002fb99700bfb99700d5ff370090
:10599000ea4f500007003400a40020001100090065
:1059a0000404d800648d2000690040004300dd003d
:1059b000c5ff37004344dd00648d20000804420029
:1059c0003800be002801be004f05be004f04be00d7
:1059d0000080fa0000000600ef05b000889fbe00be
:1059e0008a9fbe008c9fbe00000678008e1f780044
:1059f0000007eb00e19f9f0082af9f006000b800ae
:105a00006011b80080a79f0091a79f00a2a79f00e8
:105a1000b3a79f00d9053700ef98970054c2b30091
:105a20008100e800e19f9f00844f500006003a008b
:105a3000810278008006eb0007c3b30000c2b30008
:105a4000b1c2b3000e0037003c0290000404b20063
:105a5000040032001c027800004a7800040ee800be
:105a6000050037000000fb008c007800cf05070020
:105a7000e10f4000c10532000e07e800bf05370006
:105a800005037800d2c2b30035427800824f52003d
:105a90000900320005003c00804f5200080032002f
:105aa000814f52000c003a0007003700874f520028
:105ab00009003a00060037000d30a000f0ff370063
:105ac0000d00a000eeff37000d10a000ecff370026
:105ad0000d20a000eaff3700e282660001003200dc
:105ae0000d00a100e8826600010032000d20a10037
:105af0008402fb000503b100e98f52000d003e0057
:105b0000860278008003eb003502fb006a3bb90097
:105b10000403b100860342001502fb000503780070
:105b20000403b100e90f5200f7ff360097b79f005a
:105b30000a0037008002eb0095b79f00a5c2b300b2
:105b4000854f520005003a008fab97000603e8002e
:105b50004700780087af9f0090b79f00e4c2b30072
:105b6000964f120017003a000de0a0006442520068
:105b7000d64f120003003200060278008003eb00cb
:105b8000090037000fa997000603e800c20178005a
:105b900082af9f00d3af9f00c7c6b3000d00370090
:105ba0006a3bb9008683420004037800b402fb001c
:105bb0000503b100e98f5200f9ff3600d7af9f000f
:105bc000f5ff37000002eb000dc0a000d4af9f002e
:105bd000f1ff37008602780035427800050378002f
:105be000874f52002d003200e59f9f00c5c6b300cd
:105bf000854f520014003c00e8c25200854f52000d
:105c00002400320009003c00ecc25200854f5200d3
:105c10002e003200ebc24200854f52009a00320043
:105c2000e04f52005a053200b800370065c6b30095
:105c3000854f52001f003200e3c24200854f5200e0
:105c4000b2003a001300370035c7b300854f520049
:105c50002200320007003c00e4c25200854f52008f
:105c6000170032008542e800854f5200a7003a0035
:105c70001600370055c7b300854f5200a800320008
:105c8000e3c24200854f5200a0003a00e4579f0053
:105c900010003700e4579f00a3003700f082660031
:105ca0000401200001003200040028008d0672006b
:105cb000c8ff3700e4579f000da0a0009a003700ee
:105cc000e4579f000d60a00097003700e4579f0045
:105cd0000d50a0000d70a000930037008faa970010
:105ce000e4579f004502780085af9f0004047800c8
:105cf000e00f520001003a0088af200088027800cf
:105d00000002eb00010037000402e80065437a005e
:105d1000e04f5300fcff3a00840478005fab97002b
:105d2000e00f530003003200890f530001003100df
:105d3000860478000002eb009fb39700898f530020
:105d40000100360009825300e8866600ddaf9f003f
:105d50000d007800e00f50002c003a008406780017
:105d600004c2b30010003700bc0290000504b2006a
:105d7000040032009c027800844a7800050ee80096
:105d80000700370084bf9f008c00780000022000cd
:105d9000060507000fba9700e10f4000010032002e
:105da0000e07e8008d06e900e08f5600eeff3a008e
:105db0000082eb00150037003c0290000404b200a2
:105dc00009003200080278001c037800b442780011
:105dd000054b780004047800060ee800e0cf52007e
:105de00008003a000a003700080278008c007800aa
:105df0003400fb0004047800ec040700e10f4000cd
:105e0000030032000e07e800010037008406780026
:105e1000090278008404e900e00f5200e6ff3a002e
:105e20000d027800dfa89700e08f5000d304320005
:105e30008406780004c2b30010003700bc02900052
:105e40000504b200040032009c027800844a780005
:105e5000050ee8000700370084bf9f008c00780023
:105e600000022000d10407000fba9700e10f4000a4
:105e7000010032000e07e8008d06e900e08f5600b1
:105e8000eeff3a00bd0437000fa99700f0826600cc
:105e90004202780082af9f0004007800cf80de00cd
:105ea000010178008201780090af9f00a1af9f00b0
:105eb000b2af9f00c3af9f004800de00480add007c
:105ec00000007200e0579f00e08f5200090032008e
