:0400000080313328F0
:10000800803120007F08F700111C1128BE01BE0AAC
:10001800F0309700A23096001110111F30282100EF
:100028001B08F0000630F036890B17287008F1001D
:10003800F2011C08F300F401F335F40DF335F40D67
:1000480071087307F5007208743DF6007508200002
:10005800BA007608BB0011137708FF000900813148
:10006800BD2920003B08803AB7002108803A3702B2
:10007800031D402820083A02031849282000AE0131
:10008800AE0A113081312921080020003B08803A4E
:10009800B7002308803A3702031D542822083A0281
:1000A80003185F2802302000B7003708AE0011306F
:1000B80081312921080020003B08803AB700250833
:1000C800803A3702031D6A2824083A020318702868
:1000D800013081312921080020003B08803AB7000F
:1000E8002708803A3702031D7B2826083A0203189E
:1000F8008128033081312921080020003B08803AFB
:10010800B7002908803A3702031D8C2828083A02CC
:1001180003189228073081312921080020003B0864
:10012800803AB7002B08803A3702031D9D282A0819
:100138003A020318A3280F30813129210800200032
:100148003B08803AB7002D08803A3702031DAE28D5
:100158002C083A020318B92802302000B7003708E3
:10016800AE001F308131292108002000AE01AE0AFF
:100178001F3081312921080082313F2280318131AD
:100188007E2180318131F421803120003E0803191D
:10019800D228BE010130B8003808C0070A30400232
:1001A800031CF228C0010130B8003808BF078231AB
:1001B8002A22803121001C0882310322803121004B
:1001C8001B082000B8000630B836890BE828380824
:1001D80082310322803182311F2280310A3020008F
:1001E8003F02031CFC28BF010130B8003808BD07D6
:1001F8000A303D02031C2329BD010130B80038082C
:10020800C1072E08B800B9013808AF003908B00096
:100218008131D52180312000111B182900308E1919
:1002280001308131A1218031803135208031823106
:100238004222803101302000B8003808BC070A305B
:100248004102031CC928C101C9282000B60036088C
:10025800AF000430AF36890B2E292F08430501392A
:10026800B0003008B500B101B10A361C3F29B50805
:10027800031D3F29B1013108031D0C1503190C1189
:10028800B201B20A3608AF000130AF36890B4929EE
:100298002F1C5229B508031D5229B2013208031D2B
:1002A8000C1603190C12B301B30A3608AF0002305A
:1002B800AF36890B5C292F1C6529B508031D6529F4
:1002C800B3013308031D8E1603198E12B401B40A44
:1002D8003608AF000330AF36890B6F292F1C7829F9
:1002E800B508031D7829B4013408031D0E16031937
:1002F8000E120800013021008C000F308E00230000
:100308008C010C308E00143020008C0030308E00B0
:10031800143022008C0030308E00413020009800CC
:10032800210011149D011D149E011E088F3960388B
:100338009E008B170B17111708002000AF00003024
:100348008E1901302F06031DAE2921001D0883399F
:100358001C38B929003020000E1901302F06031D62
:10036800BA2921001D08833918389D0021009D14E1
:100378000800BA01BB01BC01BD01BE01BF01C0013B
:10038800C101C201C301E5308400813085002030FD
:100398008600003087000F308231342220008031FF
:1003A800C02801302000B1003108C2072E084202DF
:1003B800031C08004308013AB1003108C300C20118
:1003C8000800533402347934023493340234C33489
:1003D8000234E83402340D340334333403340A3439
:1003E80020000E148E142830240095009601141352
:1003F80017309200941320009111921108002000E8
:10040800B00082311122823120003008240091008E
:1004180082313A222400160808002400140C890CA2
:1004280001392000AF00240016081F3920002F04CE
:1004380003190800112A82311122823120009111FA
:1004480024001615161682313A220800823111222C
:100458008231200091112400161482313A220800BA
:10046800FE0012001E00FE0B352A00342000911DEC
:0E0478003A2A9111080021009901080008009D
:020000040001F9
:04000E00E7C9FFDD62
:00000001FF
