:020000040000fa
:080000000002040000000000f2
:020000040000fa
:10040000af9420000e7c24000e0188000000000044
:100410000c000700e08f2100010020001100070000
:10042000000020000000e000020032000000020096
:100430000000000074180200000000000040da0014
:100440000000fe004440a900800720000000e000fa
:100450000300320000002000a00188004440a800f2
:100460000000060091018800800078000000eb0089
:1004700015003700e280400032a0b4009101ba00bc
:10048000e280400032a0b4009102ba00e280400055
:1004900032a0b4000002eb00472bde00f507b200eb
:1004a000602ce10004003a000059eb008301e900f0
:1004b000fdff3e00040037006128e100010032002a
:1004c0000082eb00040007001101ba000200e00006
:1004d000e8ff3a00000006003159ba008301e90044
:1004e0000c0032002159ba008301e90008003200f3
:1004f0000400e00003003a00e280400032a0b400b3
:10050000f5ff370011d9ba008301e900faff3a007c
:100510008100e800e180400032a0b4000000060045
:100520000040da000000fe000a00fa0080017800b6
:10053000e20f500028003e00a03f8200e10f500073
:1005400008003200802320000000e0000500320097
:10055000042320002523200046232000800178006a
:10056000040037000422200025222000462220001b
:1005700083222000144090000004e00004003500b5
:100580008009eb00144090000074a0001042980015
:10059000154090000028a30003003a001540900089
:1005a0000024a000904298008001eb000700370073
:1005b000154090000008a300fdff320063c07800e2
:1005c0000000fb00000b78008301e800828f5100df
:1005d000f7ff3a000800370030002000b0bf9f004e
:1005e000c3bf9f00d1bf9f00e2bf9f006a8057003a
:1005f00000c0da006fb99700020078000080fa00ae
:1006000000000600881f7800000478005001be003a
:100610004000be00040040008580480006014900fb
:1006200087814900009cbe000294be000400e100e6
:100630000588e1000690e1000798e1000200310022
:10064000680044001008e8004f047800000006002d
:10065000f4874700889fbe008a9fbe008c9fbe0023
:100660008e1f78000205be000004be00d4b79f00b4
:10067000e5b79f00f6b79f0087bf9f000000eb0023
:10068000c0b79f00b0b79f00a0b79f0090b79f0072
:1006900080b79f000d042000bfb097004fb09700b7
:1006a000000140000000e0000f003d004f08de00a8
:1006b00000007100c0b79f009e00070001003d00d0
:1006c00012002000a100070001003d0012002000e0
:1006d000a6000700b1000700b60007000f004000a9
:1006e000c8ff0700220037004f08de000006710037
:1006f000ccb79f008f00070001003d0012002000d2
:100700009200070001003d00120020009700070042
:10071000a20007000fb297009fb297002fb3970077
:10072000bfb39700a90007000000520081805a0063
:1007300002015b0083815b0080b79f0091b79f003f
:10074000a2b79f00b3b79f000007eb009f00070010
:100750000020e10001a8e10002b0e10003b8e100df
:10076000010031001e0020000e005600c0b79f009f
:100770004fb297000400e000070035001000200091
:10078000010020006011b800080470008984700026
:100790000a0571008b8571008d06e900beff3a00e5
:1007a0000400e00003003d00820007000f0040004d
:1007b00094ff07004fa897000000e00004003a00f3
:1007c0000fb497009fb497002fb59700bfb597005f
:1007d000940007004f0778004f06be004f05be008b
:1007e0004f04be004f01b10000000600881f7800d2
:1007f00018002000881f780095ff07008f87e90008
:100800004f04780000000600801feb0090ff0700f7
:100810008f87e90000000600889fbe008a9fbe0007
:100820008c1f78006e00070007003d007300070072
:10083000e00f5b00e08f5b0007003d003200070027
:100840000006eb00040037003400070002003d0002
:100850002a0007001c00200072000700e3ff0700c9
:100860000203be000002be000c00e00001003200e6
:10087000220007000400be000601be004f067800fb
:100880004f05be004f04be0000000600889fbe005a
:100890008a9fbe008c1f78005100070005003d00b4
:1008a00056000700e00f5b00e08f5b0006003d0094
:1008b000040037001900070003003d006000b80085
:1008c0006011b8001000070056000700ceff0700b7
:1008d0000203be000002be000c00e0000100320076
:1008e000060007000400be000601be004f067800a7
:1008f0004f05be004f04be00000006006000b800b7
:100900006011b800000037000402500085825800d2
:100910000603590087835900000006000006eb001b
:10092000e00f5200e08f5a00e00f5b00e08f5b00a9
:10093000000006000180400090b79f000001eb001e
:100940008fb097000100e000000006000200700078
:1009500090b79f000180400080b79f000001eb002e
:10096000ffa897000100e0000000060002007000f0
:1009700080b79f00018040006faa9700cf20de0063
:1009800001007000f0af9f00040242002500070044
:100990004f18de000002720000000600e4af9f0066
:1009a0000804440089844c000a054d008b854d00e5
:1009b000000006003fb29700cfb297005fb39700e8
:1009c000efb3970000fe2f00000006003fb0970035
:1009d000cfb097005fb19700efb19700000006001d
:1009e0000205be000004be00e00f5000e08f58007a
:1009f000e00f5900e08f5900000006006000b800c9
:100a00006011b80008045000898458000a05590094
:100a10008b8559001c002000e00f5200e08f5a0027
:100a2000000006000800be000a01be00000006002b
:100a300020c2bf0066406000e64f500002003a004e
:100a4000301180000000060030118000f00fb2006d
:100a50000000060022c2bf00610060000000060026
:100a600023c2bf000004a200610060000000060075
:100a700021e2a9009560a9009580a9008560a900e0
:100a80008580a9000000060042118800001188003e
:100a900011118800000006000c00fa00889fbe00bb
:100aa00000047800cfb09700f0ff2700d0bf9f0070
:100ab0008004eb0099bf9f0088bf9f00a8bf9f00e4
:100ac000200c2000b0bf9f00788157007080570035
:100ad0000e0007000fb89700094878000fb897007c
:100ae00008045000080078004f04be000080fa009f
:100af00000000600800078003004e000feff3a00ad
:100b0000010050000000e90000000600fe874700d9
:100b1000889fbe008a9fbe008c9fbe008e1f7800fb
:100b2000f0b79f000107780082bf9f000000eb0034
:100b3000a0b79f009f0237008006eb0050c2b300b1
:100b400080cf5000090032000100fb00ffb0970089
:100b5000a3020700e10f400096023200afb09700f9
:100b60008100e800a1b79f00920237009e40780004
:100b7000d0c2b30080cf50000c00320007003c0010
:100b80006d40500080cf50000a0032006b404000a2
:100b900080cf50000e003a000800370000c3b300b9
:100ba00080cf50000a003a00060037000d30a00048
:100bb000050037000d00a000030037000d10a00055
:100bc000010037000d20a0000e07e800e7ff370006
:100bd0000d18a300010032000d00a1000d38a30084
:100be000010032000d20a1000100fb0002fd2f00da
:100bf00002004000e90f50000e003e000002eb0032
:100c0000c4b79f0082017800cfb297006a28b9006c
:100c10001e01fb000001410003014100c2b79f001b
:100c20005e00fb0003004000e90f50000b003e0097
:100c3000f5ff37000006eb00ccb79f00a0c2b30061
:100c400080cf500005003a000fb89700c000780030
:100c500080bf9f00c1b79f000e07e8000001eb00b6
:100c6000b2b79f00e0c2b3009e4f100018003a00d8
:100c70000de0a0008e00e80064405000914f10008d
:100c800002003200010778000c0037000fba97000d
:100c9000c402780084bf9f00b5b79f000e87e800ac
:100ca0000b0037003fb697006a60b90000004100b2
:100cb00003004000b0b79f000e07e8001e01fb00d4
:100cc00003fd2f0003004100e90f5000f5ff36003f
:100cd000be407800e1d79f00c0c6b30080cf50006f
:100ce000220032000f003c006940500080cf5000cd
:100cf0007700320004003c000104e00031023200c1
:100d00006b4050000f00370040c6b30080cf50004a
:100d1000930032006540400080cf50008b003a00c5
:100d20008f00370030c7b30080cf50001a00320068
:100d300007003c006440500080cf5000110032009a
:100d40000040e80080cf500080003a000f003700dc
:100d500050c7b30080cf5000800032006340400095
:100d600080cf500079003a000900370000002800c9
:100d70000d48a30001003a000001200080867600a3
:100d8000d3ff37000d60a000750037000d50a000a4
:100d90000d70a000720037008fb8970041007800f6
:100da00081bf9f00000478000000e00001003a00cd
:100db000a88f20008004eb00010037008104e800c8
:100dc00089007800088044001004e000fbff3a002e
:100dd0003fb197000200e00003003200890f51008c
:100de00001003100820478000002eb00e4af9f00b4
:100df000cfb29700898f520002003600098052005e
:100e0000e0af9f004368de00e10660001b003a008f
:100e10000d06780009003700ffb09700000220009f
:100e2000ef010700e10f4000030032002fb09700f0
:100e30000000e800a0b79f000c06e800efa89700ac
:100e4000810f5600f4ff3a000081eb00e2af9f00f3
:100e50000a003700880078003100fb0001047800a8
:100e6000ffb09700de010700e10f400003003200f1
:100e70002fb297000402e800a4b79f000900e90020
:100e800080047800e10f4000f2ff3a000006eb001a
:100e90000d00e0000a003a00c6013700ffb09700dd
:100ea00000022000ce010700e10f400003003200e5
:100eb000afb297008502e800a5b79f000c06e800d6
:100ec0006fa89700800f5600f4ff3a00b901370071
:100ed0008fb897004100780081bf9f00cf80de006f
:100ee00001017800820178000205be000004be0006
:100ef0000203be000002be004822de00482edd00d4
:100f000004027600e4d79f000d48a3000a003200d7
:100f10000404e00008003200e14f42000600320005
:100f200071fd2f00018047000448780018409800a8
:100f30002900200002003700f0d79f001900200090
:100f400072fd2f0002844700a1ff370064fd2f00cf
:100f500004844700190020009dff37000d0cb300ea
:100f60000d007800000cb20028003a000d00e000ef
:100f700005003d008fba97004505be004504be0040
:100f800085bf9f00140037000d48a3000b003200fe
:100f90000fbe97004c00be008cbf9f004f89de0043
:100fa000cf91de000002be000203780082037800c9
:100fb0000605be000404be00070037008fb8970086
:100fc0004100780081bf9f0000047800cfc4de009c
:100fd000090578008a057800e00f5400e08f5c0076
:100fe000e00f5d00e08f5d001f003d003d00b3009d
:100ff0006000b8006011b8000804500089845800ef
:101000000a0559008b855900170037000d00e000d4
:1010100005003d000fb997004205be004204be0026
:1010200082bf9f00100037000d48a3000700320068
:101030000fba97004400be0084bf9f006011b80043
:101040000205be000004be00070037008fba9700fb
:101050004500780085bf9f0000047800090020004b
:101060000a0020000b0020003fb697000c00e000b3
:1010700007003a00e00f5400e08f5c00e00f5d00d5
:10108000e08f5d0002003a0010002000b0b79f0022
:101090008d007800010cb200e1b79f000004200031
:1010a000808f50003000320003003c000100e0005f
:1010b0000800320040003700000820006fb19700a0
:1010c000800f510014003200000c2000800f5100ee
:1010d00039003a0014c0b300a58520000b0037008a
:1010e0000400fb004300dd00050040005001be008d
:1010f0004000be000040e10001c8e10002d0e10074
:1011000003d8e1002b0039000442e800f44f5200fc
:10111000f3ff3a0027003700000120000100200003
:101120006011b80014c0b3000040e10001c8e10044
:1011300002d0e10003d8e1001e0039004500200084
:101140000000d0008180d2000281d2008381d200d1
:101150008502e900faff3a000442e800f04f52002d
:10116000f1ff3a001300370080002000010020004a
:101170006011b80014c0b3000040e10001c8e100f4
:1011800002d0e10003d8e1000a0039003c00200051
:101190000000d0008180d2000281d2008381d20081
:1011a0000c06e900faff3a000442e800f54f52004d
:1011b000f1ff3a00e4d79f00efd097000100fb0059
:1011c0003fb19700820f500002003d00e2d79f0020
:1011d000040037003fb29700800f520001003d002d
:1011e000b0b79f00cfb297000500e00004003200c6
:1011f00063806600020032008502e900c5b79f00e7
:101200000de8a3000b0032004fb697003fb09700e7
:10121000800f560003003c008000eb00c1b79f0028
:10122000040037004fb197003fb29700040151000e
:10123000c2b79f00efd297000500fb000006eb004d
:10124000dcaf9f00cfb09700808f500002003400c9
:1012500000805000d0af9f000d28a300370032005f
:10126000e18066000d18a3000c003200d0022000bf
:101270000100e00001003a000080e900ffb09700a3
:10128000d7000700e10f40000e0032002fb1970099
:101290000201e800a2b79f000a0037000100e00049
:1012a00008003200ffb0970000022000cc000700c9
:1012b000e10f4000030032002fb297000402e80063
:1012c000a4b79f00dfaa97000500e0000f003200de
:1012d0000006eb00ffb0970000032000c0000700ed
:1012e000e10f4000030032002fb097000000e8003b
:1012f000a0b79f000c06e800dfa89700810f5600fa
:10130000f4ff3a000001eb00d2af9f003fb297001c
:10131000c320dd00208520008080400091b79f0021
:101320004220dd006400500080b79f006320b900b8
:10133000f0af9f006306500084003700dfaa9700db
:101340000500e00011003200688066000f003a00de
:1013500000067800ffb0970000022000a000070000
:10136000e10f4000030032002fb097000000e800ba
:10137000a0b79f000c06e800dfa89700810f560079
:10138000f4ff3a000001eb00d2af9f00e18066005d
:101390000d18a3000c003200d00220000100e00074
:1013a00001003a000080e900ffb097008c000700c0
:1013b000e10f4000d5ff32002fb297000402e80091
:1013c000a4b79f00d1ff37000100e000cfff32003b
:1013d000ffb097000002200081000700e10f4000ed
:1013e000caff3200afb297008502e800a5b79f00a0
:1013f000c6ff370000042000efb09700808f500038
:101400003100320003003c000100e000080032001f
:101410003e003700000820006fb19700800f510098
:1014200011003200000c2000800f510037003a00fc
:101430001fb097003002be002003be000800be00af
:101440000a01be00e9fc0700a400200005002000fe
:101450006033b800ecfc070004c3b3000442400052
:10146000e4d79f002900370015902000d5b79f00d2
:101470000d58a30002003a0020912000d0b79f0031
:1014800014002000050020006033b8008fb09700e2
:101490008100e900050033000402d0008582d200fb
:1014a0000683d2008783d200f9ff37000800be0010
:1014b0000a01be00cdfc07006f0060005fb197001d
:1014c0006240780010003700140020000500200062
:1014d0006033b8000c0078000000e900050033001c
:1014e0000402d0008582d2000683d2008783d20016
:1014f000f9ff37000800be000a01be00bbfc070070
:10150000674060000043b000e0d79f00efd0970035
:101510000100fb00ffb0970031000700e10f400021
:10152000030032002fb197000201e800a2b79f002c
:101530001fb297006802520094b79f008fb29700c5
:10154000e482520085b79f0063065600d0ff2f004b
:101550003fb197000090b9007faa970000004200b9
:1015600063005000800f5600a2ff3a000d38a30020
:1015700010003200dfaa97000500e0000d003400e3
:101580000006eb00ffb097000002200014000700e7
:10159000e10f4000030032002fb097000000e80088
:1015a000a0b79f000c06e800dfa89700810f560047
:1015b000f4ff3a00be407800e1d79f000104e0004c
:1015c0005dfd3a002fb097004f0778004f06be0030
:1015d0004f05be004f04be00ef01b1000000060041
:1015e000889fbe000001780001047800b1009000df
:1015f0000118a3003d0032000198a30003003a0047
:10160000180090000000e00038003a000190a000af
:101610003104980082047800f90fb200180090009d
:101620000000e00002003a0028009000000c780062
:10163000ea8f540006003a00380090000078a300ba
:1016400003003a0088007800d0002000e4ff070083
:101650009800900058009000808f50000b003200de
:101660000100e8001004980018007800095878007c
:10167000000c780011c0b300207f240001487800de
:10168000ea8f540006003200190037008800780005
:101690000940780019000700800478001400370022
:1016a000380090000088a30011003200180190005b
:1016b000a8009000480090009bfb07009800900055
:1016c000810f500004003200380090000003b30086
:1016d000300498008084eb000000eb0010049800b8
:1016e00028009000000c7800010037008084eb0097
:1016f000090078004f04be00000006000200fa0056
:10170000889fbe00a0ff9f0001047800b1009000f8
:10171000810478000904b200020032000000fb00de
:10172000360037000118a30005003a000103b3009a
:1017300031049800190498000080eb002f00370056
:10174000580090000000e00006003a0048009000b9
:1017500012002000e680570073fb07001904980070
:1017600024003700280090000000e00008003a0044
:10177000e07e240020049800000c78002000200067
:1017800050049800100498000130a0003104980023
:1017900018019000a80090004800900062fb07002c
:1017a00028009000000c78000080eb0010049800e6
:1017b00018007800aff8970001587800000c780006
:1017c0002ff89700ea4f50000a003a0038009000c6
:1017d0000088a3000700320018019000a8009000c4
:1017e0004800900050fb070019049800a8009000e2
:1017f000010c7800aff897000100fb004f04be0019
:081800000080fa000000060060
:020000040000fa
:0200000401f009
:04000000ffff0000fe
:020000040000fa
:0200000401f009
:04000400ffff0000fa
:020000040000fa
:0200000401f009
:04000800ffff0000f6
:020000040000fa
:0200000401f009
:04000c0079ff000078
:020000040000fa
:0200000401f009
:0400100058ff000095
:020000040000fa
:0200000401f009
:040014007fff00006a
:020000040000fa
:0200000401f009
:04001800ffff0000e6
:020000040000fa
:0200000401f009
:04001c00dfff000002
:020000040000fa
:1000080090020000900200009002000090020000a0
:100018009002000090020000900200009002000090
:100028009002000090020000900200009002000080
:100038009002000090020000900200009002000070
:020000040000fa
:020000040000fa
:101808004f4b000000000000546900006d650000a7
:101818006f75000074000000004e0000414b00008e
:10182800000000004c6500006e670000746800004e
:1018380000000000496e0000766100006c6900003d
:101848006400000000440000456900006e200000ac
:101858006d75000074740000657200002069000056
:1018680073740000206e0000696300006874000053
:1018780020670000757400007400000041450000f6
:1018880041000000524f000049450000284c00006c
:1018980029000000434100004e0000004d4f0000a9
:1018a800544f000052000000524f0000494500000c
:1018b8002f4c0000004d00004f5400004f52000014
:1018c800004100004541000000430000414e000077
:1018d80000410000444300000025000064000000af
:1018e8002020000020200000202000002000000010
:020000040000fa
:1018f8000600fa00404798000040eb00004f7800cf
:1019080010c0b300104798004e4090002047980040
:10191800310020000e007800e7060700aa0607003d
:101928000080fa00000006000600fa004047980010
:101938000040eb00004f780020c0b300104798002b
:101948004e40900020479800310020000e0078009b
:10195800d90607009c0607000080fa000000060070
:101968000600fa002007980000c0eb00004f78003e
:10197800e0c6b300104798002e0090004800de0033
:10198800204798002e009000304798004100200022
:101998000e007800c80607000080fa000000060064
:1019a8000a00fa00300798004107980000c0eb00d1
:1019b800004f7800e0cbb300104798003e0090003d
:1019c8004800de00204798003e009000304798000d
:1019d8004e0090004800de00404798004e009000fe
:1019e80050479800610020000e007800b2060700fa
:1019f8000080fa00000006001200fa005007980064
:101a08006107980072079800030f980000c0eb0068
:101a1800004f7800d0ccb300104798005e009000cb
:101a28004800de00204798005e009000304798008c
:101a38006e0090004800de00404798006e0090005d
:101a4800504798007e0090004800de0060479800ec
:101a58007e009000704798000e0890004800de0055
:101a6800004f98000e089000104f98003100200099
:101a78000e007800900607000080fa0000000600bb
:101a88001200fa0050079800610798007207980042
:101a9800030f980000c0eb00004f7800c0ccb300e3
:101aa800104798005e0090004800de00204798002c
:101ab8005e009000304798006e0090004800de00fd
:101ac800404798006e009000504798007e009000b4
:101ad8004800de00604798007e009000704798003c
:101ae8000e0890004800de00004f98000e08900095
:101af800104f9800a10020000e0078006e06070025
:101b08000080fa00000006000600fa00200798008e
:101b180000c0eb00004f7800c0c6b3001047980023
:101b28002e0090004800de00204798002e0090000c
:101b380030479800410020000e0078005e0607003c
:101b48000080fa00000006001200fa005007980012
:101b58006107980072079800030f980000c0eb0017
:101b6800004f7800f0cbb300104798005e0090005b
:101b78004800de00204798005e009000304798003b
:101b88006e0090004800de00404798006e0090000c
:101b9800504798007e0090004800de00604798009b
:101ba8007e009000704798000e0890004800de0004
:101bb800004f98000e089000104f9800a1002000d8
:101bc8000e0078003c0607000080fa0000000600be
:101bd8000200fa0000c0eb00004f780070cdb3009f
:101be80010479800210020000e00780032060700f8
:101bf80099fb07000004e000fdff3a00f20507002a
:101c0800e10f5000fdff3a000080fa0000000600d6
:101c18000600fa002007980000c0eb00004f78008b
:101c280060c6b300104798002e0090004800de0000
:101c3800204798002e00900030479800410020006f
:101c48000e0078001c0607000080fa00000006005d
:101c58000600fa002007980000c0eb00004f78004b
:101c680090c6b300104798002e0090004800de0090
:101c7800204798002e00900030479800410020002f
:101c88000e0078000c0607000080fa00000006002d
:101c98001600fa006007980071079800020f980074
:101ca800130f9800240f980000c0eb00004f780035
:101cb80020cdb300104798006e0090004800de0069
:101cc800204798006e009000304798007e009000f2
:101cd8004800de00404798007e009000504798007a
:101ce8000e0890004800de00604798000e0890003b
:101cf800704798001e0890004800de00004f9800ca
:101d08001e089000104f98002e0890004800de0032
:101d1800204f98002e089000304f9800c1002000f6
:101d28000e007800e40507000080fa0000000600b5
:101d38000600fa002007980000c0eb00004f78006a
:101d480050c6b300104798002e0090004800de00ef
:101d5800204798002e00900030479800410020004e
:101d68000e007800d40507000080fa000000060085
:101d78000a00fa00300798004107980000c0eb00fd
:101d8800004f780040cdb300104798003e00900007
:101d98004800de00204798003e0090003047980039
:101da8004e0090004800de00404798004e0090002a
:101db80050479800610020000e007800be0507001b
:101dc8000080fa00000006000a00fa0030079800b8
:101dd8004107980000c0eb00004f780060cdb300c9
:101de800104798003e0090004800de002047980009
:101df8003e009000304798004e0090004800de00fa
:101e0800404798004e00900050479800610020001d
:101e18000e007800a80507000080fa000000060000
:101e28000600fa002007980000c0eb00004f780079
:101e380070c6b300104798002e0090004800de00de
:101e4800204798002e00900030479800410020005d
:101e58000e007800980507000080fa0000000600d0
:101e68000e00fa0040079800510798006207980092
:101e780000c0eb00004f7800b0ccb30010479800ca
:101e88004e0090004800de00204798004e00900069
:101e9800304798005e0090004800de0040479800f8
:101ea8005e009000504798006e0090004800de00e9
:101eb800604798006e0090007047980081002000ed
:101ec8000e0078007c0507000080fa00000006007c
:101ed8001600fa006007980071079800020f980032
:101ee800130f9800240f980000c0eb00004f7800f3
:101ef800f0ccb300104798006e0090004800de0058
:101f0800204798006e009000304798007e009000af
:101f18004800de00404798007e0090005047980037
:101f28000e0890004800de00604798000e089000f8
:101f3800704798001e0890004800de00004f980087
:101f48001e089000104f98002e0890004800de00f0
:101f5800204f98002e089000304f9800c1002000b4
:101f68000e007800540507000080fa000000060003
:101f78001600fa006007980071079800020f980091
:101f8800130f9800240f980000c0eb00004f780052
:101f9800e0ccb300104798006e0090004800de00c7
:101fa800204798006e009000304798007e0090000f
:101fb8004800de00404798007e0090005047980097
:101fc8000e0890004800de00604798000e08900058
:101fd800704798001e0890004800de00004f9800e7
:101fe8001e089000104f98002e0890004800de0050
:101ff800204f98002e089000304f9800c100200014
:102008000e0078002c0507000080fa00000006008a
:102018000600fa002007980000c0eb00004f780087
:1020280080c6b300104798002e0090004800de00dc
:10203800204798002e00900030479800410020006b
:102048000e0078001c0507000080fa00000006005a
:102058000a00fa00300798004107980000c0eb001a
:10206800004f780080cdb300104798003e009000e4
:102078004800de00204798003e0090003047980056
:102088004e0090004800de00404798004e00900047
:1020980050479800610020000e00780006050700f0
:1020a8006dfa07000004e000fdff3a000080fa0026
:1020b800000006000200fa0000c0eb00004f7800a4
:1020c800c0cbb30010479800210020000e00780014
:1020d800f90407000080fa00000006000a00fa0070
:1020e80040079800e400470000c0eb0080487800f3
:1020f800e4004700a0c6b300904098004e0090004e
:102108004800de00804078006400470021409800c5
:102118004e009000804078006400470031409800ed
:102128006400470041002000e30407000080fa0033
:10213800000006000600fa002007980000c0eb0027
:10214800004f7800b0c6b300104798002e009000ea
:102158004800de00204798002e0090003047980085
:10216800410020000e007800d30407000080fa0028
:10217800000006001e00fa00000f9800110f9800da
:10218800220f9800330f9800440f9800550f9800bd
:10219800660f980000c0eb00004f780090ccb300a9
:1021a800104798000e0890004800de00204798006d
:1021b8000e089000304798001e0890004800de0086
:1021c800404798001e089000504798002e0890003d
:1021d8004800de00604798002e089000704798007d
:1021e8003e0890004800de00004f98003e0890002e
:1021f800104f98004e0890004800de00204f9800cd
:102208004e089000304f98005e0890004800de00ad
:10221800404f98005e089000504f98006e0890005c
:102228004800de00604f98006e089000704f9800dc
:10223800010120000e0078009f0407000080fa00ca
:10224800000006000200fa0000c0eb00004f780012
:1022580020cbb30010479800210020000e00780022
:1022680095040700580407000080fa0000000600e3
:102278000a00fa00300798004107980000c0eb00f8
:10228800004f780030cbb300104798003e00900014
:102298004800de00204798003e0090003047980034
:1022a8004e0090004800de00404798004e00900025
:1022b80050479800610020000e0078007e04070057
:1022c8000080fa00000006000200fa0000c0eb00df
:1022d800004f780010cbb300104798002100200071
:1022e8000e00780074040700370407000080fa0025
:1022f800000006000a00fa0030079800410798001d
:1023080000c0eb00004f780090cbb3001047980056
:102318003e0090004800de00204798003e009000f4
:10232800304798004e0090004800de004047980073
:102338004e00900050479800610020000e00780081
:102348005d0407000080fa00000006000a00fa0099
:10235800300798004107980000c0eb00004f780054
:1023680080cbb300104798003e0090004800de0084
:10237800204798003e009000304798004e0090009b
:102388004800de00404798004e00900050479800f3
:10239800610020000e007800470407000080fa0062
:1023a800000006000a00fa0030079800410798006c
:1023b80000c0eb00004f7800b0cbb3001047980086
:1023c8003e0090004800de00204798003e00900044
:1023d800304798004e0090004800de0040479800c3
:1023e8004e00900050479800610020000e007800d1
:1023f800310407000080fa00000006000e00fa0011
:1024080040079800510798006207980000c0eb0049
:10241800004f7800a0cbb300104798004e00900002
:102428004800de00204798004e0090003047980092
:102438005e0090004800de00404798005e00900073
:10244800504798006e0090004800de0060479800f2
:102458006e00900070479800810020000e00780000
:10246800150407000080fa00000006000600fa00c4
:102478002007980000c0eb00004f7800e0cfb300c1
:10248800104798002e0090004800de002047980072
:102498002e00900030479800410020000e00780080
:1024a800050407006cf907000004e000fdff3a008e
:1024b8000080fa00000006000e00fa0030079800bd
:1024c8000f007800600798000f0078004007980018
:1024d8003e00900085f90700100798001e00900044
:1024e800630040000000e8000000e8000000d100a0
:1024f800000040008f00780051079800808747004f
:10250800de0090000100e8000000d100000040005b
:10251800500798005e00900020079800ae009000d9
:102528000040eb0080487800ae00900060c0b30027
:102538009040980020002000000f78000900370024
:102548001e0178009e0078003e0090000080400048
:102558000080e900904078002e009000017178001a
:102568001e0fe8001e0090000080e8009e0f50003b
:10257800f3ff3c001e0090000081e800ae009000d0
:102588000040eb0000f178001e009000e3004000de
:102598002e009000c80307002ff907000004e00090
:1025a800fdff3a0088030700e10f5000fdff3a00e5
:1025b800ce079000ee0790000080fa0000000600a9
:1025c8000600fa002007980000c0eb00004f7800d2
:1025d80020c7b300104798002e0090004800de0086
:1025e800204798002e0090003047980041002000b6
:1025f8000e007800b003070017f907000004e00098
:10260800fdff3a0070030700e10f5000fdff3a009c
:102618000080fa00000006000600fa002007980073
:1026280000c0eb00004f7800e0c7b30010479800e7
:102638002e0090004800de00204798002e009000f1
:1026480030479800410020000e0078009a030700e8
:1026580001f907000004e000fdff3a005a030700f3
:10266800e10f5000fdff3a000080fa00000006006c
:102678000600fa002007980000c0eb00004f780021
:1026880060c7b300104798002e0090004800de0095
:10269800204798002e009000304798004100200005
:1026a8000e00780084030700ebf807000004e00040
:1026b800fdff3a0044030700e10f5000fdff3a0018
:1026c8000080fa00000006000600fa0020079800c3
:1026d80000c0eb00004f7800f0c7b3001047980027
:1026e8002e0090004800de00204798002e00900041
:1026f80030479800410020000e0078006e03070064
:10270800d5f807000004e000fdff3a002e0307009b
:10271800e10f5000fdff3a000080fa0000000600bb
:102728000600fa002007980000c0eb00004f780070
:10273800d0c7b300104798002e0090004800de0074
:10274800204798002e009000304798004100200054
:102758000e007800580307000080fa000000060009
:102768000600fa002007980000c0eb00004f780030
:10277800b0c7b300104798002e0090004800de0054
:10278800204798002e009000304798004100200014
:102798000e00780048030700aff807000004e000c7
:1027a800fdff3a0008030700e10f5000fdff3a0063
:1027b8000080fa00000006000600fa0020079800d2
:1027c80000c0eb00004f780040c7b30010479800e6
:1027d8002e0090004800de00204798002e00900050
:1027e80030479800410020000e00780032030700af
:1027f80099f807000004e000fdff3a00f202070024
:10280800e10f5000fdff3a000080fa0000000600ca
:102818000600fa002007980000c0eb00004f78007f
:1028280050c7b300104798002e0090004800de0003
:10283800204798002e009000304798004100200063
:102848000e0078001c03070083f807000004e0006e
:10285800fdff3a00dc020700e10f5000fdff3a00df
:102868000080fa00000006000a00fa00300798000d
:102878004107980000c0eb00004f780040ceb3003d
:10288800104798003e0090004800de00204798005e
:102898003e009000304798004e0090004800de004f
:1028a800404798004e009000504798006100200073
:1028b8000e0078000003070067f807000004e00036
:1028c800fdff3a00c0020700e10f5000fdff3a008b
:1028d8000080fa00000006000600fa0020079800b1
:1028e80000c0eb00004f780070c7b3001047980095
:1028f8002e0090004800de00204798002e0090002f
:1029080030479800410020000e007800ea020700d6
:1029180051f807000004e000fdff3a00aa02070092
:10292800e10f5000fdff3a000080fa0000000600a9
:102938000a00fa00300798004107980000c0eb0031
:10294800004f780030ceb300104798003e0090004a
:102958004800de00204798003e009000304798006d
:102968004e0090004800de00404798004e0090005e
:1029780050479800610020000e007800ce02070042
:102988000080fa00000006000600fa002007980000
:1029980000c0eb00004f780030c7b3001047980024
:1029a8002e0090004800de00204798002e0090007e
:1029b80030479800410020000e007800be02070052
:1029c80025f807000004e000fdff3a007e0207003a
:1029d800e10f5000fdff3a000080fa0000000600f9
:1029e8000600fa002007980000c0eb00004f7800ae
:1029f800c0c7b300104798002e0090004800de00c2
:102a0800204798002e009000304798004100200091
:102a18000e007800a80207000ff807000004e00085
:102a2800fdff3a0068020700e10f5000fdff3a0081
:102a38000080fa00000006000600fa00200798004f
:102a480000c0eb00004f7800a0c7b3001047980003
:102a58002e0090004800de00204798002e009000cd
:102a680030479800410020000e00780092020700cd
:102a78000080fa00000006000600fa00200798000f
:102a880000c0eb00004f780090c7b30010479800d3
:102a98002e0090004800de00204798002e0090008d
:102aa80030479800410020000e007800820207009d
:102ab8000080fa00000006000a00fa0030079800bb
:102ac8004107980000c0eb00004f7800a0cdb3008c
:102ad800104798003e0090004800de00204798000c
:102ae8003e009000304798004e0090004800de00fd
:102af800404798004e009000504798006100200021
:102b08000e0078006c0207000080fa000000060042
:102b18000a00fa00300798004107980000c0eb004f
:102b2800004f780030cfb300104798003e00900067
:102b38004800de00204798003e009000304798008b
:102b48004e0090004800de00404798004e0090007c
:102b580050479800610020000e00780056020700d8
:102b68000080fa00000006000a00fa00300798000a
:102b78004107980000c0eb00004f780040cfb30039
:102b8800104798003e0090004800de00204798005b
:102b98003e009000304798004e0090004800de004c
:102ba800404798004e009000504798006100200070
:102bb8000e007800400207000080fa0000000600be
:102bc8000400fa000040eb00004f7800c0c0b300da
:102bd800104798000040eb00204798000040eb00a9
:102be80030479800410020000e00780032020700ac
:102bf80099f707000004e000fdff3a00f201070022
:102c0800e10f5000fdff3a000080fa0000000600c6
:102c18000600fa00200798000040eb00004f7800fb
:102c2800d0c0b300104798002e0090004800de0086
:102c3800204798002e00900030479800410020005f
:102c48000e0078001c0207000080fa000000060051
:102c58000600fa00200798000040eb00004f7800bb
:102c6800e0c0b300104798002e0090004800de0036
:102c7800204798002e00900030479800410020001f
:102c88000e0078000c0207000080fa000000060021
:102c98000400fa00100798000000eb00000f78000d
:102ca800010037001e0fe8001e0090006700b90001
:102cb8009e0f5000fbff3a000080fa00000006005b
:102cc8000400fa00100798000000eb00000f7800dd
:102cd80003003700403b2000edff07001e0fe8000f
:102ce8001e0090009e0f1000faff3a000080fa00c4
:102cf800000006000400fa00100798000000eb002e
:102d0800000f780003003700803e2000ecff07002a
:102d18001e0fe8001e0090009e0f1000faff3a00f8
:102d28000080fa00000006000000fa00516c200044
:102d38009140780000ceb30000c060000044a000bd
:102d4800c5e6b700416b20009140780000ceb30083
:102d580000c060006040b300b4e6b700c8e2a90054
:102d68000080fa00000006000600fa00416d20000d
:102d78009140780000ceb30000c060003040b3003e
:102d8800d4e6b700d082a900416a200091407800bb
:102d980000ceb30000c060003041b300a4e6b70025
:102da800d062a80030f707002342a900004026009f
:102db800100798000000eb00000f78005001200079
:102dc800200798002e0190009e0078001e009000b9
:102dd8002bf7070021e2a8002342a80010002000da
:102de800b7ff07000080fa00000006000000fa00a4
:102df800d0a2a900d2a2a900401f2000b0ff07005e
:102e0800d2a2a8000080fa00000006000000fa0024
:102e1800400020000019880001322000914078000d
:102e280000ceb30000c0700020e3b7000000eb0044
:102e38001019880020f02100201988003000200097
:102e480000168800c00020004016880030002000ce
:102e580080168800300f20006019880010002000bc
:102e6800401988000000eb00801988000080fa00f3
:102e7800000006000000fa000000eb00001c8800bb
:102e88000138200091407800f0ccb30000c0600009
:102e980001c2b3000140700080e3b7000138200090
:102ea80091407800c0cfb30000c0600080e3b70055
:102eb80081c3a90000302000401c88000000eb00fe
:102ec800501c8800d0002000101c8800007d2000c5
:102ed800201c880081e3a8000080fa00000006009a
:102ee8000000fa000000eb00201688000080eb00cc
:102ef800001688000000eb00601688000080eb00d8
:102f0800401688000000eb00a01688000080eb0047
:102f18008016880094ff0700b4ff07000080fa00bd
:102f2800000006000000fa001e0107001000200043
:102f380063ff070026fb070021ff07000080fa0057
:102f4800000006000000fa0070c228005afd0700c1
:102f58000080fa00000006000000fa000080eb0084
:102f6800d9fd0700200020009dfe0700200020005a
:102f7800fbfd07000080fa00000006000400fa00cc
:102f8800000f78001107980020c428004afd0700a8
:102f98008000eb001000200033fe070060c428000a
:102fa80045fd07008000eb00200020002efe0700f2
:102fb800e0c4280040fd07008000eb00300020003e
:102fc80029fe070020c528003bfd07000080fa0005
:102fd800000006000600fa00100798002107980074
:102fe8000000eb00000f78000b0037001e0078008f
:102ff8008000eb001cfe07001e0078000000400067
:10300800800078001e0090000080400010007800ca
:1030180029fd07001e0fe8002e0090009e0f1000eb
:10302800f2ff35000080fa00000006000000fa00f8
:1030380043c7bf0002c7b3008240600000c3b300ab
:1030480080cf500024003200e0012000303a880090
:1030580044c7bf00f043b20044e7b7004174200002
:103068009140780000ceb30000c0600044e7b7008c
:10307800e0012000303a880032002000810720005b
:10308800a009200033742000814978008049780025
:103098008249780012002000610420007005200099
:1030a800237420008149780080497800824978009b
:1030b80043c7bf0002c7b3008240600000c3b3002b
:1030c80080cf5000faff3a0042c7bf000042b2006a
:1030d8000004e000fcff32000080fa000000060057
:1030e8001200fa00d1ff07007dff07003000200022
:1030f80000ff07008e80e80080c52800800878005f
:103108008e80e800f0c52800900098008e80e800c6
:1031180050c62800a00098008e80e80090c62800bd
:10312800b00098008e80e800d0c62800c000980043
:10313800401680000030a0004016880079ff070084
:1031480085ff07000e80e80010007800510020007d
:10315800a0ff07000000eb000019880000f02f0016
:103168006019880050002000401988000000eb001a
:103178008019880020002000201988000000eb003a
:103188001019880021e3a8002023a8004006200089
:10319800bffe07002023a90020c3bf0061406000d4
:1031a8000004e000fcff320000188000ec0047003b
:1031b800801f780010c72800801f78000100780061
:1031c80033f60700e48757008000eb00500020002a
:1031d800a5fd070040c72800b7fc07008000eb00ea
:1031e80050002000a0fd07006c004700b2fc07005b
:0431f800e5ff3700b8
:020000040000fa
:1031fc00500800000a00000002000000048c0800c7
:10320c008c118c00168c1e008c000000d047000026
:10321c001e000000000000005a080000a000000082
:10322c0002000000010000000000000000000a0085
:10323c00000000000000000000640000000000001e
:10324c0000000000e8030000000000000000100077
:10325c00270000000000000000a086000100000014
:10326c000000000040420f00000000000000800041
:10327c0096980000000000000000e100f505000039
:10328c000000000000ca9a003b0000000000000093
:10329c00e40b5400020000000000e8007648170020
:1032ac00000000000010a500d4e8000000000000a1
:1032bc00a0724e0018090000000040007a10f300c4
:1032cc005a0000000080c600a47e8d0003000000a0
:1032dc0000c16f00f2862300000000008a5d7800b8
:1032ec004563010000006400a7b3b600e00d0000c8
:1032fc0000e889000423c7008a000000fa080000d7
:10330c002a00000002000000286e75006c6c290079
:10331c000030310032333400353637003839410053
:10332c00424344004546000030313200333435000e
:10333c00363738003961620063646500660000004e
:10334c002409000026000000020000002609f000fd
:10335c0047000000f0470900000000000200ee00ea
:10336c0047000000ee4706000201000000000000cc
:10337c000000000000000600020200000000000037
:10338c00ee4700000600000000000000f4470000bb
:10339c00020000000200000001000000000000001c
:020000040000fa
:1033ac000200fa00020037009ef50700000f7800bb
:1033bc00a5f50700e14f5000fbff32000080fa003a
:1033cc00000006000400fa009ff50700e14f5000d2
:1033dc000b003a0093f50700004f780060c0b30073
:1033ec009e4f100003003a001000200010079800b8
:1033fc00050037000000eb001007980002003700b2
:10340c000000eb00100798001e0090000080fa00ee
:10341c00000006000800fa00604798000000eb006e
:10342c00100798001e0037000000eb0020079800e2
:10343c00150037006e4090008000fb002e009000bd
:10344c00808040001e009000008f40006e40900075
:10345c008000fb002e009000808040001e00900039
:10346c00008040002011880085c0bf0070406000c3
:10347c000004e000fcff32008580a9002e009000c3
:10348c000000e800200798002e009000e30f500089
:10349c00e8ff34001e0090000000e80010079800c0
:1034ac001e009000e30f5000dfff34000080fa0094
:1034bc00000006000800fa00200798003107980069
:1034cc000000eb0010079800150037001e0090005c
:1034dc00800078002e0090000080400010407800a2
:1034ec00004f78001e009000800078002e009000a5
:1034fc0000804000104078000080fb002011880004
:10350c0085c0bf00704060000004e000fcff32008a
:10351c008580a9001e0090000000e80010079800ac
:10352c009e0090003e009000808f5000e7ff350019
:10353c0048f507000004e000fdff3a000080fa00a7
:04354c000000060075
:00000001FF
