:020000040000fa
:080000000002040000000000f2
:020000040000fa
:100400000f0521000e7f24000e018800000000006f
:100410000c00070080572000010020001100070099
:10042000000020000000e000020032000000020096
:1004300000000000e4030200000000000040da00b9
:100440000000fe004440a900000020000000e00081
:100450000300320000002000a00188004440a800f2
:100460000000060091018800800078000000eb0089
:1004700015003700e280400032a0b4009101ba00bc
:10048000e280400032a0b4009102ba00e280400055
:1004900032a0b4000002eb00472bde00f507b200eb
:1004a000602ce10004003a000059eb008301e900f0
:1004b000fdff3e00040037006128e100010032002a
:1004c0000082eb00040007001101ba000200e00006
:1004d000e8ff3a00000006003159ba008301e90044
:1004e0000c0032002159ba008301e90008003200f3
:1004f0000400e00003003a00e280400032a0b400b3
:10050000f5ff370011d9ba008301e900faff3a007c
:100510008100e800e180400032a0b4000000060045
:100520000040da000000fe0020c2bf00664060000c
:10053000e64f500002003a00301180000000060033
:1005400030118000f00fb2000000060022c2bf0090
:10055000610060000000060023c2bf000004a2008a
:080560006100600000000600cc
:020000040000fa
:0200000401f009
:04000000ffff0000fe
:020000040000fa
:0200000401f009
:04000400ffff0000fa
:020000040000fa
:0200000401f009
:04000800ffff0000f6
:020000040000fa
:0200000401f009
:04000c0078ff000079
:020000040000fa
:0200000401f009
:0400100078ff000075
:020000040000fa
:0200000401f009
:040014007fff00006a
:020000040000fa
:0200000401f009
:04001800ffff0000e6
:020000040000fa
:0200000401f009
:04001c00ffff0000e2
:020000040000fa
:10000800900200003c050000420500004805000081
:100018004e05000054050000900200009002000008
:100028009002000090020000900200009002000080
:100038009002000090020000900200009002000070
:100048009002000090020000900200009002000060
:1000580090020000d403000090020000900200000b
:100068009002000090020000900200009002000040
:100078009002000090020000900200009002000030
:100088009002000090020000900200009002000020
:100098009002000090020000900200009002000010
:1000a8009002000090020000900200009002000000
:1000b80090020000900200009002000090020000f0
:1000c80090020000900200009002000090020000e0
:1000d80090020000900200009002000090020000d0
:1000e80090020000900200009002000090020000c0
:1000f80090020000900200009002000090020000b0
:10010800900200009002000090020000900200009f
:10011800900200009002000090020000900200008f
:10012800900200009002000090020000900200007f
:10013800900200009002000090020000900200006f
:10014800900200009002000090020000900200005f
:10015800900200009002000090020000900200004f
:10016800900200009002000090020000900200003f
:10017800900200009002000090020000900200002f
:10018800900200009002000090020000900200001f
:10019800900200009002000090020000900200000f
:1001a80090020000900200009002000090020000ff
:1001b80090020000900200009002000090020000ef
:1001c80090020000900200009002000090020000df
:1001d80090020000900200009002000090020000cf
:1001e80090020000900200009002000090020000bf
:0801f8009002000090020000db
:020000040000fa
:10020800900200005a050000600500006605000025
:100218006c050000720500009002000090020000ca
:10022800900200009002000090020000900200007e
:10023800900200009002000090020000900200006e
:10024800900200009002000090020000900200005e
:1002580090020000d4030000900200009002000009
:10026800900200009002000090020000900200003e
:10027800900200009002000090020000900200002e
:10028800900200009002000090020000900200001e
:10029800900200009002000090020000900200000e
:1002a80090020000900200009002000090020000fe
:1002b80090020000900200009002000090020000ee
:1002c80090020000900200009002000090020000de
:1002d80090020000900200009002000090020000ce
:1002e80090020000900200009002000090020000be
:1002f80090020000900200009002000090020000ae
:10030800900200009002000090020000900200009d
:10031800900200009002000090020000900200008d
:10032800900200009002000090020000900200007d
:10033800900200009002000090020000900200006d
:10034800900200009002000090020000900200005d
:10035800900200009002000090020000900200004d
:10036800900200009002000090020000900200003d
:10037800900200009002000090020000900200002d
:10038800900200009002000090020000900200001d
:10039800900200009002000090020000900200000d
:1003a80090020000900200009002000090020000fd
:1003b80090020000900200009002000090020000ed
:1003c80090020000900200009002000090020000dd
:1003d80090020000900200009002000090020000cd
:1003e80090020000900200009002000090020000bd
:0803f8009002000090020000d9
:020000040000fa
:100568000000fa0043c7bf0002c7b3008240600022
:1005780000c3b30080cf500024003200e001200007
:10058800303a880044c7bf00f043b20044e7b700e0
:10059800417420009140780000ceb30000c0600094
:1005a80044e7b700e0012000303a8800320020001c
:1005b80081072000a00920003374200081497800b9
:1005c80080497800824978001200200061042000e8
:1005d8007005200023742000814978008049780044
:1005e8008249780043c7bf0002c7b3008240600059
:1005f80000c3b30080cf5000faff3a0042c7bf00e3
:100608000042b2000004e000fcff32000080fa0063
:10061800000006000000fa003000200000168800e4
:10062800c000200040168800300020008016880096
:100638000000eb000019880001322000914078008a
:1006480000ceb30000c0700020e3b7000000eb004c
:100658001019880023c3bf007f40600001c2b300a7
:100668000140700023e3b70025c3bf00f041b30089
:1006780025e3b700f0c1b30024e3b700113220002e
:1006880091407800c0cfb30000c0600021e3b700fc
:100698000000eb008019880085a0a90095a0a9009a
:1006a800813220009140780000ceb30000c0600085
:1006b8000024a00028e3b70028e3a9000080eb008d
:1006c800601988002c03a8002c83a8002ca3a8007c
:1006d8002043a80021e3a8000080fa0000000600db
:1006e8000000fa001132200091407800c0cfb3001a
:1006f80000c0600021e3b70001322000914078007b
:1007080000ceb30000c0700020e3b7002043a8006b
:100718002143a9002343a8003132200091407800ea
:10072800c0cfb30000c0600023e3b70023c3bf00fd
:100738007f40600023e3b70028e3a90025e3a90070
:10074800f0c1b30024e3b70025c3bf00f041b300f4
:1007580025e3b700213220009140780030ccb30067
:1007680000c06000c040b30022e3b7003083a80097
:1007780030a3a8000080eb00601988002c83a90032
:100788002ca3a9002cc3a9002ce3a90085a0a900cb
:1007980095a0a80021e3a8000080fa000000060048
:1007a800801f78000000fa0000188000804288004e
:1007b80085a0a9000080fa004f00780000400600dc
:1007c8000400fa000000eb00000f780064ff070047
:1007d800c3ff0700c8e2a9000000eb00000f780083
:1007e80010003700400620001e000700cac2bf00e4
:1007f8008040eb00214798000004e000020035002b
:1008080010c0b300204798002e409000c700dd00bc
:10081800cac2bf000074a10001407000cae2b7005c
:100828001e0fe800f10020009e8f1000edff34003d
:10083800e9ff37000400fa00100798000000eb00f9
:10084800000f7800010037001e0fe8001e0090001e
:100858006700b9009e0f5000fbff3a000080fa00c5
:10086800000006000400fa00100798000000eb00e2
:10087800000f780003003700403b2000edff070021
:100888001e0fe8001e0090009e0f1000faff3a00ad
:100898000080fa00000006000400fa001007980023
:1008a8000000eb00000f780003003700803e2000b6
:1008b800ecff07001e0fe8001e0090009e0f1000be
:1008c800faff3a000080fa00000006000200fa0071
:1008d8000200370012ff0700000f780019ff070019
:1008e800e14f5000fbff32000080fa0000000600d4
:1008f8000400fa0013ff0700e14f50000b003a0014
:1009080007ff0700004f780060c0b3009e4f10003b
:1009180003003a0010002000100798000500370077
:100928000000eb0010079800020037000000eb0001
:10093800100798001e0090000080fa0000000600d2
:100948000800fa00604798000000eb0010079800c4
:100958001e0037000000eb00200798001500370044
:100968006e4090008000fb002e00900080804000c8
:100978001e009000008f40006e4090008000fb0039
:100988002e009000808040001e00900000804000f3
:100998002011880085c0bf00704060000004e0009e
:1009a800fcff32008580a9002e0090000000e800be
:1009b800200798002e009000e30f5000e8ff340055
:1009c8001e0090000000e800100798001e0090002c
:1009d800e30f5000dfff34000080fa00000006003b
:1009e8000800fa0020079800310798000000eb0083
:1009f80010079800150037001e009000800078004e
:100a08002e0090000080400010407800004f7800d1
:100a18001e009000800078002e00900000804000aa
:100a2800104078000080fb002011880085c0bf00be
:100a3800704060000004e000fcff32008580a900df
:100a48001e0090000000e800100798009e0090002b
:100a58003e009000808f5000e7ff3500bcfe070085
:100a68000004e000fdff3a000080fa0000000600e4
:100a78000000fa008020a900ffff37000000fa00fc
:100a88008060a900ffff37000000fa008040a9003d
:100a9800ffff37000000fa008080a900ffff370041
:100aa8000000fa0080a0a900ffff37000000fa004c
:100ab8008020a900ffff37000000fa008060a9002d
:100ac800ffff37000000fa008040a900ffff370051
:100ad8000000fa008080a900ffff37000000fa003c
:080ae80080a0a900ffff370008
:020000040000fa
:100af0005008000000080000000000000000000096
:00000001FF
